{
  "_format": "hh-sol-artifact-1",
  "contractName": "EcommerceToken",
  "sourceName": "contracts/EcommerceToken.sol",
  "abi": [
    {
      "inputs": [
        {
          "internalType": "string",
          "name": "name_",
          "type": "string"
        },
        {
          "internalType": "string",
          "name": "symbol_",
          "type": "string"
        }
      ],
      "stateMutability": "nonpayable",
      "type": "constructor"
    },
    {
      "anonymous": false,
      "inputs": [
        {
          "indexed": true,
          "internalType": "address",
          "name": "owner",
          "type": "address"
        },
        {
          "indexed": true,
          "internalType": "address",
          "name": "approved",
          "type": "address"
        },
        {
          "indexed": true,
          "internalType": "uint256",
          "name": "tokenId",
          "type": "uint256"
        }
      ],
      "name": "Approval",
      "type": "event"
    },
    {
      "anonymous": false,
      "inputs": [
        {
          "indexed": true,
          "internalType": "address",
          "name": "owner",
          "type": "address"
        },
        {
          "indexed": true,
          "internalType": "address",
          "name": "operator",
          "type": "address"
        },
        {
          "indexed": false,
          "internalType": "bool",
          "name": "approved",
          "type": "bool"
        }
      ],
      "name": "ApprovalForAll",
      "type": "event"
    },
    {
      "anonymous": false,
      "inputs": [
        {
          "indexed": true,
          "internalType": "address",
          "name": "from",
          "type": "address"
        },
        {
          "indexed": true,
          "internalType": "address",
          "name": "to",
          "type": "address"
        },
        {
          "indexed": true,
          "internalType": "uint256",
          "name": "tokenId",
          "type": "uint256"
        }
      ],
      "name": "Transfer",
      "type": "event"
    },
    {
      "inputs": [
        {
          "internalType": "address",
          "name": "to",
          "type": "address"
        },
        {
          "internalType": "uint256",
          "name": "tokenId",
          "type": "uint256"
        }
      ],
      "name": "approve",
      "outputs": [],
      "stateMutability": "nonpayable",
      "type": "function"
    },
    {
      "inputs": [
        {
          "internalType": "address",
          "name": "owner",
          "type": "address"
        }
      ],
      "name": "balanceOf",
      "outputs": [
        {
          "internalType": "uint256",
          "name": "",
          "type": "uint256"
        }
      ],
      "stateMutability": "view",
      "type": "function"
    },
    {
      "inputs": [],
      "name": "ecommerce",
      "outputs": [
        {
          "internalType": "address",
          "name": "",
          "type": "address"
        }
      ],
      "stateMutability": "view",
      "type": "function"
    },
    {
      "inputs": [
        {
          "internalType": "uint256",
          "name": "tokenId",
          "type": "uint256"
        }
      ],
      "name": "getApproved",
      "outputs": [
        {
          "internalType": "address",
          "name": "",
          "type": "address"
        }
      ],
      "stateMutability": "view",
      "type": "function"
    },
    {
      "inputs": [
        {
          "internalType": "address",
          "name": "owner",
          "type": "address"
        },
        {
          "internalType": "address",
          "name": "operator",
          "type": "address"
        }
      ],
      "name": "isApprovedForAll",
      "outputs": [
        {
          "internalType": "bool",
          "name": "",
          "type": "bool"
        }
      ],
      "stateMutability": "view",
      "type": "function"
    },
    {
      "inputs": [],
      "name": "isEcommerceSet",
      "outputs": [
        {
          "internalType": "bool",
          "name": "",
          "type": "bool"
        }
      ],
      "stateMutability": "view",
      "type": "function"
    },
    {
      "inputs": [
        {
          "internalType": "address",
          "name": "_to",
          "type": "address"
        },
        {
          "internalType": "uint256",
          "name": "_tokenId",
          "type": "uint256"
        }
      ],
      "name": "mint",
      "outputs": [],
      "stateMutability": "nonpayable",
      "type": "function"
    },
    {
      "inputs": [],
      "name": "name",
      "outputs": [
        {
          "internalType": "string",
          "name": "",
          "type": "string"
        }
      ],
      "stateMutability": "view",
      "type": "function"
    },
    {
      "inputs": [
        {
          "internalType": "uint256",
          "name": "tokenId",
          "type": "uint256"
        }
      ],
      "name": "ownerOf",
      "outputs": [
        {
          "internalType": "address",
          "name": "",
          "type": "address"
        }
      ],
      "stateMutability": "view",
      "type": "function"
    },
    {
      "inputs": [],
      "name": "removeEcommerce",
      "outputs": [],
      "stateMutability": "nonpayable",
      "type": "function"
    },
    {
      "inputs": [
        {
          "internalType": "address",
          "name": "from",
          "type": "address"
        },
        {
          "internalType": "address",
          "name": "to",
          "type": "address"
        },
        {
          "internalType": "uint256",
          "name": "tokenId",
          "type": "uint256"
        }
      ],
      "name": "safeTransferFrom",
      "outputs": [],
      "stateMutability": "nonpayable",
      "type": "function"
    },
    {
      "inputs": [
        {
          "internalType": "address",
          "name": "from",
          "type": "address"
        },
        {
          "internalType": "address",
          "name": "to",
          "type": "address"
        },
        {
          "internalType": "uint256",
          "name": "tokenId",
          "type": "uint256"
        },
        {
          "internalType": "bytes",
          "name": "_data",
          "type": "bytes"
        }
      ],
      "name": "safeTransferFrom",
      "outputs": [],
      "stateMutability": "nonpayable",
      "type": "function"
    },
    {
      "inputs": [
        {
          "internalType": "address",
          "name": "operator",
          "type": "address"
        },
        {
          "internalType": "bool",
          "name": "approved",
          "type": "bool"
        }
      ],
      "name": "setApprovalForAll",
      "outputs": [],
      "stateMutability": "nonpayable",
      "type": "function"
    },
    {
      "inputs": [
        {
          "internalType": "address",
          "name": "_ecommerce",
          "type": "address"
        }
      ],
      "name": "setEcommerce",
      "outputs": [],
      "stateMutability": "nonpayable",
      "type": "function"
    },
    {
      "inputs": [
        {
          "internalType": "bytes4",
          "name": "interfaceId",
          "type": "bytes4"
        }
      ],
      "name": "supportsInterface",
      "outputs": [
        {
          "internalType": "bool",
          "name": "",
          "type": "bool"
        }
      ],
      "stateMutability": "view",
      "type": "function"
    },
    {
      "inputs": [],
      "name": "symbol",
      "outputs": [
        {
          "internalType": "string",
          "name": "",
          "type": "string"
        }
      ],
      "stateMutability": "view",
      "type": "function"
    },
    {
      "inputs": [
        {
          "internalType": "uint256",
          "name": "tokenId",
          "type": "uint256"
        }
      ],
      "name": "tokenURI",
      "outputs": [
        {
          "internalType": "string",
          "name": "",
          "type": "string"
        }
      ],
      "stateMutability": "view",
      "type": "function"
    },
    {
      "inputs": [
        {
          "internalType": "address",
          "name": "from",
          "type": "address"
        },
        {
          "internalType": "address",
          "name": "to",
          "type": "address"
        },
        {
          "internalType": "uint256",
          "name": "tokenId",
          "type": "uint256"
        }
      ],
      "name": "transferFrom",
      "outputs": [],
      "stateMutability": "nonpayable",
      "type": "function"
    }
  ],
  "bytecode": "0x60806040526000600660146101000a81548160ff0219169083151502179055503480156200002c57600080fd5b50604051620031cf380380620031cf8339818101604052810190620000529190620002dd565b818181600090805190602001906200006c92919062000090565b5080600190805190602001906200008592919062000090565b5050505050620003c7565b8280546200009e9062000391565b90600052602060002090601f016020900481019282620000c257600085556200010e565b82601f10620000dd57805160ff19168380011785556200010e565b828001600101855582156200010e579182015b828111156200010d578251825591602001919060010190620000f0565b5b5090506200011d919062000121565b5090565b5b808211156200013c57600081600090555060010162000122565b5090565b6000604051905090565b600080fd5b600080fd5b600080fd5b600080fd5b6000601f19601f8301169050919050565b7f4e487b7100000000000000000000000000000000000000000000000000000000600052604160045260246000fd5b620001a9826200015e565b810181811067ffffffffffffffff82111715620001cb57620001ca6200016f565b5b80604052505050565b6000620001e062000140565b9050620001ee82826200019e565b919050565b600067ffffffffffffffff8211156200021157620002106200016f565b5b6200021c826200015e565b9050602081019050919050565b60005b83811015620002495780820151818401526020810190506200022c565b8381111562000259576000848401525b50505050565b6000620002766200027084620001f3565b620001d4565b90508281526020810184848401111562000295576200029462000159565b5b620002a284828562000229565b509392505050565b600082601f830112620002c257620002c162000154565b5b8151620002d48482602086016200025f565b91505092915050565b60008060408385031215620002f757620002f66200014a565b5b600083015167ffffffffffffffff8111156200031857620003176200014f565b5b6200032685828601620002aa565b925050602083015167ffffffffffffffff8111156200034a57620003496200014f565b5b6200035885828601620002aa565b9150509250929050565b7f4e487b7100000000000000000000000000000000000000000000000000000000600052602260045260246000fd5b60006002820490506001821680620003aa57607f821691505b60208210811415620003c157620003c062000362565b5b50919050565b612df880620003d76000396000f3fe608060405234801561001057600080fd5b50600436106101165760003560e01c806395d89b41116100a2578063c87b56dd11610071578063c87b56dd146102db578063dbbb58a41461030b578063e985e9c514610329578063f2b87c0d14610359578063faa13d531461037757610116565b806395d89b4114610269578063a22cb46514610287578063b58aeed4146102a3578063b88d4fde146102bf57610116565b806323b872dd116100e957806323b872dd146101b557806340c10f19146101d157806342842e0e146101ed5780636352211e1461020957806370a082311461023957610116565b806301ffc9a71461011b57806306fdde031461014b578063081812fc14610169578063095ea7b314610199575b600080fd5b61013560048036038101906101309190611ac7565b610381565b6040516101429190611b0f565b60405180910390f35b610153610463565b6040516101609190611bc3565b60405180910390f35b610183600480360381019061017e9190611c1b565b6104f5565b6040516101909190611c89565b60405180910390f35b6101b360048036038101906101ae9190611cd0565b61057a565b005b6101cf60048036038101906101ca9190611d10565b6106f1565b005b6101eb60048036038101906101e69190611cd0565b610751565b005b61020760048036038101906102029190611d10565b6107ef565b005b610223600480360381019061021e9190611c1b565b61080f565b6040516102309190611c89565b60405180910390f35b610253600480360381019061024e9190611d63565b6108c1565b6040516102609190611d9f565b60405180910390f35b610271610979565b60405161027e9190611bc3565b60405180910390f35b6102a1600480360381019061029c9190611de6565b610a0b565b005b6102bd60048036038101906102b89190611d63565b610b8c565b005b6102d960048036038101906102d49190611f5b565b610cab565b005b6102f560048036038101906102f09190611c1b565b610d0d565b6040516103029190611bc3565b60405180910390f35b610313610db4565b6040516103209190611b0f565b60405180910390f35b610343600480360381019061033e9190611fde565b610dc7565b6040516103509190611b0f565b60405180910390f35b610361610e5b565b60405161036e9190611c89565b60405180910390f35b61037f610e81565b005b60007f80ac58cd000000000000000000000000000000000000000000000000000000007bffffffffffffffffffffffffffffffffffffffffffffffffffffffff1916827bffffffffffffffffffffffffffffffffffffffffffffffffffffffff1916148061044c57507f5b5e139f000000000000000000000000000000000000000000000000000000007bffffffffffffffffffffffffffffffffffffffffffffffffffffffff1916827bffffffffffffffffffffffffffffffffffffffffffffffffffffffff1916145b8061045c575061045b82610fc0565b5b9050919050565b6060600080546104729061204d565b80601f016020809104026020016040519081016040528092919081815260200182805461049e9061204d565b80156104eb5780601f106104c0576101008083540402835291602001916104eb565b820191906000526020600020905b8154815290600101906020018083116104ce57829003601f168201915b5050505050905090565b60006105008261102a565b61053f576040517f08c379a0000000000000000000000000000000000000000000000000000000008152600401610536906120f1565b60405180910390fd5b6004600083815260200190815260200160002060009054906101000a900473ffffffffffffffffffffffffffffffffffffffff169050919050565b60006105858261080f565b90508073ffffffffffffffffffffffffffffffffffffffff168373ffffffffffffffffffffffffffffffffffffffff1614156105f6576040517f08c379a00000000000000000000000000000000000000000000000000000000081526004016105ed90612183565b60405180910390fd5b600660009054906101000a900473ffffffffffffffffffffffffffffffffffffffff1673ffffffffffffffffffffffffffffffffffffffff16610637611096565b73ffffffffffffffffffffffffffffffffffffffff16148061068b57508073ffffffffffffffffffffffffffffffffffffffff16610673611096565b73ffffffffffffffffffffffffffffffffffffffff16145b806106a357506106a28161069d611096565b610dc7565b5b6106e2576040517f08c379a00000000000000000000000000000000000000000000000000000000081526004016106d990612215565b60405180910390fd5b6106ec838361109e565b505050565b6107026106fc611096565b82611157565b610741576040517f08c379a0000000000000000000000000000000000000000000000000000000008152600401610738906122a7565b60405180910390fd5b61074c838383611235565b505050565b600660009054906101000a900473ffffffffffffffffffffffffffffffffffffffff1673ffffffffffffffffffffffffffffffffffffffff163373ffffffffffffffffffffffffffffffffffffffff16146107e1576040517f08c379a00000000000000000000000000000000000000000000000000000000081526004016107d890612339565b60405180910390fd5b6107eb8282611491565b5050565b61080a83838360405180602001604052806000815250610cab565b505050565b6000806002600084815260200190815260200160002060009054906101000a900473ffffffffffffffffffffffffffffffffffffffff169050600073ffffffffffffffffffffffffffffffffffffffff168173ffffffffffffffffffffffffffffffffffffffff1614156108b8576040517f08c379a00000000000000000000000000000000000000000000000000000000081526004016108af906123cb565b60405180910390fd5b80915050919050565b60008073ffffffffffffffffffffffffffffffffffffffff168273ffffffffffffffffffffffffffffffffffffffff161415610932576040517f08c379a00000000000000000000000000000000000000000000000000000000081526004016109299061245d565b60405180910390fd5b600360008373ffffffffffffffffffffffffffffffffffffffff1673ffffffffffffffffffffffffffffffffffffffff168152602001908152602001600020549050919050565b6060600180546109889061204d565b80601f01602080910402602001604051908101604052809291908181526020018280546109b49061204d565b8015610a015780601f106109d657610100808354040283529160200191610a01565b820191906000526020600020905b8154815290600101906020018083116109e457829003601f168201915b5050505050905090565b610a13611096565b73ffffffffffffffffffffffffffffffffffffffff168273ffffffffffffffffffffffffffffffffffffffff161415610a81576040517f08c379a0000000000000000000000000000000000000000000000000000000008152600401610a78906124c9565b60405180910390fd5b8060056000610a8e611096565b73ffffffffffffffffffffffffffffffffffffffff1673ffffffffffffffffffffffffffffffffffffffff16815260200190815260200160002060008473ffffffffffffffffffffffffffffffffffffffff1673ffffffffffffffffffffffffffffffffffffffff16815260200190815260200160002060006101000a81548160ff0219169083151502179055508173ffffffffffffffffffffffffffffffffffffffff16610b3b611096565b73ffffffffffffffffffffffffffffffffffffffff167f17307eab39ab6107e8899845ad3d59bd9653f200f220920489ca2b5937696c3183604051610b809190611b0f565b60405180910390a35050565b600660149054906101000a900460ff1615610bdc576040517f08c379a0000000000000000000000000000000000000000000000000000000008152600401610bd39061255b565b60405180910390fd5b600073ffffffffffffffffffffffffffffffffffffffff168173ffffffffffffffffffffffffffffffffffffffff161415610c4c576040517f08c379a0000000000000000000000000000000000000000000000000000000008152600401610c43906125ed565b60405180910390fd5b6001600660146101000a81548160ff02191690831515021790555080600660006101000a81548173ffffffffffffffffffffffffffffffffffffffff021916908373ffffffffffffffffffffffffffffffffffffffff16021790555050565b610cbc610cb6611096565b83611157565b610cfb576040517f08c379a0000000000000000000000000000000000000000000000000000000008152600401610cf2906122a7565b60405180910390fd5b610d07848484846114af565b50505050565b6060610d188261102a565b610d57576040517f08c379a0000000000000000000000000000000000000000000000000000000008152600401610d4e9061267f565b60405180910390fd5b6000610d6161150b565b90506000815111610d815760405180602001604052806000815250610dac565b80610d8b84611522565b604051602001610d9c9291906126db565b6040516020818303038152906040525b915050919050565b600660149054906101000a900460ff1681565b6000600560008473ffffffffffffffffffffffffffffffffffffffff1673ffffffffffffffffffffffffffffffffffffffff16815260200190815260200160002060008373ffffffffffffffffffffffffffffffffffffffff1673ffffffffffffffffffffffffffffffffffffffff16815260200190815260200160002060009054906101000a900460ff16905092915050565b600660009054906101000a900473ffffffffffffffffffffffffffffffffffffffff1681565b600660149054906101000a900460ff16610ed0576040517f08c379a0000000000000000000000000000000000000000000000000000000008152600401610ec79061274b565b60405180910390fd5b600660009054906101000a900473ffffffffffffffffffffffffffffffffffffffff1673ffffffffffffffffffffffffffffffffffffffff163373ffffffffffffffffffffffffffffffffffffffff161415610f61576040517f08c379a0000000000000000000000000000000000000000000000000000000008152600401610f58906127dd565b60405180910390fd5b6000600660146101000a81548160ff0219169083151502179055506000600660006101000a81548173ffffffffffffffffffffffffffffffffffffffff021916908373ffffffffffffffffffffffffffffffffffffffff160217905550565b60007f01ffc9a7000000000000000000000000000000000000000000000000000000007bffffffffffffffffffffffffffffffffffffffffffffffffffffffff1916827bffffffffffffffffffffffffffffffffffffffffffffffffffffffff1916149050919050565b60008073ffffffffffffffffffffffffffffffffffffffff166002600084815260200190815260200160002060009054906101000a900473ffffffffffffffffffffffffffffffffffffffff1673ffffffffffffffffffffffffffffffffffffffff1614159050919050565b600033905090565b816004600083815260200190815260200160002060006101000a81548173ffffffffffffffffffffffffffffffffffffffff021916908373ffffffffffffffffffffffffffffffffffffffff160217905550808273ffffffffffffffffffffffffffffffffffffffff166111118361080f565b73ffffffffffffffffffffffffffffffffffffffff167f8c5be1e5ebec7d5bd14f71427d1e84f3dd0314c0f7b2291e5b200ac8c7c3b92560405160405180910390a45050565b60006111628261102a565b6111a1576040517f08c379a00000000000000000000000000000000000000000000000000000000081526004016111989061286f565b60405180910390fd5b60006111ac8361080f565b90508073ffffffffffffffffffffffffffffffffffffffff168473ffffffffffffffffffffffffffffffffffffffff16148061121b57508373ffffffffffffffffffffffffffffffffffffffff16611203846104f5565b73ffffffffffffffffffffffffffffffffffffffff16145b8061122c575061122b8185610dc7565b5b91505092915050565b8273ffffffffffffffffffffffffffffffffffffffff166112558261080f565b73ffffffffffffffffffffffffffffffffffffffff16146112ab576040517f08c379a00000000000000000000000000000000000000000000000000000000081526004016112a290612901565b60405180910390fd5b600073ffffffffffffffffffffffffffffffffffffffff168273ffffffffffffffffffffffffffffffffffffffff16141561131b576040517f08c379a000000000000000000000000000000000000000000000000000000000815260040161131290612993565b60405180910390fd5b611326838383611683565b61133160008261109e565b6001600360008573ffffffffffffffffffffffffffffffffffffffff1673ffffffffffffffffffffffffffffffffffffffff168152602001908152602001600020600082825461138191906129e2565b925050819055506001600360008473ffffffffffffffffffffffffffffffffffffffff1673ffffffffffffffffffffffffffffffffffffffff16815260200190815260200160002060008282546113d89190612a16565b92505081905550816002600083815260200190815260200160002060006101000a81548173ffffffffffffffffffffffffffffffffffffffff021916908373ffffffffffffffffffffffffffffffffffffffff160217905550808273ffffffffffffffffffffffffffffffffffffffff168473ffffffffffffffffffffffffffffffffffffffff167fddf252ad1be2c89b69c2b068fc378daa952ba7f163c4a11628f55a4df523b3ef60405160405180910390a4505050565b6114ab828260405180602001604052806000815250611688565b5050565b6114ba848484611235565b6114c6848484846116e3565b611505576040517f08c379a00000000000000000000000000000000000000000000000000000000081526004016114fc90612ade565b60405180910390fd5b50505050565b606060405180602001604052806000815250905090565b6060600082141561156a576040518060400160405280600181526020017f3000000000000000000000000000000000000000000000000000000000000000815250905061167e565b600082905060005b6000821461159c57808061158590612afe565b915050600a826115959190612b76565b9150611572565b60008167ffffffffffffffff8111156115b8576115b7611e30565b5b6040519080825280601f01601f1916602001820160405280156115ea5781602001600182028036833780820191505090505b5090505b600085146116775760018261160391906129e2565b9150600a856116129190612ba7565b603061161e9190612a16565b60f81b81838151811061163457611633612bd8565b5b60200101907effffffffffffffffffffffffffffffffffffffffffffffffffffffffffffff1916908160001a905350600a856116709190612b76565b94506115ee565b8093505050505b919050565b505050565b611692838361187a565b61169f60008484846116e3565b6116de576040517f08c379a00000000000000000000000000000000000000000000000000000000081526004016116d590612ade565b60405180910390fd5b505050565b60006117048473ffffffffffffffffffffffffffffffffffffffff16611a48565b1561186d578373ffffffffffffffffffffffffffffffffffffffff1663150b7a0261172d611096565b8786866040518563ffffffff1660e01b815260040161174f9493929190612c5c565b602060405180830381600087803b15801561176957600080fd5b505af192505050801561179a57506040513d601f19601f820116820180604052508101906117979190612cbd565b60015b61181d573d80600081146117ca576040519150601f19603f3d011682016040523d82523d6000602084013e6117cf565b606091505b50600081511415611815576040517f08c379a000000000000000000000000000000000000000000000000000000000815260040161180c90612ade565b60405180910390fd5b805181602001fd5b63150b7a0260e01b7bffffffffffffffffffffffffffffffffffffffffffffffffffffffff1916817bffffffffffffffffffffffffffffffffffffffffffffffffffffffff191614915050611872565b600190505b949350505050565b600073ffffffffffffffffffffffffffffffffffffffff168273ffffffffffffffffffffffffffffffffffffffff1614156118ea576040517f08c379a00000000000000000000000000000000000000000000000000000000081526004016118e190612d36565b60405180910390fd5b6118f38161102a565b15611933576040517f08c379a000000000000000000000000000000000000000000000000000000000815260040161192a90612da2565b60405180910390fd5b61193f60008383611683565b6001600360008473ffffffffffffffffffffffffffffffffffffffff1673ffffffffffffffffffffffffffffffffffffffff168152602001908152602001600020600082825461198f9190612a16565b92505081905550816002600083815260200190815260200160002060006101000a81548173ffffffffffffffffffffffffffffffffffffffff021916908373ffffffffffffffffffffffffffffffffffffffff160217905550808273ffffffffffffffffffffffffffffffffffffffff16600073ffffffffffffffffffffffffffffffffffffffff167fddf252ad1be2c89b69c2b068fc378daa952ba7f163c4a11628f55a4df523b3ef60405160405180910390a45050565b600080823b905060008111915050919050565b6000604051905090565b600080fd5b600080fd5b60007fffffffff0000000000000000000000000000000000000000000000000000000082169050919050565b611aa481611a6f565b8114611aaf57600080fd5b50565b600081359050611ac181611a9b565b92915050565b600060208284031215611add57611adc611a65565b5b6000611aeb84828501611ab2565b91505092915050565b60008115159050919050565b611b0981611af4565b82525050565b6000602082019050611b246000830184611b00565b92915050565b600081519050919050565b600082825260208201905092915050565b60005b83811015611b64578082015181840152602081019050611b49565b83811115611b73576000848401525b50505050565b6000601f19601f8301169050919050565b6000611b9582611b2a565b611b9f8185611b35565b9350611baf818560208601611b46565b611bb881611b79565b840191505092915050565b60006020820190508181036000830152611bdd8184611b8a565b905092915050565b6000819050919050565b611bf881611be5565b8114611c0357600080fd5b50565b600081359050611c1581611bef565b92915050565b600060208284031215611c3157611c30611a65565b5b6000611c3f84828501611c06565b91505092915050565b600073ffffffffffffffffffffffffffffffffffffffff82169050919050565b6000611c7382611c48565b9050919050565b611c8381611c68565b82525050565b6000602082019050611c9e6000830184611c7a565b92915050565b611cad81611c68565b8114611cb857600080fd5b50565b600081359050611cca81611ca4565b92915050565b60008060408385031215611ce757611ce6611a65565b5b6000611cf585828601611cbb565b9250506020611d0685828601611c06565b9150509250929050565b600080600060608486031215611d2957611d28611a65565b5b6000611d3786828701611cbb565b9350506020611d4886828701611cbb565b9250506040611d5986828701611c06565b9150509250925092565b600060208284031215611d7957611d78611a65565b5b6000611d8784828501611cbb565b91505092915050565b611d9981611be5565b82525050565b6000602082019050611db46000830184611d90565b92915050565b611dc381611af4565b8114611dce57600080fd5b50565b600081359050611de081611dba565b92915050565b60008060408385031215611dfd57611dfc611a65565b5b6000611e0b85828601611cbb565b9250506020611e1c85828601611dd1565b9150509250929050565b600080fd5b600080fd5b7f4e487b7100000000000000000000000000000000000000000000000000000000600052604160045260246000fd5b611e6882611b79565b810181811067ffffffffffffffff82111715611e8757611e86611e30565b5b80604052505050565b6000611e9a611a5b565b9050611ea68282611e5f565b919050565b600067ffffffffffffffff821115611ec657611ec5611e30565b5b611ecf82611b79565b9050602081019050919050565b82818337600083830152505050565b6000611efe611ef984611eab565b611e90565b905082815260208101848484011115611f1a57611f19611e2b565b5b611f25848285611edc565b509392505050565b600082601f830112611f4257611f41611e26565b5b8135611f52848260208601611eeb565b91505092915050565b60008060008060808587031215611f7557611f74611a65565b5b6000611f8387828801611cbb565b9450506020611f9487828801611cbb565b9350506040611fa587828801611c06565b925050606085013567ffffffffffffffff811115611fc657611fc5611a6a565b5b611fd287828801611f2d565b91505092959194509250565b60008060408385031215611ff557611ff4611a65565b5b600061200385828601611cbb565b925050602061201485828601611cbb565b9150509250929050565b7f4e487b7100000000000000000000000000000000000000000000000000000000600052602260045260246000fd5b6000600282049050600182168061206557607f821691505b602082108114156120795761207861201e565b5b50919050565b7f4552433732313a20617070726f76656420717565727920666f72206e6f6e657860008201527f697374656e7420746f6b656e0000000000000000000000000000000000000000602082015250565b60006120db602c83611b35565b91506120e68261207f565b604082019050919050565b6000602082019050818103600083015261210a816120ce565b9050919050565b7f4552433732313a20617070726f76616c20746f2063757272656e74206f776e6560008201527f7200000000000000000000000000000000000000000000000000000000000000602082015250565b600061216d602183611b35565b915061217882612111565b604082019050919050565b6000602082019050818103600083015261219c81612160565b9050919050565b7f4552433732313a20617070726f76652063616c6c6572206973206e6f74206f7760008201527f6e6572206e6f7220617070726f76656420666f7220616c6c0000000000000000602082015250565b60006121ff603883611b35565b915061220a826121a3565b604082019050919050565b6000602082019050818103600083015261222e816121f2565b9050919050565b7f4552433732313a207472616e736665722063616c6c6572206973206e6f74206f60008201527f776e6572206e6f7220617070726f766564000000000000000000000000000000602082015250565b6000612291603183611b35565b915061229c82612235565b604082019050919050565b600060208201905081810360008301526122c081612284565b9050919050565b7f4f6e6c79207468652065636f6d6d6572636520636f6e74726163742063616e2060008201527f6d696e74206e657720746f6b656e730000000000000000000000000000000000602082015250565b6000612323602f83611b35565b915061232e826122c7565b604082019050919050565b6000602082019050818103600083015261235281612316565b9050919050565b7f4552433732313a206f776e657220717565727920666f72206e6f6e657869737460008201527f656e7420746f6b656e0000000000000000000000000000000000000000000000602082015250565b60006123b5602983611b35565b91506123c082612359565b604082019050919050565b600060208201905081810360008301526123e4816123a8565b9050919050565b7f4552433732313a2062616c616e636520717565727920666f7220746865207a6560008201527f726f206164647265737300000000000000000000000000000000000000000000602082015250565b6000612447602a83611b35565b9150612452826123eb565b604082019050919050565b600060208201905081810360008301526124768161243a565b9050919050565b7f4552433732313a20617070726f766520746f2063616c6c657200000000000000600082015250565b60006124b3601983611b35565b91506124be8261247d565b602082019050919050565b600060208201905081810360008301526124e2816124a6565b9050919050565b7f5468652065636f6d6d6572636520616464726573732063616e206f6e6c79206260008201527f6520736574206f6e636500000000000000000000000000000000000000000000602082015250565b6000612545602a83611b35565b9150612550826124e9565b604082019050919050565b6000602082019050818103600083015261257481612538565b9050919050565b7f5468652065636f6d6d6572636520616464726573732063616e6e6f742062652060008201527f656d707479000000000000000000000000000000000000000000000000000000602082015250565b60006125d7602583611b35565b91506125e28261257b565b604082019050919050565b60006020820190508181036000830152612606816125ca565b9050919050565b7f4552433732314d657461646174613a2055524920717565727920666f72206e6f60008201527f6e6578697374656e7420746f6b656e0000000000000000000000000000000000602082015250565b6000612669602f83611b35565b91506126748261260d565b604082019050919050565b600060208201905081810360008301526126988161265c565b9050919050565b600081905092915050565b60006126b582611b2a565b6126bf818561269f565b93506126cf818560208601611b46565b80840191505092915050565b60006126e782856126aa565b91506126f382846126aa565b91508190509392505050565b7f5468652065636f6d6d65726365206d7573742062652073657400000000000000600082015250565b6000612735601983611b35565b9150612740826126ff565b602082019050919050565b6000602082019050818103600083015261276481612728565b9050919050565b7f4f6e6c79207468652065636f6d6d6572636520616464726573732063616e207260008201527f656d6f766520697473656c660000000000000000000000000000000000000000602082015250565b60006127c7602c83611b35565b91506127d28261276b565b604082019050919050565b600060208201905081810360008301526127f6816127ba565b9050919050565b7f4552433732313a206f70657261746f7220717565727920666f72206e6f6e657860008201527f697374656e7420746f6b656e0000000000000000000000000000000000000000602082015250565b6000612859602c83611b35565b9150612864826127fd565b604082019050919050565b600060208201905081810360008301526128888161284c565b9050919050565b7f4552433732313a207472616e73666572206f6620746f6b656e2074686174206960008201527f73206e6f74206f776e0000000000000000000000000000000000000000000000602082015250565b60006128eb602983611b35565b91506128f68261288f565b604082019050919050565b6000602082019050818103600083015261291a816128de565b9050919050565b7f4552433732313a207472616e7366657220746f20746865207a65726f2061646460008201527f7265737300000000000000000000000000000000000000000000000000000000602082015250565b600061297d602483611b35565b915061298882612921565b604082019050919050565b600060208201905081810360008301526129ac81612970565b9050919050565b7f4e487b7100000000000000000000000000000000000000000000000000000000600052601160045260246000fd5b60006129ed82611be5565b91506129f883611be5565b925082821015612a0b57612a0a6129b3565b5b828203905092915050565b6000612a2182611be5565b9150612a2c83611be5565b9250827fffffffffffffffffffffffffffffffffffffffffffffffffffffffffffffffff03821115612a6157612a606129b3565b5b828201905092915050565b7f4552433732313a207472616e7366657220746f206e6f6e20455243373231526560008201527f63656976657220696d706c656d656e7465720000000000000000000000000000602082015250565b6000612ac8603283611b35565b9150612ad382612a6c565b604082019050919050565b60006020820190508181036000830152612af781612abb565b9050919050565b6000612b0982611be5565b91507fffffffffffffffffffffffffffffffffffffffffffffffffffffffffffffffff821415612b3c57612b3b6129b3565b5b600182019050919050565b7f4e487b7100000000000000000000000000000000000000000000000000000000600052601260045260246000fd5b6000612b8182611be5565b9150612b8c83611be5565b925082612b9c57612b9b612b47565b5b828204905092915050565b6000612bb282611be5565b9150612bbd83611be5565b925082612bcd57612bcc612b47565b5b828206905092915050565b7f4e487b7100000000000000000000000000000000000000000000000000000000600052603260045260246000fd5b600081519050919050565b600082825260208201905092915050565b6000612c2e82612c07565b612c388185612c12565b9350612c48818560208601611b46565b612c5181611b79565b840191505092915050565b6000608082019050612c716000830187611c7a565b612c7e6020830186611c7a565b612c8b6040830185611d90565b8181036060830152612c9d8184612c23565b905095945050505050565b600081519050612cb781611a9b565b92915050565b600060208284031215612cd357612cd2611a65565b5b6000612ce184828501612ca8565b91505092915050565b7f4552433732313a206d696e7420746f20746865207a65726f2061646472657373600082015250565b6000612d20602083611b35565b9150612d2b82612cea565b602082019050919050565b60006020820190508181036000830152612d4f81612d13565b9050919050565b7f4552433732313a20746f6b656e20616c7265616479206d696e74656400000000600082015250565b6000612d8c601c83611b35565b9150612d9782612d56565b602082019050919050565b60006020820190508181036000830152612dbb81612d7f565b905091905056fea26469706673582212205f73f3f3df3890763b8e579570dbcbab1e58a0e374e8f5da5c4f56fb25dca46664736f6c63430008090033",
  "linkReferences": {},
  "deployedLinkReferences": {}
}