{
  "_format": "hh-sol-artifact-1",
  "contractName": "EcommerceToken",
  "sourceName": "contracts/EcommerceToken.sol",
  "abi": [
    {
      "inputs": [
        {
          "internalType": "string",
          "name": "name_",
          "type": "string"
        },
        {
          "internalType": "string",
          "name": "symbol_",
          "type": "string"
        }
      ],
      "stateMutability": "nonpayable",
      "type": "constructor"
    },
    {
      "anonymous": false,
      "inputs": [
        {
          "indexed": true,
          "internalType": "address",
          "name": "owner",
          "type": "address"
        },
        {
          "indexed": true,
          "internalType": "address",
          "name": "approved",
          "type": "address"
        },
        {
          "indexed": true,
          "internalType": "uint256",
          "name": "tokenId",
          "type": "uint256"
        }
      ],
      "name": "Approval",
      "type": "event"
    },
    {
      "anonymous": false,
      "inputs": [
        {
          "indexed": true,
          "internalType": "address",
          "name": "owner",
          "type": "address"
        },
        {
          "indexed": true,
          "internalType": "address",
          "name": "operator",
          "type": "address"
        },
        {
          "indexed": false,
          "internalType": "bool",
          "name": "approved",
          "type": "bool"
        }
      ],
      "name": "ApprovalForAll",
      "type": "event"
    },
    {
      "anonymous": false,
      "inputs": [
        {
          "indexed": true,
          "internalType": "address",
          "name": "previousOwner",
          "type": "address"
        },
        {
          "indexed": true,
          "internalType": "address",
          "name": "newOwner",
          "type": "address"
        }
      ],
      "name": "OwnershipTransferred",
      "type": "event"
    },
    {
      "anonymous": false,
      "inputs": [
        {
          "indexed": true,
          "internalType": "address",
          "name": "from",
          "type": "address"
        },
        {
          "indexed": true,
          "internalType": "address",
          "name": "to",
          "type": "address"
        },
        {
          "indexed": true,
          "internalType": "uint256",
          "name": "tokenId",
          "type": "uint256"
        }
      ],
      "name": "Transfer",
      "type": "event"
    },
    {
      "inputs": [
        {
          "internalType": "address",
          "name": "to",
          "type": "address"
        },
        {
          "internalType": "uint256",
          "name": "tokenId",
          "type": "uint256"
        }
      ],
      "name": "approve",
      "outputs": [],
      "stateMutability": "nonpayable",
      "type": "function"
    },
    {
      "inputs": [
        {
          "internalType": "address",
          "name": "owner",
          "type": "address"
        }
      ],
      "name": "balanceOf",
      "outputs": [
        {
          "internalType": "uint256",
          "name": "",
          "type": "uint256"
        }
      ],
      "stateMutability": "view",
      "type": "function"
    },
    {
      "inputs": [],
      "name": "ecommerce",
      "outputs": [
        {
          "internalType": "address",
          "name": "",
          "type": "address"
        }
      ],
      "stateMutability": "view",
      "type": "function"
    },
    {
      "inputs": [
        {
          "internalType": "uint256",
          "name": "tokenId",
          "type": "uint256"
        }
      ],
      "name": "getApproved",
      "outputs": [
        {
          "internalType": "address",
          "name": "",
          "type": "address"
        }
      ],
      "stateMutability": "view",
      "type": "function"
    },
    {
      "inputs": [
        {
          "internalType": "address",
          "name": "owner",
          "type": "address"
        },
        {
          "internalType": "address",
          "name": "operator",
          "type": "address"
        }
      ],
      "name": "isApprovedForAll",
      "outputs": [
        {
          "internalType": "bool",
          "name": "",
          "type": "bool"
        }
      ],
      "stateMutability": "view",
      "type": "function"
    },
    {
      "inputs": [],
      "name": "isEcommerceSet",
      "outputs": [
        {
          "internalType": "bool",
          "name": "",
          "type": "bool"
        }
      ],
      "stateMutability": "view",
      "type": "function"
    },
    {
      "inputs": [
        {
          "internalType": "address",
          "name": "_to",
          "type": "address"
        },
        {
          "internalType": "uint256",
          "name": "_tokenId",
          "type": "uint256"
        }
      ],
      "name": "mint",
      "outputs": [],
      "stateMutability": "nonpayable",
      "type": "function"
    },
    {
      "inputs": [],
      "name": "name",
      "outputs": [
        {
          "internalType": "string",
          "name": "",
          "type": "string"
        }
      ],
      "stateMutability": "view",
      "type": "function"
    },
    {
      "inputs": [],
      "name": "owner",
      "outputs": [
        {
          "internalType": "address",
          "name": "",
          "type": "address"
        }
      ],
      "stateMutability": "view",
      "type": "function"
    },
    {
      "inputs": [
        {
          "internalType": "uint256",
          "name": "tokenId",
          "type": "uint256"
        }
      ],
      "name": "ownerOf",
      "outputs": [
        {
          "internalType": "address",
          "name": "",
          "type": "address"
        }
      ],
      "stateMutability": "view",
      "type": "function"
    },
    {
      "inputs": [],
      "name": "removeEcommerce",
      "outputs": [],
      "stateMutability": "nonpayable",
      "type": "function"
    },
    {
      "inputs": [],
      "name": "renounceOwnership",
      "outputs": [],
      "stateMutability": "nonpayable",
      "type": "function"
    },
    {
      "inputs": [
        {
          "internalType": "address",
          "name": "from",
          "type": "address"
        },
        {
          "internalType": "address",
          "name": "to",
          "type": "address"
        },
        {
          "internalType": "uint256",
          "name": "tokenId",
          "type": "uint256"
        }
      ],
      "name": "safeTransferFrom",
      "outputs": [],
      "stateMutability": "nonpayable",
      "type": "function"
    },
    {
      "inputs": [
        {
          "internalType": "address",
          "name": "from",
          "type": "address"
        },
        {
          "internalType": "address",
          "name": "to",
          "type": "address"
        },
        {
          "internalType": "uint256",
          "name": "tokenId",
          "type": "uint256"
        },
        {
          "internalType": "bytes",
          "name": "_data",
          "type": "bytes"
        }
      ],
      "name": "safeTransferFrom",
      "outputs": [],
      "stateMutability": "nonpayable",
      "type": "function"
    },
    {
      "inputs": [
        {
          "internalType": "address",
          "name": "operator",
          "type": "address"
        },
        {
          "internalType": "bool",
          "name": "approved",
          "type": "bool"
        }
      ],
      "name": "setApprovalForAll",
      "outputs": [],
      "stateMutability": "nonpayable",
      "type": "function"
    },
    {
      "inputs": [
        {
          "internalType": "address",
          "name": "_ecommerce",
          "type": "address"
        }
      ],
      "name": "setEcommerce",
      "outputs": [],
      "stateMutability": "nonpayable",
      "type": "function"
    },
    {
      "inputs": [
        {
          "internalType": "bytes4",
          "name": "interfaceId",
          "type": "bytes4"
        }
      ],
      "name": "supportsInterface",
      "outputs": [
        {
          "internalType": "bool",
          "name": "",
          "type": "bool"
        }
      ],
      "stateMutability": "view",
      "type": "function"
    },
    {
      "inputs": [],
      "name": "symbol",
      "outputs": [
        {
          "internalType": "string",
          "name": "",
          "type": "string"
        }
      ],
      "stateMutability": "view",
      "type": "function"
    },
    {
      "inputs": [
        {
          "internalType": "uint256",
          "name": "tokenId",
          "type": "uint256"
        }
      ],
      "name": "tokenURI",
      "outputs": [
        {
          "internalType": "string",
          "name": "",
          "type": "string"
        }
      ],
      "stateMutability": "view",
      "type": "function"
    },
    {
      "inputs": [
        {
          "internalType": "address",
          "name": "from",
          "type": "address"
        },
        {
          "internalType": "address",
          "name": "to",
          "type": "address"
        },
        {
          "internalType": "uint256",
          "name": "tokenId",
          "type": "uint256"
        }
      ],
      "name": "transferFrom",
      "outputs": [],
      "stateMutability": "nonpayable",
      "type": "function"
    },
    {
      "inputs": [
        {
          "internalType": "address",
          "name": "newOwner",
          "type": "address"
        }
      ],
      "name": "transferOwnership",
      "outputs": [],
      "stateMutability": "nonpayable",
      "type": "function"
    }
  ],
  "bytecode": "0x60806040526000600760146101000a81548160ff0219169083151502179055503480156200002c57600080fd5b5060405162003788380380620037888339818101604052810190620000529190620003cb565b818181600090805190602001906200006c9291906200017e565b508060019080519060200190620000859291906200017e565b505050620000a86200009c620000b060201b60201c565b620000b860201b60201c565b5050620004b5565b600033905090565b6000600660009054906101000a900473ffffffffffffffffffffffffffffffffffffffff16905081600660006101000a81548173ffffffffffffffffffffffffffffffffffffffff021916908373ffffffffffffffffffffffffffffffffffffffff1602179055508173ffffffffffffffffffffffffffffffffffffffff168173ffffffffffffffffffffffffffffffffffffffff167f8be0079c531659141344cd1fd0a4f28419497f9722a3daafe3b4186f6b6457e060405160405180910390a35050565b8280546200018c906200047f565b90600052602060002090601f016020900481019282620001b05760008555620001fc565b82601f10620001cb57805160ff1916838001178555620001fc565b82800160010185558215620001fc579182015b82811115620001fb578251825591602001919060010190620001de565b5b5090506200020b91906200020f565b5090565b5b808211156200022a57600081600090555060010162000210565b5090565b6000604051905090565b600080fd5b600080fd5b600080fd5b600080fd5b6000601f19601f8301169050919050565b7f4e487b7100000000000000000000000000000000000000000000000000000000600052604160045260246000fd5b62000297826200024c565b810181811067ffffffffffffffff82111715620002b957620002b86200025d565b5b80604052505050565b6000620002ce6200022e565b9050620002dc82826200028c565b919050565b600067ffffffffffffffff821115620002ff57620002fe6200025d565b5b6200030a826200024c565b9050602081019050919050565b60005b83811015620003375780820151818401526020810190506200031a565b8381111562000347576000848401525b50505050565b6000620003646200035e84620002e1565b620002c2565b90508281526020810184848401111562000383576200038262000247565b5b6200039084828562000317565b509392505050565b600082601f830112620003b057620003af62000242565b5b8151620003c28482602086016200034d565b91505092915050565b60008060408385031215620003e557620003e462000238565b5b600083015167ffffffffffffffff8111156200040657620004056200023d565b5b620004148582860162000398565b925050602083015167ffffffffffffffff8111156200043857620004376200023d565b5b620004468582860162000398565b9150509250929050565b7f4e487b7100000000000000000000000000000000000000000000000000000000600052602260045260246000fd5b600060028204905060018216806200049857607f821691505b60208210811415620004af57620004ae62000450565b5b50919050565b6132c380620004c56000396000f3fe608060405234801561001057600080fd5b50600436106101375760003560e01c80638da5cb5b116100b8578063c87b56dd1161007c578063c87b56dd14610324578063dbbb58a414610354578063e985e9c514610372578063f2b87c0d146103a2578063f2fde38b146103c0578063faa13d53146103dc57610137565b80638da5cb5b1461029457806395d89b41146102b2578063a22cb465146102d0578063b58aeed4146102ec578063b88d4fde1461030857610137565b806340c10f19116100ff57806340c10f19146101f257806342842e0e1461020e5780636352211e1461022a57806370a082311461025a578063715018a61461028a57610137565b806301ffc9a71461013c57806306fdde031461016c578063081812fc1461018a578063095ea7b3146101ba57806323b872dd146101d6575b600080fd5b61015660048036038101906101519190611e94565b6103e6565b6040516101639190611edc565b60405180910390f35b6101746104c8565b6040516101819190611f90565b60405180910390f35b6101a4600480360381019061019f9190611fe8565b61055a565b6040516101b19190612056565b60405180910390f35b6101d460048036038101906101cf919061209d565b6105df565b005b6101f060048036038101906101eb91906120dd565b610756565b005b61020c6004803603810190610207919061209d565b6107b6565b005b610228600480360381019061022391906120dd565b610854565b005b610244600480360381019061023f9190611fe8565b610874565b6040516102519190612056565b60405180910390f35b610274600480360381019061026f9190612130565b610926565b604051610281919061216c565b60405180910390f35b6102926109de565b005b61029c610a66565b6040516102a99190612056565b60405180910390f35b6102ba610a90565b6040516102c79190611f90565b60405180910390f35b6102ea60048036038101906102e591906121b3565b610b22565b005b61030660048036038101906103019190612130565b610ca3565b005b610322600480360381019061031d9190612328565b610e3e565b005b61033e60048036038101906103399190611fe8565b610ea0565b60405161034b9190611f90565b60405180910390f35b61035c610f47565b6040516103699190611edc565b60405180910390f35b61038c600480360381019061038791906123ab565b610f5a565b6040516103999190611edc565b60405180910390f35b6103aa610fee565b6040516103b79190612056565b60405180910390f35b6103da60048036038101906103d59190612130565b611014565b005b6103e461110c565b005b60007f80ac58cd000000000000000000000000000000000000000000000000000000007bffffffffffffffffffffffffffffffffffffffffffffffffffffffff1916827bffffffffffffffffffffffffffffffffffffffffffffffffffffffff191614806104b157507f5b5e139f000000000000000000000000000000000000000000000000000000007bffffffffffffffffffffffffffffffffffffffffffffffffffffffff1916827bffffffffffffffffffffffffffffffffffffffffffffffffffffffff1916145b806104c157506104c0826112c7565b5b9050919050565b6060600080546104d79061241a565b80601f01602080910402602001604051908101604052809291908181526020018280546105039061241a565b80156105505780601f1061052557610100808354040283529160200191610550565b820191906000526020600020905b81548152906001019060200180831161053357829003601f168201915b5050505050905090565b600061056582611331565b6105a4576040517f08c379a000000000000000000000000000000000000000000000000000000000815260040161059b906124be565b60405180910390fd5b6004600083815260200190815260200160002060009054906101000a900473ffffffffffffffffffffffffffffffffffffffff169050919050565b60006105ea82610874565b90508073ffffffffffffffffffffffffffffffffffffffff168373ffffffffffffffffffffffffffffffffffffffff16141561065b576040517f08c379a000000000000000000000000000000000000000000000000000000000815260040161065290612550565b60405180910390fd5b600760009054906101000a900473ffffffffffffffffffffffffffffffffffffffff1673ffffffffffffffffffffffffffffffffffffffff1661069c61139d565b73ffffffffffffffffffffffffffffffffffffffff1614806106f057508073ffffffffffffffffffffffffffffffffffffffff166106d861139d565b73ffffffffffffffffffffffffffffffffffffffff16145b8061070857506107078161070261139d565b610f5a565b5b610747576040517f08c379a000000000000000000000000000000000000000000000000000000000815260040161073e906125e2565b60405180910390fd5b61075183836113a5565b505050565b61076761076161139d565b8261145e565b6107a6576040517f08c379a000000000000000000000000000000000000000000000000000000000815260040161079d90612674565b60405180910390fd5b6107b183838361153c565b505050565b600760009054906101000a900473ffffffffffffffffffffffffffffffffffffffff1673ffffffffffffffffffffffffffffffffffffffff163373ffffffffffffffffffffffffffffffffffffffff1614610846576040517f08c379a000000000000000000000000000000000000000000000000000000000815260040161083d90612706565b60405180910390fd5b6108508282611798565b5050565b61086f83838360405180602001604052806000815250610e3e565b505050565b6000806002600084815260200190815260200160002060009054906101000a900473ffffffffffffffffffffffffffffffffffffffff169050600073ffffffffffffffffffffffffffffffffffffffff168173ffffffffffffffffffffffffffffffffffffffff16141561091d576040517f08c379a000000000000000000000000000000000000000000000000000000000815260040161091490612798565b60405180910390fd5b80915050919050565b60008073ffffffffffffffffffffffffffffffffffffffff168273ffffffffffffffffffffffffffffffffffffffff161415610997576040517f08c379a000000000000000000000000000000000000000000000000000000000815260040161098e9061282a565b60405180910390fd5b600360008373ffffffffffffffffffffffffffffffffffffffff1673ffffffffffffffffffffffffffffffffffffffff168152602001908152602001600020549050919050565b6109e661139d565b73ffffffffffffffffffffffffffffffffffffffff16610a04610a66565b73ffffffffffffffffffffffffffffffffffffffff1614610a5a576040517f08c379a0000000000000000000000000000000000000000000000000000000008152600401610a5190612896565b60405180910390fd5b610a6460006117b6565b565b6000600660009054906101000a900473ffffffffffffffffffffffffffffffffffffffff16905090565b606060018054610a9f9061241a565b80601f0160208091040260200160405190810160405280929190818152602001828054610acb9061241a565b8015610b185780601f10610aed57610100808354040283529160200191610b18565b820191906000526020600020905b815481529060010190602001808311610afb57829003601f168201915b5050505050905090565b610b2a61139d565b73ffffffffffffffffffffffffffffffffffffffff168273ffffffffffffffffffffffffffffffffffffffff161415610b98576040517f08c379a0000000000000000000000000000000000000000000000000000000008152600401610b8f90612902565b60405180910390fd5b8060056000610ba561139d565b73ffffffffffffffffffffffffffffffffffffffff1673ffffffffffffffffffffffffffffffffffffffff16815260200190815260200160002060008473ffffffffffffffffffffffffffffffffffffffff1673ffffffffffffffffffffffffffffffffffffffff16815260200190815260200160002060006101000a81548160ff0219169083151502179055508173ffffffffffffffffffffffffffffffffffffffff16610c5261139d565b73ffffffffffffffffffffffffffffffffffffffff167f17307eab39ab6107e8899845ad3d59bd9653f200f220920489ca2b5937696c3183604051610c979190611edc565b60405180910390a35050565b610cab61139d565b73ffffffffffffffffffffffffffffffffffffffff16610cc9610a66565b73ffffffffffffffffffffffffffffffffffffffff1614610d1f576040517f08c379a0000000000000000000000000000000000000000000000000000000008152600401610d1690612896565b60405180910390fd5b600760149054906101000a900460ff1615610d6f576040517f08c379a0000000000000000000000000000000000000000000000000000000008152600401610d6690612994565b60405180910390fd5b600073ffffffffffffffffffffffffffffffffffffffff168173ffffffffffffffffffffffffffffffffffffffff161415610ddf576040517f08c379a0000000000000000000000000000000000000000000000000000000008152600401610dd690612a26565b60405180910390fd5b6001600760146101000a81548160ff02191690831515021790555080600760006101000a81548173ffffffffffffffffffffffffffffffffffffffff021916908373ffffffffffffffffffffffffffffffffffffffff16021790555050565b610e4f610e4961139d565b8361145e565b610e8e576040517f08c379a0000000000000000000000000000000000000000000000000000000008152600401610e8590612674565b60405180910390fd5b610e9a8484848461187c565b50505050565b6060610eab82611331565b610eea576040517f08c379a0000000000000000000000000000000000000000000000000000000008152600401610ee190612ab8565b60405180910390fd5b6000610ef46118d8565b90506000815111610f145760405180602001604052806000815250610f3f565b80610f1e846118ef565b604051602001610f2f929190612b14565b6040516020818303038152906040525b915050919050565b600760149054906101000a900460ff1681565b6000600560008473ffffffffffffffffffffffffffffffffffffffff1673ffffffffffffffffffffffffffffffffffffffff16815260200190815260200160002060008373ffffffffffffffffffffffffffffffffffffffff1673ffffffffffffffffffffffffffffffffffffffff16815260200190815260200160002060009054906101000a900460ff16905092915050565b600760009054906101000a900473ffffffffffffffffffffffffffffffffffffffff1681565b61101c61139d565b73ffffffffffffffffffffffffffffffffffffffff1661103a610a66565b73ffffffffffffffffffffffffffffffffffffffff1614611090576040517f08c379a000000000000000000000000000000000000000000000000000000000815260040161108790612896565b60405180910390fd5b600073ffffffffffffffffffffffffffffffffffffffff168173ffffffffffffffffffffffffffffffffffffffff161415611100576040517f08c379a00000000000000000000000000000000000000000000000000000000081526004016110f790612baa565b60405180910390fd5b611109816117b6565b50565b61111461139d565b73ffffffffffffffffffffffffffffffffffffffff16611132610a66565b73ffffffffffffffffffffffffffffffffffffffff1614611188576040517f08c379a000000000000000000000000000000000000000000000000000000000815260040161117f90612896565b60405180910390fd5b600760149054906101000a900460ff166111d7576040517f08c379a00000000000000000000000000000000000000000000000000000000081526004016111ce90612c16565b60405180910390fd5b600760009054906101000a900473ffffffffffffffffffffffffffffffffffffffff1673ffffffffffffffffffffffffffffffffffffffff163373ffffffffffffffffffffffffffffffffffffffff161415611268576040517f08c379a000000000000000000000000000000000000000000000000000000000815260040161125f90612ca8565b60405180910390fd5b6000600760146101000a81548160ff0219169083151502179055506000600760006101000a81548173ffffffffffffffffffffffffffffffffffffffff021916908373ffffffffffffffffffffffffffffffffffffffff160217905550565b60007f01ffc9a7000000000000000000000000000000000000000000000000000000007bffffffffffffffffffffffffffffffffffffffffffffffffffffffff1916827bffffffffffffffffffffffffffffffffffffffffffffffffffffffff1916149050919050565b60008073ffffffffffffffffffffffffffffffffffffffff166002600084815260200190815260200160002060009054906101000a900473ffffffffffffffffffffffffffffffffffffffff1673ffffffffffffffffffffffffffffffffffffffff1614159050919050565b600033905090565b816004600083815260200190815260200160002060006101000a81548173ffffffffffffffffffffffffffffffffffffffff021916908373ffffffffffffffffffffffffffffffffffffffff160217905550808273ffffffffffffffffffffffffffffffffffffffff1661141883610874565b73ffffffffffffffffffffffffffffffffffffffff167f8c5be1e5ebec7d5bd14f71427d1e84f3dd0314c0f7b2291e5b200ac8c7c3b92560405160405180910390a45050565b600061146982611331565b6114a8576040517f08c379a000000000000000000000000000000000000000000000000000000000815260040161149f90612d3a565b60405180910390fd5b60006114b383610874565b90508073ffffffffffffffffffffffffffffffffffffffff168473ffffffffffffffffffffffffffffffffffffffff16148061152257508373ffffffffffffffffffffffffffffffffffffffff1661150a8461055a565b73ffffffffffffffffffffffffffffffffffffffff16145b8061153357506115328185610f5a565b5b91505092915050565b8273ffffffffffffffffffffffffffffffffffffffff1661155c82610874565b73ffffffffffffffffffffffffffffffffffffffff16146115b2576040517f08c379a00000000000000000000000000000000000000000000000000000000081526004016115a990612dcc565b60405180910390fd5b600073ffffffffffffffffffffffffffffffffffffffff168273ffffffffffffffffffffffffffffffffffffffff161415611622576040517f08c379a000000000000000000000000000000000000000000000000000000000815260040161161990612e5e565b60405180910390fd5b61162d838383611a50565b6116386000826113a5565b6001600360008573ffffffffffffffffffffffffffffffffffffffff1673ffffffffffffffffffffffffffffffffffffffff16815260200190815260200160002060008282546116889190612ead565b925050819055506001600360008473ffffffffffffffffffffffffffffffffffffffff1673ffffffffffffffffffffffffffffffffffffffff16815260200190815260200160002060008282546116df9190612ee1565b92505081905550816002600083815260200190815260200160002060006101000a81548173ffffffffffffffffffffffffffffffffffffffff021916908373ffffffffffffffffffffffffffffffffffffffff160217905550808273ffffffffffffffffffffffffffffffffffffffff168473ffffffffffffffffffffffffffffffffffffffff167fddf252ad1be2c89b69c2b068fc378daa952ba7f163c4a11628f55a4df523b3ef60405160405180910390a4505050565b6117b2828260405180602001604052806000815250611a55565b5050565b6000600660009054906101000a900473ffffffffffffffffffffffffffffffffffffffff16905081600660006101000a81548173ffffffffffffffffffffffffffffffffffffffff021916908373ffffffffffffffffffffffffffffffffffffffff1602179055508173ffffffffffffffffffffffffffffffffffffffff168173ffffffffffffffffffffffffffffffffffffffff167f8be0079c531659141344cd1fd0a4f28419497f9722a3daafe3b4186f6b6457e060405160405180910390a35050565b61188784848461153c565b61189384848484611ab0565b6118d2576040517f08c379a00000000000000000000000000000000000000000000000000000000081526004016118c990612fa9565b60405180910390fd5b50505050565b606060405180602001604052806000815250905090565b60606000821415611937576040518060400160405280600181526020017f30000000000000000000000000000000000000000000000000000000000000008152509050611a4b565b600082905060005b6000821461196957808061195290612fc9565b915050600a826119629190613041565b915061193f565b60008167ffffffffffffffff811115611985576119846121fd565b5b6040519080825280601f01601f1916602001820160405280156119b75781602001600182028036833780820191505090505b5090505b60008514611a44576001826119d09190612ead565b9150600a856119df9190613072565b60306119eb9190612ee1565b60f81b818381518110611a0157611a006130a3565b5b60200101907effffffffffffffffffffffffffffffffffffffffffffffffffffffffffffff1916908160001a905350600a85611a3d9190613041565b94506119bb565b8093505050505b919050565b505050565b611a5f8383611c47565b611a6c6000848484611ab0565b611aab576040517f08c379a0000000000000000000000000000000000000000000000000000000008152600401611aa290612fa9565b60405180910390fd5b505050565b6000611ad18473ffffffffffffffffffffffffffffffffffffffff16611e15565b15611c3a578373ffffffffffffffffffffffffffffffffffffffff1663150b7a02611afa61139d565b8786866040518563ffffffff1660e01b8152600401611b1c9493929190613127565b602060405180830381600087803b158015611b3657600080fd5b505af1925050508015611b6757506040513d601f19601f82011682018060405250810190611b649190613188565b60015b611bea573d8060008114611b97576040519150601f19603f3d011682016040523d82523d6000602084013e611b9c565b606091505b50600081511415611be2576040517f08c379a0000000000000000000000000000000000000000000000000000000008152600401611bd990612fa9565b60405180910390fd5b805181602001fd5b63150b7a0260e01b7bffffffffffffffffffffffffffffffffffffffffffffffffffffffff1916817bffffffffffffffffffffffffffffffffffffffffffffffffffffffff191614915050611c3f565b600190505b949350505050565b600073ffffffffffffffffffffffffffffffffffffffff168273ffffffffffffffffffffffffffffffffffffffff161415611cb7576040517f08c379a0000000000000000000000000000000000000000000000000000000008152600401611cae90613201565b60405180910390fd5b611cc081611331565b15611d00576040517f08c379a0000000000000000000000000000000000000000000000000000000008152600401611cf79061326d565b60405180910390fd5b611d0c60008383611a50565b6001600360008473ffffffffffffffffffffffffffffffffffffffff1673ffffffffffffffffffffffffffffffffffffffff1681526020019081526020016000206000828254611d5c9190612ee1565b92505081905550816002600083815260200190815260200160002060006101000a81548173ffffffffffffffffffffffffffffffffffffffff021916908373ffffffffffffffffffffffffffffffffffffffff160217905550808273ffffffffffffffffffffffffffffffffffffffff16600073ffffffffffffffffffffffffffffffffffffffff167fddf252ad1be2c89b69c2b068fc378daa952ba7f163c4a11628f55a4df523b3ef60405160405180910390a45050565b600080823b905060008111915050919050565b6000604051905090565b600080fd5b600080fd5b60007fffffffff0000000000000000000000000000000000000000000000000000000082169050919050565b611e7181611e3c565b8114611e7c57600080fd5b50565b600081359050611e8e81611e68565b92915050565b600060208284031215611eaa57611ea9611e32565b5b6000611eb884828501611e7f565b91505092915050565b60008115159050919050565b611ed681611ec1565b82525050565b6000602082019050611ef16000830184611ecd565b92915050565b600081519050919050565b600082825260208201905092915050565b60005b83811015611f31578082015181840152602081019050611f16565b83811115611f40576000848401525b50505050565b6000601f19601f8301169050919050565b6000611f6282611ef7565b611f6c8185611f02565b9350611f7c818560208601611f13565b611f8581611f46565b840191505092915050565b60006020820190508181036000830152611faa8184611f57565b905092915050565b6000819050919050565b611fc581611fb2565b8114611fd057600080fd5b50565b600081359050611fe281611fbc565b92915050565b600060208284031215611ffe57611ffd611e32565b5b600061200c84828501611fd3565b91505092915050565b600073ffffffffffffffffffffffffffffffffffffffff82169050919050565b600061204082612015565b9050919050565b61205081612035565b82525050565b600060208201905061206b6000830184612047565b92915050565b61207a81612035565b811461208557600080fd5b50565b60008135905061209781612071565b92915050565b600080604083850312156120b4576120b3611e32565b5b60006120c285828601612088565b92505060206120d385828601611fd3565b9150509250929050565b6000806000606084860312156120f6576120f5611e32565b5b600061210486828701612088565b935050602061211586828701612088565b925050604061212686828701611fd3565b9150509250925092565b60006020828403121561214657612145611e32565b5b600061215484828501612088565b91505092915050565b61216681611fb2565b82525050565b6000602082019050612181600083018461215d565b92915050565b61219081611ec1565b811461219b57600080fd5b50565b6000813590506121ad81612187565b92915050565b600080604083850312156121ca576121c9611e32565b5b60006121d885828601612088565b92505060206121e98582860161219e565b9150509250929050565b600080fd5b600080fd5b7f4e487b7100000000000000000000000000000000000000000000000000000000600052604160045260246000fd5b61223582611f46565b810181811067ffffffffffffffff82111715612254576122536121fd565b5b80604052505050565b6000612267611e28565b9050612273828261222c565b919050565b600067ffffffffffffffff821115612293576122926121fd565b5b61229c82611f46565b9050602081019050919050565b82818337600083830152505050565b60006122cb6122c684612278565b61225d565b9050828152602081018484840111156122e7576122e66121f8565b5b6122f28482856122a9565b509392505050565b600082601f83011261230f5761230e6121f3565b5b813561231f8482602086016122b8565b91505092915050565b6000806000806080858703121561234257612341611e32565b5b600061235087828801612088565b945050602061236187828801612088565b935050604061237287828801611fd3565b925050606085013567ffffffffffffffff81111561239357612392611e37565b5b61239f878288016122fa565b91505092959194509250565b600080604083850312156123c2576123c1611e32565b5b60006123d085828601612088565b92505060206123e185828601612088565b9150509250929050565b7f4e487b7100000000000000000000000000000000000000000000000000000000600052602260045260246000fd5b6000600282049050600182168061243257607f821691505b60208210811415612446576124456123eb565b5b50919050565b7f4552433732313a20617070726f76656420717565727920666f72206e6f6e657860008201527f697374656e7420746f6b656e0000000000000000000000000000000000000000602082015250565b60006124a8602c83611f02565b91506124b38261244c565b604082019050919050565b600060208201905081810360008301526124d78161249b565b9050919050565b7f4552433732313a20617070726f76616c20746f2063757272656e74206f776e6560008201527f7200000000000000000000000000000000000000000000000000000000000000602082015250565b600061253a602183611f02565b9150612545826124de565b604082019050919050565b600060208201905081810360008301526125698161252d565b9050919050565b7f4552433732313a20617070726f76652063616c6c6572206973206e6f74206f7760008201527f6e6572206e6f7220617070726f76656420666f7220616c6c0000000000000000602082015250565b60006125cc603883611f02565b91506125d782612570565b604082019050919050565b600060208201905081810360008301526125fb816125bf565b9050919050565b7f4552433732313a207472616e736665722063616c6c6572206973206e6f74206f60008201527f776e6572206e6f7220617070726f766564000000000000000000000000000000602082015250565b600061265e603183611f02565b915061266982612602565b604082019050919050565b6000602082019050818103600083015261268d81612651565b9050919050565b7f4f6e6c79207468652065636f6d6d6572636520636f6e74726163742063616e2060008201527f6d696e74206e657720746f6b656e730000000000000000000000000000000000602082015250565b60006126f0602f83611f02565b91506126fb82612694565b604082019050919050565b6000602082019050818103600083015261271f816126e3565b9050919050565b7f4552433732313a206f776e657220717565727920666f72206e6f6e657869737460008201527f656e7420746f6b656e0000000000000000000000000000000000000000000000602082015250565b6000612782602983611f02565b915061278d82612726565b604082019050919050565b600060208201905081810360008301526127b181612775565b9050919050565b7f4552433732313a2062616c616e636520717565727920666f7220746865207a6560008201527f726f206164647265737300000000000000000000000000000000000000000000602082015250565b6000612814602a83611f02565b915061281f826127b8565b604082019050919050565b6000602082019050818103600083015261284381612807565b9050919050565b7f4f776e61626c653a2063616c6c6572206973206e6f7420746865206f776e6572600082015250565b6000612880602083611f02565b915061288b8261284a565b602082019050919050565b600060208201905081810360008301526128af81612873565b9050919050565b7f4552433732313a20617070726f766520746f2063616c6c657200000000000000600082015250565b60006128ec601983611f02565b91506128f7826128b6565b602082019050919050565b6000602082019050818103600083015261291b816128df565b9050919050565b7f5468652065636f6d6d6572636520616464726573732063616e206f6e6c79206260008201527f6520736574206f6e636500000000000000000000000000000000000000000000602082015250565b600061297e602a83611f02565b915061298982612922565b604082019050919050565b600060208201905081810360008301526129ad81612971565b9050919050565b7f5468652065636f6d6d6572636520616464726573732063616e6e6f742062652060008201527f656d707479000000000000000000000000000000000000000000000000000000602082015250565b6000612a10602583611f02565b9150612a1b826129b4565b604082019050919050565b60006020820190508181036000830152612a3f81612a03565b9050919050565b7f4552433732314d657461646174613a2055524920717565727920666f72206e6f60008201527f6e6578697374656e7420746f6b656e0000000000000000000000000000000000602082015250565b6000612aa2602f83611f02565b9150612aad82612a46565b604082019050919050565b60006020820190508181036000830152612ad181612a95565b9050919050565b600081905092915050565b6000612aee82611ef7565b612af88185612ad8565b9350612b08818560208601611f13565b80840191505092915050565b6000612b208285612ae3565b9150612b2c8284612ae3565b91508190509392505050565b7f4f776e61626c653a206e6577206f776e657220697320746865207a65726f206160008201527f6464726573730000000000000000000000000000000000000000000000000000602082015250565b6000612b94602683611f02565b9150612b9f82612b38565b604082019050919050565b60006020820190508181036000830152612bc381612b87565b9050919050565b7f5468652065636f6d6d65726365206d7573742062652073657400000000000000600082015250565b6000612c00601983611f02565b9150612c0b82612bca565b602082019050919050565b60006020820190508181036000830152612c2f81612bf3565b9050919050565b7f4f6e6c79207468652065636f6d6d6572636520616464726573732063616e207260008201527f656d6f766520697473656c660000000000000000000000000000000000000000602082015250565b6000612c92602c83611f02565b9150612c9d82612c36565b604082019050919050565b60006020820190508181036000830152612cc181612c85565b9050919050565b7f4552433732313a206f70657261746f7220717565727920666f72206e6f6e657860008201527f697374656e7420746f6b656e0000000000000000000000000000000000000000602082015250565b6000612d24602c83611f02565b9150612d2f82612cc8565b604082019050919050565b60006020820190508181036000830152612d5381612d17565b9050919050565b7f4552433732313a207472616e73666572206f6620746f6b656e2074686174206960008201527f73206e6f74206f776e0000000000000000000000000000000000000000000000602082015250565b6000612db6602983611f02565b9150612dc182612d5a565b604082019050919050565b60006020820190508181036000830152612de581612da9565b9050919050565b7f4552433732313a207472616e7366657220746f20746865207a65726f2061646460008201527f7265737300000000000000000000000000000000000000000000000000000000602082015250565b6000612e48602483611f02565b9150612e5382612dec565b604082019050919050565b60006020820190508181036000830152612e7781612e3b565b9050919050565b7f4e487b7100000000000000000000000000000000000000000000000000000000600052601160045260246000fd5b6000612eb882611fb2565b9150612ec383611fb2565b925082821015612ed657612ed5612e7e565b5b828203905092915050565b6000612eec82611fb2565b9150612ef783611fb2565b9250827fffffffffffffffffffffffffffffffffffffffffffffffffffffffffffffffff03821115612f2c57612f2b612e7e565b5b828201905092915050565b7f4552433732313a207472616e7366657220746f206e6f6e20455243373231526560008201527f63656976657220696d706c656d656e7465720000000000000000000000000000602082015250565b6000612f93603283611f02565b9150612f9e82612f37565b604082019050919050565b60006020820190508181036000830152612fc281612f86565b9050919050565b6000612fd482611fb2565b91507fffffffffffffffffffffffffffffffffffffffffffffffffffffffffffffffff82141561300757613006612e7e565b5b600182019050919050565b7f4e487b7100000000000000000000000000000000000000000000000000000000600052601260045260246000fd5b600061304c82611fb2565b915061305783611fb2565b92508261306757613066613012565b5b828204905092915050565b600061307d82611fb2565b915061308883611fb2565b92508261309857613097613012565b5b828206905092915050565b7f4e487b7100000000000000000000000000000000000000000000000000000000600052603260045260246000fd5b600081519050919050565b600082825260208201905092915050565b60006130f9826130d2565b61310381856130dd565b9350613113818560208601611f13565b61311c81611f46565b840191505092915050565b600060808201905061313c6000830187612047565b6131496020830186612047565b613156604083018561215d565b818103606083015261316881846130ee565b905095945050505050565b60008151905061318281611e68565b92915050565b60006020828403121561319e5761319d611e32565b5b60006131ac84828501613173565b91505092915050565b7f4552433732313a206d696e7420746f20746865207a65726f2061646472657373600082015250565b60006131eb602083611f02565b91506131f6826131b5565b602082019050919050565b6000602082019050818103600083015261321a816131de565b9050919050565b7f4552433732313a20746f6b656e20616c7265616479206d696e74656400000000600082015250565b6000613257601c83611f02565b915061326282613221565b602082019050919050565b600060208201905081810360008301526132868161324a565b905091905056fea2646970667358221220a8f3f3da354955d2ebafa670bda6870629a65e3788309384e896df4fd5c1058a64736f6c63430008090033",
  "linkReferences": {},
  "deployedLinkReferences": {}
}