{
  "_format": "hh-sol-artifact-1",
  "contractName": "KycContract",
  "sourceName": "contracts/KycContract.sol",
  "abi": [
    {
      "anonymous": false,
      "inputs": [
        {
          "indexed": true,
          "internalType": "address",
          "name": "previousOwner",
          "type": "address"
        },
        {
          "indexed": true,
          "internalType": "address",
          "name": "newOwner",
          "type": "address"
        }
      ],
      "name": "OwnershipTransferred",
      "type": "event"
    },
    {
      "inputs": [
        {
          "internalType": "address",
          "name": "_addr",
          "type": "address"
        }
      ],
      "name": "kycCompleted",
      "outputs": [
        {
          "internalType": "bool",
          "name": "",
          "type": "bool"
        }
      ],
      "stateMutability": "view",
      "type": "function"
    },
    {
      "inputs": [],
      "name": "owner",
      "outputs": [
        {
          "internalType": "address",
          "name": "",
          "type": "address"
        }
      ],
      "stateMutability": "view",
      "type": "function"
    },
    {
      "inputs": [],
      "name": "renounceOwnership",
      "outputs": [],
      "stateMutability": "nonpayable",
      "type": "function"
    },
    {
      "inputs": [
        {
          "internalType": "address[]",
          "name": "_addrs",
          "type": "address[]"
        }
      ],
      "name": "revokeMultipleKyc",
      "outputs": [],
      "stateMutability": "nonpayable",
      "type": "function"
    },
    {
      "inputs": [
        {
          "internalType": "address",
          "name": "_addr",
          "type": "address"
        }
      ],
      "name": "revokeSingleKyc",
      "outputs": [],
      "stateMutability": "nonpayable",
      "type": "function"
    },
    {
      "inputs": [
        {
          "internalType": "address[]",
          "name": "_addrs",
          "type": "address[]"
        }
      ],
      "name": "setMultipleKyc",
      "outputs": [],
      "stateMutability": "nonpayable",
      "type": "function"
    },
    {
      "inputs": [
        {
          "internalType": "address",
          "name": "_addr",
          "type": "address"
        }
      ],
      "name": "setSingleKyc",
      "outputs": [],
      "stateMutability": "nonpayable",
      "type": "function"
    },
    {
      "inputs": [
        {
          "internalType": "address",
          "name": "newOwner",
          "type": "address"
        }
      ],
      "name": "transferOwnership",
      "outputs": [],
      "stateMutability": "nonpayable",
      "type": "function"
    }
  ],
  "bytecode": "0x608060405234801561001057600080fd5b5061002d61002261003260201b60201c565b61003a60201b60201c565b6100fe565b600033905090565b60008060009054906101000a900473ffffffffffffffffffffffffffffffffffffffff169050816000806101000a81548173ffffffffffffffffffffffffffffffffffffffff021916908373ffffffffffffffffffffffffffffffffffffffff1602179055508173ffffffffffffffffffffffffffffffffffffffff168173ffffffffffffffffffffffffffffffffffffffff167f8be0079c531659141344cd1fd0a4f28419497f9722a3daafe3b4186f6b6457e060405160405180910390a35050565b610c048061010d6000396000f3fe608060405234801561001057600080fd5b50600436106100885760003560e01c8063dcdd1fab1161005b578063dcdd1fab146100ed578063df235fe414610109578063e260b87014610139578063f2fde38b1461015557610088565b8063450db9f61461008d578063715018a6146100a957806385ed0751146100b35780638da5cb5b146100cf575b600080fd5b6100a760048036038101906100a291906107df565b610171565b005b6100b1610248565b005b6100cd60048036038101906100c89190610965565b6102d0565b005b6100d7610392565b6040516100e491906109bd565b60405180910390f35b610107600480360381019061010291906107df565b6103bb565b005b610123600480360381019061011e91906107df565b610491565b60405161013091906109f3565b60405180910390f35b610153600480360381019061014e9190610965565b6104e7565b005b61016f600480360381019061016a91906107df565b6105a9565b005b6101796106a1565b73ffffffffffffffffffffffffffffffffffffffff16610197610392565b73ffffffffffffffffffffffffffffffffffffffff16146101ed576040517f08c379a00000000000000000000000000000000000000000000000000000000081526004016101e490610a6b565b60405180910390fd5b6000600160008373ffffffffffffffffffffffffffffffffffffffff1673ffffffffffffffffffffffffffffffffffffffff16815260200190815260200160002060006101000a81548160ff02191690831515021790555050565b6102506106a1565b73ffffffffffffffffffffffffffffffffffffffff1661026e610392565b73ffffffffffffffffffffffffffffffffffffffff16146102c4576040517f08c379a00000000000000000000000000000000000000000000000000000000081526004016102bb90610a6b565b60405180910390fd5b6102ce60006106a9565b565b6102d86106a1565b73ffffffffffffffffffffffffffffffffffffffff166102f6610392565b73ffffffffffffffffffffffffffffffffffffffff161461034c576040517f08c379a000000000000000000000000000000000000000000000000000000000815260040161034390610a6b565b60405180910390fd5b60005b815181101561038e5761037b82828151811061036e5761036d610a8b565b5b60200260200101516103bb565b808061038690610af3565b91505061034f565b5050565b60008060009054906101000a900473ffffffffffffffffffffffffffffffffffffffff16905090565b6103c36106a1565b73ffffffffffffffffffffffffffffffffffffffff166103e1610392565b73ffffffffffffffffffffffffffffffffffffffff1614610437576040517f08c379a000000000000000000000000000000000000000000000000000000000815260040161042e90610a6b565b60405180910390fd5b60018060008373ffffffffffffffffffffffffffffffffffffffff1673ffffffffffffffffffffffffffffffffffffffff16815260200190815260200160002060006101000a81548160ff02191690831515021790555050565b6000600160008373ffffffffffffffffffffffffffffffffffffffff1673ffffffffffffffffffffffffffffffffffffffff16815260200190815260200160002060009054906101000a900460ff169050919050565b6104ef6106a1565b73ffffffffffffffffffffffffffffffffffffffff1661050d610392565b73ffffffffffffffffffffffffffffffffffffffff1614610563576040517f08c379a000000000000000000000000000000000000000000000000000000000815260040161055a90610a6b565b60405180910390fd5b60005b81518110156105a55761059282828151811061058557610584610a8b565b5b6020026020010151610171565b808061059d90610af3565b915050610566565b5050565b6105b16106a1565b73ffffffffffffffffffffffffffffffffffffffff166105cf610392565b73ffffffffffffffffffffffffffffffffffffffff1614610625576040517f08c379a000000000000000000000000000000000000000000000000000000000815260040161061c90610a6b565b60405180910390fd5b600073ffffffffffffffffffffffffffffffffffffffff168173ffffffffffffffffffffffffffffffffffffffff161415610695576040517f08c379a000000000000000000000000000000000000000000000000000000000815260040161068c90610bae565b60405180910390fd5b61069e816106a9565b50565b600033905090565b60008060009054906101000a900473ffffffffffffffffffffffffffffffffffffffff169050816000806101000a81548173ffffffffffffffffffffffffffffffffffffffff021916908373ffffffffffffffffffffffffffffffffffffffff1602179055508173ffffffffffffffffffffffffffffffffffffffff168173ffffffffffffffffffffffffffffffffffffffff167f8be0079c531659141344cd1fd0a4f28419497f9722a3daafe3b4186f6b6457e060405160405180910390a35050565b6000604051905090565b600080fd5b600080fd5b600073ffffffffffffffffffffffffffffffffffffffff82169050919050565b60006107ac82610781565b9050919050565b6107bc816107a1565b81146107c757600080fd5b50565b6000813590506107d9816107b3565b92915050565b6000602082840312156107f5576107f4610777565b5b6000610803848285016107ca565b91505092915050565b600080fd5b6000601f19601f8301169050919050565b7f4e487b7100000000000000000000000000000000000000000000000000000000600052604160045260246000fd5b61085a82610811565b810181811067ffffffffffffffff8211171561087957610878610822565b5b80604052505050565b600061088c61076d565b90506108988282610851565b919050565b600067ffffffffffffffff8211156108b8576108b7610822565b5b602082029050602081019050919050565b600080fd5b60006108e16108dc8461089d565b610882565b90508083825260208201905060208402830185811115610904576109036108c9565b5b835b8181101561092d578061091988826107ca565b845260208401935050602081019050610906565b5050509392505050565b600082601f83011261094c5761094b61080c565b5b813561095c8482602086016108ce565b91505092915050565b60006020828403121561097b5761097a610777565b5b600082013567ffffffffffffffff8111156109995761099861077c565b5b6109a584828501610937565b91505092915050565b6109b7816107a1565b82525050565b60006020820190506109d260008301846109ae565b92915050565b60008115159050919050565b6109ed816109d8565b82525050565b6000602082019050610a0860008301846109e4565b92915050565b600082825260208201905092915050565b7f4f776e61626c653a2063616c6c6572206973206e6f7420746865206f776e6572600082015250565b6000610a55602083610a0e565b9150610a6082610a1f565b602082019050919050565b60006020820190508181036000830152610a8481610a48565b9050919050565b7f4e487b7100000000000000000000000000000000000000000000000000000000600052603260045260246000fd5b7f4e487b7100000000000000000000000000000000000000000000000000000000600052601160045260246000fd5b6000819050919050565b6000610afe82610ae9565b91507fffffffffffffffffffffffffffffffffffffffffffffffffffffffffffffffff821415610b3157610b30610aba565b5b600182019050919050565b7f4f776e61626c653a206e6577206f776e657220697320746865207a65726f206160008201527f6464726573730000000000000000000000000000000000000000000000000000602082015250565b6000610b98602683610a0e565b9150610ba382610b3c565b604082019050919050565b60006020820190508181036000830152610bc781610b8b565b905091905056fea2646970667358221220dd824060ea44a5eaaa767fdb5013c478ef8980cc41dea481e873ef2e13b1be0b64736f6c63430008090033",
  "linkReferences": {},
  "deployedLinkReferences": {}
}