{
  "_format": "hh-sol-artifact-1",
  "contractName": "FlexiCoin",
  "sourceName": "contracts/FlexiCoin.sol",
  "abi": [
    {
      "inputs": [],
      "stateMutability": "nonpayable",
      "type": "constructor"
    },
    {
      "anonymous": false,
      "inputs": [
        {
          "indexed": true,
          "internalType": "address",
          "name": "owner",
          "type": "address"
        },
        {
          "indexed": true,
          "internalType": "address",
          "name": "spender",
          "type": "address"
        },
        {
          "indexed": false,
          "internalType": "uint256",
          "name": "value",
          "type": "uint256"
        }
      ],
      "name": "Approval",
      "type": "event"
    },
    {
      "anonymous": false,
      "inputs": [
        {
          "indexed": true,
          "internalType": "address",
          "name": "previousOwner",
          "type": "address"
        },
        {
          "indexed": true,
          "internalType": "address",
          "name": "newOwner",
          "type": "address"
        }
      ],
      "name": "OwnershipTransferred",
      "type": "event"
    },
    {
      "anonymous": false,
      "inputs": [
        {
          "indexed": false,
          "internalType": "address",
          "name": "account",
          "type": "address"
        }
      ],
      "name": "Paused",
      "type": "event"
    },
    {
      "anonymous": false,
      "inputs": [
        {
          "indexed": true,
          "internalType": "bytes32",
          "name": "role",
          "type": "bytes32"
        },
        {
          "indexed": true,
          "internalType": "bytes32",
          "name": "previousAdminRole",
          "type": "bytes32"
        },
        {
          "indexed": true,
          "internalType": "bytes32",
          "name": "newAdminRole",
          "type": "bytes32"
        }
      ],
      "name": "RoleAdminChanged",
      "type": "event"
    },
    {
      "anonymous": false,
      "inputs": [
        {
          "indexed": true,
          "internalType": "bytes32",
          "name": "role",
          "type": "bytes32"
        },
        {
          "indexed": true,
          "internalType": "address",
          "name": "account",
          "type": "address"
        },
        {
          "indexed": true,
          "internalType": "address",
          "name": "sender",
          "type": "address"
        }
      ],
      "name": "RoleGranted",
      "type": "event"
    },
    {
      "anonymous": false,
      "inputs": [
        {
          "indexed": true,
          "internalType": "bytes32",
          "name": "role",
          "type": "bytes32"
        },
        {
          "indexed": true,
          "internalType": "address",
          "name": "account",
          "type": "address"
        },
        {
          "indexed": true,
          "internalType": "address",
          "name": "sender",
          "type": "address"
        }
      ],
      "name": "RoleRevoked",
      "type": "event"
    },
    {
      "anonymous": false,
      "inputs": [
        {
          "indexed": true,
          "internalType": "address",
          "name": "from",
          "type": "address"
        },
        {
          "indexed": true,
          "internalType": "address",
          "name": "to",
          "type": "address"
        },
        {
          "indexed": false,
          "internalType": "uint256",
          "name": "value",
          "type": "uint256"
        }
      ],
      "name": "Transfer",
      "type": "event"
    },
    {
      "anonymous": false,
      "inputs": [
        {
          "indexed": false,
          "internalType": "address",
          "name": "account",
          "type": "address"
        }
      ],
      "name": "Unpaused",
      "type": "event"
    },
    {
      "inputs": [],
      "name": "AMOUNTMINT",
      "outputs": [
        {
          "internalType": "uint256",
          "name": "",
          "type": "uint256"
        }
      ],
      "stateMutability": "view",
      "type": "function"
    },
    {
      "inputs": [],
      "name": "DEFAULT_ADMIN_ROLE",
      "outputs": [
        {
          "internalType": "bytes32",
          "name": "",
          "type": "bytes32"
        }
      ],
      "stateMutability": "view",
      "type": "function"
    },
    {
      "inputs": [],
      "name": "ICO_MINT",
      "outputs": [
        {
          "internalType": "uint256",
          "name": "",
          "type": "uint256"
        }
      ],
      "stateMutability": "view",
      "type": "function"
    },
    {
      "inputs": [],
      "name": "MINTER_ROLE",
      "outputs": [
        {
          "internalType": "bytes32",
          "name": "",
          "type": "bytes32"
        }
      ],
      "stateMutability": "view",
      "type": "function"
    },
    {
      "inputs": [],
      "name": "PRICE",
      "outputs": [
        {
          "internalType": "uint256",
          "name": "",
          "type": "uint256"
        }
      ],
      "stateMutability": "view",
      "type": "function"
    },
    {
      "inputs": [],
      "name": "REWARD_LIMIT",
      "outputs": [
        {
          "internalType": "uint256",
          "name": "",
          "type": "uint256"
        }
      ],
      "stateMutability": "view",
      "type": "function"
    },
    {
      "inputs": [
        {
          "internalType": "address",
          "name": "owner",
          "type": "address"
        },
        {
          "internalType": "address",
          "name": "spender",
          "type": "address"
        }
      ],
      "name": "allowance",
      "outputs": [
        {
          "internalType": "uint256",
          "name": "",
          "type": "uint256"
        }
      ],
      "stateMutability": "view",
      "type": "function"
    },
    {
      "inputs": [],
      "name": "amount_reward",
      "outputs": [
        {
          "internalType": "uint256",
          "name": "",
          "type": "uint256"
        }
      ],
      "stateMutability": "view",
      "type": "function"
    },
    {
      "inputs": [
        {
          "internalType": "address",
          "name": "spender",
          "type": "address"
        },
        {
          "internalType": "uint256",
          "name": "amount",
          "type": "uint256"
        }
      ],
      "name": "approve",
      "outputs": [
        {
          "internalType": "bool",
          "name": "",
          "type": "bool"
        }
      ],
      "stateMutability": "nonpayable",
      "type": "function"
    },
    {
      "inputs": [
        {
          "internalType": "address",
          "name": "account",
          "type": "address"
        }
      ],
      "name": "balanceOf",
      "outputs": [
        {
          "internalType": "uint256",
          "name": "",
          "type": "uint256"
        }
      ],
      "stateMutability": "view",
      "type": "function"
    },
    {
      "inputs": [
        {
          "internalType": "address",
          "name": "account",
          "type": "address"
        },
        {
          "internalType": "uint256",
          "name": "amount",
          "type": "uint256"
        }
      ],
      "name": "burn",
      "outputs": [],
      "stateMutability": "nonpayable",
      "type": "function"
    },
    {
      "inputs": [],
      "name": "decimals",
      "outputs": [
        {
          "internalType": "uint8",
          "name": "",
          "type": "uint8"
        }
      ],
      "stateMutability": "view",
      "type": "function"
    },
    {
      "inputs": [
        {
          "internalType": "address",
          "name": "spender",
          "type": "address"
        },
        {
          "internalType": "uint256",
          "name": "subtractedValue",
          "type": "uint256"
        }
      ],
      "name": "decreaseAllowance",
      "outputs": [
        {
          "internalType": "bool",
          "name": "",
          "type": "bool"
        }
      ],
      "stateMutability": "nonpayable",
      "type": "function"
    },
    {
      "inputs": [],
      "name": "getAmount_sell",
      "outputs": [
        {
          "internalType": "uint256",
          "name": "",
          "type": "uint256"
        }
      ],
      "stateMutability": "view",
      "type": "function"
    },
    {
      "inputs": [
        {
          "internalType": "bytes32",
          "name": "role",
          "type": "bytes32"
        }
      ],
      "name": "getRoleAdmin",
      "outputs": [
        {
          "internalType": "bytes32",
          "name": "",
          "type": "bytes32"
        }
      ],
      "stateMutability": "view",
      "type": "function"
    },
    {
      "inputs": [
        {
          "internalType": "bytes32",
          "name": "role",
          "type": "bytes32"
        },
        {
          "internalType": "address",
          "name": "account",
          "type": "address"
        }
      ],
      "name": "grantRole",
      "outputs": [],
      "stateMutability": "nonpayable",
      "type": "function"
    },
    {
      "inputs": [
        {
          "internalType": "bytes32",
          "name": "role",
          "type": "bytes32"
        },
        {
          "internalType": "address",
          "name": "account",
          "type": "address"
        }
      ],
      "name": "hasRole",
      "outputs": [
        {
          "internalType": "bool",
          "name": "",
          "type": "bool"
        }
      ],
      "stateMutability": "view",
      "type": "function"
    },
    {
      "inputs": [
        {
          "internalType": "address",
          "name": "spender",
          "type": "address"
        },
        {
          "internalType": "uint256",
          "name": "addedValue",
          "type": "uint256"
        }
      ],
      "name": "increaseAllowance",
      "outputs": [
        {
          "internalType": "bool",
          "name": "",
          "type": "bool"
        }
      ],
      "stateMutability": "nonpayable",
      "type": "function"
    },
    {
      "inputs": [
        {
          "internalType": "address",
          "name": "_lock1",
          "type": "address"
        },
        {
          "internalType": "address",
          "name": "_lock2",
          "type": "address"
        },
        {
          "internalType": "address",
          "name": "_lock3",
          "type": "address"
        },
        {
          "internalType": "address",
          "name": "_lock4",
          "type": "address"
        }
      ],
      "name": "lock",
      "outputs": [],
      "stateMutability": "nonpayable",
      "type": "function"
    },
    {
      "inputs": [
        {
          "internalType": "address",
          "name": "_account",
          "type": "address"
        },
        {
          "internalType": "uint256",
          "name": "_amount",
          "type": "uint256"
        }
      ],
      "name": "mint",
      "outputs": [
        {
          "internalType": "bool",
          "name": "",
          "type": "bool"
        }
      ],
      "stateMutability": "nonpayable",
      "type": "function"
    },
    {
      "inputs": [],
      "name": "name",
      "outputs": [
        {
          "internalType": "string",
          "name": "",
          "type": "string"
        }
      ],
      "stateMutability": "view",
      "type": "function"
    },
    {
      "inputs": [],
      "name": "owner",
      "outputs": [
        {
          "internalType": "address",
          "name": "",
          "type": "address"
        }
      ],
      "stateMutability": "view",
      "type": "function"
    },
    {
      "inputs": [],
      "name": "pause",
      "outputs": [],
      "stateMutability": "nonpayable",
      "type": "function"
    },
    {
      "inputs": [],
      "name": "paused",
      "outputs": [
        {
          "internalType": "bool",
          "name": "",
          "type": "bool"
        }
      ],
      "stateMutability": "view",
      "type": "function"
    },
    {
      "inputs": [],
      "name": "renounceOwnership",
      "outputs": [],
      "stateMutability": "nonpayable",
      "type": "function"
    },
    {
      "inputs": [
        {
          "internalType": "bytes32",
          "name": "role",
          "type": "bytes32"
        },
        {
          "internalType": "address",
          "name": "account",
          "type": "address"
        }
      ],
      "name": "renounceRole",
      "outputs": [],
      "stateMutability": "nonpayable",
      "type": "function"
    },
    {
      "inputs": [
        {
          "internalType": "bytes32",
          "name": "role",
          "type": "bytes32"
        },
        {
          "internalType": "address",
          "name": "account",
          "type": "address"
        }
      ],
      "name": "revokeRole",
      "outputs": [],
      "stateMutability": "nonpayable",
      "type": "function"
    },
    {
      "inputs": [
        {
          "internalType": "uint256",
          "name": "_amount",
          "type": "uint256"
        },
        {
          "internalType": "address",
          "name": "_add",
          "type": "address"
        }
      ],
      "name": "reward",
      "outputs": [],
      "stateMutability": "nonpayable",
      "type": "function"
    },
    {
      "inputs": [
        {
          "internalType": "address",
          "name": "_account",
          "type": "address"
        }
      ],
      "name": "setMinterRole",
      "outputs": [],
      "stateMutability": "nonpayable",
      "type": "function"
    },
    {
      "inputs": [
        {
          "internalType": "bytes4",
          "name": "interfaceId",
          "type": "bytes4"
        }
      ],
      "name": "supportsInterface",
      "outputs": [
        {
          "internalType": "bool",
          "name": "",
          "type": "bool"
        }
      ],
      "stateMutability": "view",
      "type": "function"
    },
    {
      "inputs": [],
      "name": "symbol",
      "outputs": [
        {
          "internalType": "string",
          "name": "",
          "type": "string"
        }
      ],
      "stateMutability": "view",
      "type": "function"
    },
    {
      "inputs": [],
      "name": "totalSupply",
      "outputs": [
        {
          "internalType": "uint256",
          "name": "",
          "type": "uint256"
        }
      ],
      "stateMutability": "view",
      "type": "function"
    },
    {
      "inputs": [
        {
          "internalType": "address",
          "name": "recipient",
          "type": "address"
        },
        {
          "internalType": "uint256",
          "name": "amount",
          "type": "uint256"
        }
      ],
      "name": "transfer",
      "outputs": [
        {
          "internalType": "bool",
          "name": "",
          "type": "bool"
        }
      ],
      "stateMutability": "nonpayable",
      "type": "function"
    },
    {
      "inputs": [
        {
          "internalType": "address",
          "name": "sender",
          "type": "address"
        },
        {
          "internalType": "address",
          "name": "recipient",
          "type": "address"
        },
        {
          "internalType": "uint256",
          "name": "amount",
          "type": "uint256"
        }
      ],
      "name": "transferFrom",
      "outputs": [
        {
          "internalType": "bool",
          "name": "",
          "type": "bool"
        }
      ],
      "stateMutability": "nonpayable",
      "type": "function"
    },
    {
      "inputs": [
        {
          "internalType": "address",
          "name": "newOwner",
          "type": "address"
        }
      ],
      "name": "transferOwnership",
      "outputs": [],
      "stateMutability": "nonpayable",
      "type": "function"
    },
    {
      "inputs": [],
      "name": "unpause",
      "outputs": [],
      "stateMutability": "nonpayable",
      "type": "function"
    }
  ],
  "bytecode": "0x6080604052600060075560006008556611c37937e080006009553480156200002657600080fd5b506040518060400160405280600981526020017f466c657869436f696e00000000000000000000000000000000000000000000008152506040518060400160405280600381526020017f464c4300000000000000000000000000000000000000000000000000000000008152508160039080519060200190620000ab92919062000752565b508060049080519060200190620000c492919062000752565b5050506000600560006101000a81548160ff02191690831515021790555062000102620000f66200014a60201b60201c565b6200015260201b60201c565b6200011f336a0d3c21bcecceda100000006200021860201b60201c565b620001346000801b336200039160201b60201c565b62000144620003a760201b60201c565b62000b8c565b600033905090565b6000600560019054906101000a900473ffffffffffffffffffffffffffffffffffffffff16905081600560016101000a81548173ffffffffffffffffffffffffffffffffffffffff021916908373ffffffffffffffffffffffffffffffffffffffff1602179055508173ffffffffffffffffffffffffffffffffffffffff168173ffffffffffffffffffffffffffffffffffffffff167f8be0079c531659141344cd1fd0a4f28419497f9722a3daafe3b4186f6b6457e060405160405180910390a35050565b600073ffffffffffffffffffffffffffffffffffffffff168273ffffffffffffffffffffffffffffffffffffffff1614156200028b576040517f08c379a0000000000000000000000000000000000000000000000000000000008152600401620002829062000863565b60405180910390fd5b6200029f600083836200044860201b60201c565b8060026000828254620002b39190620008be565b92505081905550806000808473ffffffffffffffffffffffffffffffffffffffff1673ffffffffffffffffffffffffffffffffffffffff16815260200190815260200160002060008282546200030a9190620008be565b925050819055508173ffffffffffffffffffffffffffffffffffffffff16600073ffffffffffffffffffffffffffffffffffffffff167fddf252ad1be2c89b69c2b068fc378daa952ba7f163c4a11628f55a4df523b3ef836040516200037191906200092c565b60405180910390a36200038d60008383620004f260201b60201c565b5050565b620003a38282620004f760201b60201c565b5050565b620003b76200014a60201b60201c565b73ffffffffffffffffffffffffffffffffffffffff16620003dd620005e960201b60201c565b73ffffffffffffffffffffffffffffffffffffffff161462000436576040517f08c379a00000000000000000000000000000000000000000000000000000000081526004016200042d9062000999565b60405180910390fd5b620004466200061360201b60201c565b565b62000460838383620006cb60201b6200142b1760201c565b62000470620006d060201b60201c565b1580620004ab5750620004aa7f9f2df0fed2c77648de5860a4cc508cd0818c85b8b8a1ab4ceeef8d981c8956a633620006e760201b60201c565b5b620004ed576040517f08c379a0000000000000000000000000000000000000000000000000000000008152600401620004e49062000a31565b60405180910390fd5b505050565b505050565b620005098282620006e760201b60201c565b620005e55760016006600084815260200190815260200160002060000160008373ffffffffffffffffffffffffffffffffffffffff1673ffffffffffffffffffffffffffffffffffffffff16815260200190815260200160002060006101000a81548160ff0219169083151502179055506200058a6200014a60201b60201c565b73ffffffffffffffffffffffffffffffffffffffff168173ffffffffffffffffffffffffffffffffffffffff16837f2f8788117e7eff1d82e926ec794901d17c78024a50270940304540a733656f0d60405160405180910390a45b5050565b6000600560019054906101000a900473ffffffffffffffffffffffffffffffffffffffff16905090565b62000623620006d060201b60201c565b1562000666576040517f08c379a00000000000000000000000000000000000000000000000000000000081526004016200065d9062000aa3565b60405180910390fd5b6001600560006101000a81548160ff0219169083151502179055507f62e78cea01bee320cd4e420270b5ea74000d11b0c9f74754ebdbfc544b05a258620006b26200014a60201b60201c565b604051620006c1919062000b0a565b60405180910390a1565b505050565b6000600560009054906101000a900460ff16905090565b60006006600084815260200190815260200160002060000160008373ffffffffffffffffffffffffffffffffffffffff1673ffffffffffffffffffffffffffffffffffffffff16815260200190815260200160002060009054906101000a900460ff16905092915050565b828054620007609062000b56565b90600052602060002090601f016020900481019282620007845760008555620007d0565b82601f106200079f57805160ff1916838001178555620007d0565b82800160010185558215620007d0579182015b82811115620007cf578251825591602001919060010190620007b2565b5b509050620007df9190620007e3565b5090565b5b80821115620007fe576000816000905550600101620007e4565b5090565b600082825260208201905092915050565b7f45524332303a206d696e7420746f20746865207a65726f206164647265737300600082015250565b60006200084b601f8362000802565b9150620008588262000813565b602082019050919050565b600060208201905081810360008301526200087e816200083c565b9050919050565b6000819050919050565b7f4e487b7100000000000000000000000000000000000000000000000000000000600052601160045260246000fd5b6000620008cb8262000885565b9150620008d88362000885565b9250827fffffffffffffffffffffffffffffffffffffffffffffffffffffffffffffffff0382111562000910576200090f6200088f565b5b828201905092915050565b620009268162000885565b82525050565b60006020820190506200094360008301846200091b565b92915050565b7f4f776e61626c653a2063616c6c6572206973206e6f7420746865206f776e6572600082015250565b60006200098160208362000802565b91506200098e8262000949565b602082019050919050565b60006020820190508181036000830152620009b48162000972565b9050919050565b7f45524332305061757361626c653a20746f6b656e207472616e7366657220776860008201527f696c652070617573656400000000000000000000000000000000000000000000602082015250565b600062000a19602a8362000802565b915062000a2682620009bb565b604082019050919050565b6000602082019050818103600083015262000a4c8162000a0a565b9050919050565b7f5061757361626c653a2070617573656400000000000000000000000000000000600082015250565b600062000a8b60108362000802565b915062000a988262000a53565b602082019050919050565b6000602082019050818103600083015262000abe8162000a7c565b9050919050565b600073ffffffffffffffffffffffffffffffffffffffff82169050919050565b600062000af28262000ac5565b9050919050565b62000b048162000ae5565b82525050565b600060208201905062000b21600083018462000af9565b92915050565b7f4e487b7100000000000000000000000000000000000000000000000000000000600052602260045260246000fd5b6000600282049050600182168062000b6f57607f821691505b6020821081141562000b865762000b8562000b27565b5b50919050565b6135e08062000b9c6000396000f3fe608060405234801561001057600080fd5b506004361061021c5760003560e01c806378f4d64511610125578063a457c2d7116100ad578063d53913931161007c578063d53913931461062f578063d547741f1461064d578063da2c4a3414610669578063dd62ed3e14610687578063f2fde38b146106b75761021c565b8063a457c2d714610595578063a9059cbb146105c5578063bb52a3e3146105f5578063c2ac7d58146106115761021c565b806391d14854116100f457806391d14854146104f1578063945d12291461052157806395d89b411461053d5780639dc29fac1461055b578063a217fddf146105775761021c565b806378f4d6451461048d5780638456cb59146104ab5780638d859f3e146104b55780638da5cb5b146104d35761021c565b806339509351116101a85780635c975abb116101775780635c975abb146103fb57806370a0823114610419578063715018a61461044957806371684d441461045357806371bb61f3146104715761021c565b806339509351146103735780633f4ba83a146103a357806340c10f19146103ad5780635846b96a146103dd5761021c565b806323b872dd116101ef57806323b872dd146102bd578063248a9ca3146102ed5780632f2ff15d1461031d578063313ce5671461033957806336568abe146103575761021c565b806301ffc9a71461022157806306fdde0314610251578063095ea7b31461026f57806318160ddd1461029f575b600080fd5b61023b600480360381019061023691906123b7565b6106d3565b60405161024891906123ff565b60405180910390f35b61025961074d565b60405161026691906124b3565b60405180910390f35b61028960048036038101906102849190612569565b6107df565b60405161029691906123ff565b60405180910390f35b6102a76107fd565b6040516102b491906125b8565b60405180910390f35b6102d760048036038101906102d291906125d3565b610807565b6040516102e491906123ff565b60405180910390f35b6103076004803603810190610302919061265c565b6108ff565b6040516103149190612698565b60405180910390f35b610337600480360381019061033291906126b3565b61091f565b005b610341610948565b60405161034e919061270f565b60405180910390f35b610371600480360381019061036c91906126b3565b610951565b005b61038d60048036038101906103889190612569565b6109d4565b60405161039a91906123ff565b60405180910390f35b6103ab610a80565b005b6103c760048036038101906103c29190612569565b610b06565b6040516103d491906123ff565b60405180910390f35b6103e5610bf9565b6040516103f291906125b8565b60405180910390f35b610403610c05565b60405161041091906123ff565b60405180910390f35b610433600480360381019061042e919061272a565b610c1c565b60405161044091906125b8565b60405180910390f35b610451610c64565b005b61045b610cec565b60405161046891906125b8565b60405180910390f35b61048b60048036038101906104869190612757565b610cfb565b005b610495610df0565b6040516104a291906125b8565b60405180910390f35b6104b3610df6565b005b6104bd610e7c565b6040516104ca91906125b8565b60405180910390f35b6104db610e82565b6040516104e891906127a6565b60405180910390f35b61050b600480360381019061050691906126b3565b610eac565b60405161051891906123ff565b60405180910390f35b61053b6004803603810190610536919061272a565b610f17565b005b610545610fc0565b60405161055291906124b3565b60405180910390f35b61057560048036038101906105709190612569565b611052565b005b61057f611060565b60405161058c9190612698565b60405180910390f35b6105af60048036038101906105aa9190612569565b611067565b6040516105bc91906123ff565b60405180910390f35b6105df60048036038101906105da9190612569565b611152565b6040516105ec91906123ff565b60405180910390f35b61060f600480360381019061060a91906127c1565b611170565b005b610619611246565b60405161062691906125b8565b60405180910390f35b610637611255565b6040516106449190612698565b60405180910390f35b610667600480360381019061066291906126b3565b611279565b005b6106716112a2565b60405161067e91906125b8565b60405180910390f35b6106a1600480360381019061069c9190612828565b6112ac565b6040516106ae91906125b8565b60405180910390f35b6106d160048036038101906106cc919061272a565b611333565b005b60007f7965db0b000000000000000000000000000000000000000000000000000000007bffffffffffffffffffffffffffffffffffffffffffffffffffffffff1916827bffffffffffffffffffffffffffffffffffffffffffffffffffffffff19161480610746575061074582611430565b5b9050919050565b60606003805461075c90612897565b80601f016020809104026020016040519081016040528092919081815260200182805461078890612897565b80156107d55780601f106107aa576101008083540402835291602001916107d5565b820191906000526020600020905b8154815290600101906020018083116107b857829003601f168201915b5050505050905090565b60006107f36107ec61149a565b84846114a2565b6001905092915050565b6000600254905090565b600061081484848461166d565b6000600160008673ffffffffffffffffffffffffffffffffffffffff1673ffffffffffffffffffffffffffffffffffffffff168152602001908152602001600020600061085f61149a565b73ffffffffffffffffffffffffffffffffffffffff1673ffffffffffffffffffffffffffffffffffffffff168152602001908152602001600020549050828110156108df576040517f08c379a00000000000000000000000000000000000000000000000000000000081526004016108d69061293b565b60405180910390fd5b6108f3856108eb61149a565b8584036114a2565b60019150509392505050565b600060066000838152602001908152602001600020600101549050919050565b610928826108ff565b6109398161093461149a565b6118ee565b610943838361198b565b505050565b60006012905090565b61095961149a565b73ffffffffffffffffffffffffffffffffffffffff168173ffffffffffffffffffffffffffffffffffffffff16146109c6576040517f08c379a00000000000000000000000000000000000000000000000000000000081526004016109bd906129cd565b60405180910390fd5b6109d08282611a6c565b5050565b6000610a766109e161149a565b8484600160006109ef61149a565b73ffffffffffffffffffffffffffffffffffffffff1673ffffffffffffffffffffffffffffffffffffffff16815260200190815260200160002060008873ffffffffffffffffffffffffffffffffffffffff1673ffffffffffffffffffffffffffffffffffffffff16815260200190815260200160002054610a719190612a1c565b6114a2565b6001905092915050565b610a8861149a565b73ffffffffffffffffffffffffffffffffffffffff16610aa6610e82565b73ffffffffffffffffffffffffffffffffffffffff1614610afc576040517f08c379a0000000000000000000000000000000000000000000000000000000008152600401610af390612abe565b60405180910390fd5b610b04611b4e565b565b60006a4a723dc6b40b8a9a00000082600854610b229190612a1c565b1115610b63576040517f08c379a0000000000000000000000000000000000000000000000000000000008152600401610b5a90612b2a565b60405180910390fd5b610b8d7f9f2df0fed2c77648de5860a4cc508cd0818c85b8b8a1ab4ceeef8d981c8956a633610eac565b610bcc576040517f08c379a0000000000000000000000000000000000000000000000000000000008152600401610bc390612b96565b60405180910390fd5b610bd68383611bf0565b8160086000828254610be89190612a1c565b925050819055506001905092915050565b678ac7230489e8000081565b6000600560009054906101000a900460ff16905090565b60008060008373ffffffffffffffffffffffffffffffffffffffff1673ffffffffffffffffffffffffffffffffffffffff168152602001908152602001600020549050919050565b610c6c61149a565b73ffffffffffffffffffffffffffffffffffffffff16610c8a610e82565b73ffffffffffffffffffffffffffffffffffffffff1614610ce0576040517f08c379a0000000000000000000000000000000000000000000000000000000008152600401610cd790612abe565b60405180910390fd5b610cea6000611d50565b565b6a4a723dc6b40b8a9a00000081565b610d0361149a565b73ffffffffffffffffffffffffffffffffffffffff16610d21610e82565b73ffffffffffffffffffffffffffffffffffffffff1614610d77576040517f08c379a0000000000000000000000000000000000000000000000000000000008152600401610d6e90612abe565b60405180910390fd5b678ac7230489e80000670de0b6b3a764000083610d949190612bb6565b600754610da19190612a1c565b1115610de2576040517f08c379a0000000000000000000000000000000000000000000000000000000008152600401610dd990612c5c565b60405180910390fd5b610dec8183611bf0565b5050565b60075481565b610dfe61149a565b73ffffffffffffffffffffffffffffffffffffffff16610e1c610e82565b73ffffffffffffffffffffffffffffffffffffffff1614610e72576040517f08c379a0000000000000000000000000000000000000000000000000000000008152600401610e6990612abe565b60405180910390fd5b610e7a611e16565b565b60095481565b6000600560019054906101000a900473ffffffffffffffffffffffffffffffffffffffff16905090565b60006006600084815260200190815260200160002060000160008373ffffffffffffffffffffffffffffffffffffffff1673ffffffffffffffffffffffffffffffffffffffff16815260200190815260200160002060009054906101000a900460ff16905092915050565b610f1f61149a565b73ffffffffffffffffffffffffffffffffffffffff16610f3d610e82565b73ffffffffffffffffffffffffffffffffffffffff1614610f93576040517f08c379a0000000000000000000000000000000000000000000000000000000008152600401610f8a90612abe565b60405180910390fd5b610fbd7f9f2df0fed2c77648de5860a4cc508cd0818c85b8b8a1ab4ceeef8d981c8956a68261091f565b50565b606060048054610fcf90612897565b80601f0160208091040260200160405190810160405280929190818152602001828054610ffb90612897565b80156110485780601f1061101d57610100808354040283529160200191611048565b820191906000526020600020905b81548152906001019060200180831161102b57829003601f168201915b5050505050905090565b61105c8282611eb9565b5050565b6000801b81565b6000806001600061107661149a565b73ffffffffffffffffffffffffffffffffffffffff1673ffffffffffffffffffffffffffffffffffffffff16815260200190815260200160002060008573ffffffffffffffffffffffffffffffffffffffff1673ffffffffffffffffffffffffffffffffffffffff16815260200190815260200160002054905082811015611133576040517f08c379a000000000000000000000000000000000000000000000000000000000815260040161112a90612cee565b60405180910390fd5b61114761113e61149a565b858584036114a2565b600191505092915050565b600061116661115f61149a565b848461166d565b6001905092915050565b61117861149a565b73ffffffffffffffffffffffffffffffffffffffff16611196610e82565b73ffffffffffffffffffffffffffffffffffffffff16146111ec576040517f08c379a00000000000000000000000000000000000000000000000000000000081526004016111e390612abe565b60405180910390fd5b611201846a0d3c21bcecceda10000000611bf0565b611216836a0d3c21bcecceda10000000611bf0565b61122b826a0d3c21bcecceda10000000611bf0565b611240816a0d3c21bcecceda10000000611bf0565b50505050565b6a0d3c21bcecceda1000000081565b7f9f2df0fed2c77648de5860a4cc508cd0818c85b8b8a1ab4ceeef8d981c8956a681565b611282826108ff565b6112938161128e61149a565b6118ee565b61129d8383611a6c565b505050565b6000600854905090565b6000600160008473ffffffffffffffffffffffffffffffffffffffff1673ffffffffffffffffffffffffffffffffffffffff16815260200190815260200160002060008373ffffffffffffffffffffffffffffffffffffffff1673ffffffffffffffffffffffffffffffffffffffff16815260200190815260200160002054905092915050565b61133b61149a565b73ffffffffffffffffffffffffffffffffffffffff16611359610e82565b73ffffffffffffffffffffffffffffffffffffffff16146113af576040517f08c379a00000000000000000000000000000000000000000000000000000000081526004016113a690612abe565b60405180910390fd5b600073ffffffffffffffffffffffffffffffffffffffff168173ffffffffffffffffffffffffffffffffffffffff16141561141f576040517f08c379a000000000000000000000000000000000000000000000000000000000815260040161141690612d80565b60405180910390fd5b61142881611d50565b50565b505050565b60007f01ffc9a7000000000000000000000000000000000000000000000000000000007bffffffffffffffffffffffffffffffffffffffffffffffffffffffff1916827bffffffffffffffffffffffffffffffffffffffffffffffffffffffff1916149050919050565b600033905090565b600073ffffffffffffffffffffffffffffffffffffffff168373ffffffffffffffffffffffffffffffffffffffff161415611512576040517f08c379a000000000000000000000000000000000000000000000000000000000815260040161150990612e12565b60405180910390fd5b600073ffffffffffffffffffffffffffffffffffffffff168273ffffffffffffffffffffffffffffffffffffffff161415611582576040517f08c379a000000000000000000000000000000000000000000000000000000000815260040161157990612ea4565b60405180910390fd5b80600160008573ffffffffffffffffffffffffffffffffffffffff1673ffffffffffffffffffffffffffffffffffffffff16815260200190815260200160002060008473ffffffffffffffffffffffffffffffffffffffff1673ffffffffffffffffffffffffffffffffffffffff168152602001908152602001600020819055508173ffffffffffffffffffffffffffffffffffffffff168373ffffffffffffffffffffffffffffffffffffffff167f8c5be1e5ebec7d5bd14f71427d1e84f3dd0314c0f7b2291e5b200ac8c7c3b9258360405161166091906125b8565b60405180910390a3505050565b600073ffffffffffffffffffffffffffffffffffffffff168373ffffffffffffffffffffffffffffffffffffffff1614156116dd576040517f08c379a00000000000000000000000000000000000000000000000000000000081526004016116d490612f36565b60405180910390fd5b600073ffffffffffffffffffffffffffffffffffffffff168273ffffffffffffffffffffffffffffffffffffffff16141561174d576040517f08c379a000000000000000000000000000000000000000000000000000000000815260040161174490612fc8565b60405180910390fd5b611758838383612090565b60008060008573ffffffffffffffffffffffffffffffffffffffff1673ffffffffffffffffffffffffffffffffffffffff168152602001908152602001600020549050818110156117de576040517f08c379a00000000000000000000000000000000000000000000000000000000081526004016117d59061305a565b60405180910390fd5b8181036000808673ffffffffffffffffffffffffffffffffffffffff1673ffffffffffffffffffffffffffffffffffffffff16815260200190815260200160002081905550816000808573ffffffffffffffffffffffffffffffffffffffff1673ffffffffffffffffffffffffffffffffffffffff16815260200190815260200160002060008282546118719190612a1c565b925050819055508273ffffffffffffffffffffffffffffffffffffffff168473ffffffffffffffffffffffffffffffffffffffff167fddf252ad1be2c89b69c2b068fc378daa952ba7f163c4a11628f55a4df523b3ef846040516118d591906125b8565b60405180910390a36118e8848484612119565b50505050565b6118f88282610eac565b6119875761191d8173ffffffffffffffffffffffffffffffffffffffff16601461211e565b61192b8360001c602061211e565b60405160200161193c92919061314e565b6040516020818303038152906040526040517f08c379a000000000000000000000000000000000000000000000000000000000815260040161197e91906124b3565b60405180910390fd5b5050565b6119958282610eac565b611a685760016006600084815260200190815260200160002060000160008373ffffffffffffffffffffffffffffffffffffffff1673ffffffffffffffffffffffffffffffffffffffff16815260200190815260200160002060006101000a81548160ff021916908315150217905550611a0d61149a565b73ffffffffffffffffffffffffffffffffffffffff168173ffffffffffffffffffffffffffffffffffffffff16837f2f8788117e7eff1d82e926ec794901d17c78024a50270940304540a733656f0d60405160405180910390a45b5050565b611a768282610eac565b15611b4a5760006006600084815260200190815260200160002060000160008373ffffffffffffffffffffffffffffffffffffffff1673ffffffffffffffffffffffffffffffffffffffff16815260200190815260200160002060006101000a81548160ff021916908315150217905550611aef61149a565b73ffffffffffffffffffffffffffffffffffffffff168173ffffffffffffffffffffffffffffffffffffffff16837ff6391f5c32d9c69d2a47ea670b442974b53935d1edc7fd64eb21e047a839171b60405160405180910390a45b5050565b611b56610c05565b611b95576040517f08c379a0000000000000000000000000000000000000000000000000000000008152600401611b8c906131d4565b60405180910390fd5b6000600560006101000a81548160ff0219169083151502179055507f5db9ee0a495bf2e6ff9c91a7834c1ba4fdd244a5e8aa4e537bd38aeae4b073aa611bd961149a565b604051611be691906127a6565b60405180910390a1565b600073ffffffffffffffffffffffffffffffffffffffff168273ffffffffffffffffffffffffffffffffffffffff161415611c60576040517f08c379a0000000000000000000000000000000000000000000000000000000008152600401611c5790613240565b60405180910390fd5b611c6c60008383612090565b8060026000828254611c7e9190612a1c565b92505081905550806000808473ffffffffffffffffffffffffffffffffffffffff1673ffffffffffffffffffffffffffffffffffffffff1681526020019081526020016000206000828254611cd39190612a1c565b925050819055508173ffffffffffffffffffffffffffffffffffffffff16600073ffffffffffffffffffffffffffffffffffffffff167fddf252ad1be2c89b69c2b068fc378daa952ba7f163c4a11628f55a4df523b3ef83604051611d3891906125b8565b60405180910390a3611d4c60008383612119565b5050565b6000600560019054906101000a900473ffffffffffffffffffffffffffffffffffffffff16905081600560016101000a81548173ffffffffffffffffffffffffffffffffffffffff021916908373ffffffffffffffffffffffffffffffffffffffff1602179055508173ffffffffffffffffffffffffffffffffffffffff168173ffffffffffffffffffffffffffffffffffffffff167f8be0079c531659141344cd1fd0a4f28419497f9722a3daafe3b4186f6b6457e060405160405180910390a35050565b611e1e610c05565b15611e5e576040517f08c379a0000000000000000000000000000000000000000000000000000000008152600401611e55906132ac565b60405180910390fd5b6001600560006101000a81548160ff0219169083151502179055507f62e78cea01bee320cd4e420270b5ea74000d11b0c9f74754ebdbfc544b05a258611ea261149a565b604051611eaf91906127a6565b60405180910390a1565b600073ffffffffffffffffffffffffffffffffffffffff168273ffffffffffffffffffffffffffffffffffffffff161415611f29576040517f08c379a0000000000000000000000000000000000000000000000000000000008152600401611f209061333e565b60405180910390fd5b611f3582600083612090565b60008060008473ffffffffffffffffffffffffffffffffffffffff1673ffffffffffffffffffffffffffffffffffffffff16815260200190815260200160002054905081811015611fbb576040517f08c379a0000000000000000000000000000000000000000000000000000000008152600401611fb2906133d0565b60405180910390fd5b8181036000808573ffffffffffffffffffffffffffffffffffffffff1673ffffffffffffffffffffffffffffffffffffffff16815260200190815260200160002081905550816002600082825461201291906133f0565b92505081905550600073ffffffffffffffffffffffffffffffffffffffff168373ffffffffffffffffffffffffffffffffffffffff167fddf252ad1be2c89b69c2b068fc378daa952ba7f163c4a11628f55a4df523b3ef8460405161207791906125b8565b60405180910390a361208b83600084612119565b505050565b61209b83838361142b565b6120a3610c05565b15806120d557506120d47f9f2df0fed2c77648de5860a4cc508cd0818c85b8b8a1ab4ceeef8d981c8956a633610eac565b5b612114576040517f08c379a000000000000000000000000000000000000000000000000000000000815260040161210b90613496565b60405180910390fd5b505050565b505050565b6060600060028360026121319190612bb6565b61213b9190612a1c565b67ffffffffffffffff811115612154576121536134b6565b5b6040519080825280601f01601f1916602001820160405280156121865781602001600182028036833780820191505090505b5090507f3000000000000000000000000000000000000000000000000000000000000000816000815181106121be576121bd6134e5565b5b60200101907effffffffffffffffffffffffffffffffffffffffffffffffffffffffffffff1916908160001a9053507f780000000000000000000000000000000000000000000000000000000000000081600181518110612222576122216134e5565b5b60200101907effffffffffffffffffffffffffffffffffffffffffffffffffffffffffffff1916908160001a905350600060018460026122629190612bb6565b61226c9190612a1c565b90505b600181111561230c577f3031323334353637383961626364656600000000000000000000000000000000600f8616601081106122ae576122ad6134e5565b5b1a60f81b8282815181106122c5576122c46134e5565b5b60200101907effffffffffffffffffffffffffffffffffffffffffffffffffffffffffffff1916908160001a905350600485901c94508061230590613514565b905061226f565b5060008414612350576040517f08c379a00000000000000000000000000000000000000000000000000000000081526004016123479061358a565b60405180910390fd5b8091505092915050565b600080fd5b60007fffffffff0000000000000000000000000000000000000000000000000000000082169050919050565b6123948161235f565b811461239f57600080fd5b50565b6000813590506123b18161238b565b92915050565b6000602082840312156123cd576123cc61235a565b5b60006123db848285016123a2565b91505092915050565b60008115159050919050565b6123f9816123e4565b82525050565b600060208201905061241460008301846123f0565b92915050565b600081519050919050565b600082825260208201905092915050565b60005b83811015612454578082015181840152602081019050612439565b83811115612463576000848401525b50505050565b6000601f19601f8301169050919050565b60006124858261241a565b61248f8185612425565b935061249f818560208601612436565b6124a881612469565b840191505092915050565b600060208201905081810360008301526124cd818461247a565b905092915050565b600073ffffffffffffffffffffffffffffffffffffffff82169050919050565b6000612500826124d5565b9050919050565b612510816124f5565b811461251b57600080fd5b50565b60008135905061252d81612507565b92915050565b6000819050919050565b61254681612533565b811461255157600080fd5b50565b6000813590506125638161253d565b92915050565b600080604083850312156125805761257f61235a565b5b600061258e8582860161251e565b925050602061259f85828601612554565b9150509250929050565b6125b281612533565b82525050565b60006020820190506125cd60008301846125a9565b92915050565b6000806000606084860312156125ec576125eb61235a565b5b60006125fa8682870161251e565b935050602061260b8682870161251e565b925050604061261c86828701612554565b9150509250925092565b6000819050919050565b61263981612626565b811461264457600080fd5b50565b60008135905061265681612630565b92915050565b6000602082840312156126725761267161235a565b5b600061268084828501612647565b91505092915050565b61269281612626565b82525050565b60006020820190506126ad6000830184612689565b92915050565b600080604083850312156126ca576126c961235a565b5b60006126d885828601612647565b92505060206126e98582860161251e565b9150509250929050565b600060ff82169050919050565b612709816126f3565b82525050565b60006020820190506127246000830184612700565b92915050565b6000602082840312156127405761273f61235a565b5b600061274e8482850161251e565b91505092915050565b6000806040838503121561276e5761276d61235a565b5b600061277c85828601612554565b925050602061278d8582860161251e565b9150509250929050565b6127a0816124f5565b82525050565b60006020820190506127bb6000830184612797565b92915050565b600080600080608085870312156127db576127da61235a565b5b60006127e98782880161251e565b94505060206127fa8782880161251e565b935050604061280b8782880161251e565b925050606061281c8782880161251e565b91505092959194509250565b6000806040838503121561283f5761283e61235a565b5b600061284d8582860161251e565b925050602061285e8582860161251e565b9150509250929050565b7f4e487b7100000000000000000000000000000000000000000000000000000000600052602260045260246000fd5b600060028204905060018216806128af57607f821691505b602082108114156128c3576128c2612868565b5b50919050565b7f45524332303a207472616e7366657220616d6f756e742065786365656473206160008201527f6c6c6f77616e6365000000000000000000000000000000000000000000000000602082015250565b6000612925602883612425565b9150612930826128c9565b604082019050919050565b6000602082019050818103600083015261295481612918565b9050919050565b7f416363657373436f6e74726f6c3a2063616e206f6e6c792072656e6f756e636560008201527f20726f6c657320666f722073656c660000000000000000000000000000000000602082015250565b60006129b7602f83612425565b91506129c28261295b565b604082019050919050565b600060208201905081810360008301526129e6816129aa565b9050919050565b7f4e487b7100000000000000000000000000000000000000000000000000000000600052601160045260246000fd5b6000612a2782612533565b9150612a3283612533565b9250827fffffffffffffffffffffffffffffffffffffffffffffffffffffffffffffffff03821115612a6757612a666129ed565b5b828201905092915050565b7f4f776e61626c653a2063616c6c6572206973206e6f7420746865206f776e6572600082015250565b6000612aa8602083612425565b9150612ab382612a72565b602082019050919050565b60006020820190508181036000830152612ad781612a9b565b9050919050565b7f49434f2073656c6c206c696d697420686173206265656e207265616368656400600082015250565b6000612b14601f83612425565b9150612b1f82612ade565b602082019050919050565b60006020820190508181036000830152612b4381612b07565b9050919050565b7f43616c6c6572206973206e6f742061206d696e74657200000000000000000000600082015250565b6000612b80601683612425565b9150612b8b82612b4a565b602082019050919050565b60006020820190508181036000830152612baf81612b73565b9050919050565b6000612bc182612533565b9150612bcc83612533565b9250817fffffffffffffffffffffffffffffffffffffffffffffffffffffffffffffffff0483118215151615612c0557612c046129ed565b5b828202905092915050565b7f4c696d6974207265616368000000000000000000000000000000000000000000600082015250565b6000612c46600b83612425565b9150612c5182612c10565b602082019050919050565b60006020820190508181036000830152612c7581612c39565b9050919050565b7f45524332303a2064656372656173656420616c6c6f77616e63652062656c6f7760008201527f207a65726f000000000000000000000000000000000000000000000000000000602082015250565b6000612cd8602583612425565b9150612ce382612c7c565b604082019050919050565b60006020820190508181036000830152612d0781612ccb565b9050919050565b7f4f776e61626c653a206e6577206f776e657220697320746865207a65726f206160008201527f6464726573730000000000000000000000000000000000000000000000000000602082015250565b6000612d6a602683612425565b9150612d7582612d0e565b604082019050919050565b60006020820190508181036000830152612d9981612d5d565b9050919050565b7f45524332303a20617070726f76652066726f6d20746865207a65726f2061646460008201527f7265737300000000000000000000000000000000000000000000000000000000602082015250565b6000612dfc602483612425565b9150612e0782612da0565b604082019050919050565b60006020820190508181036000830152612e2b81612def565b9050919050565b7f45524332303a20617070726f766520746f20746865207a65726f20616464726560008201527f7373000000000000000000000000000000000000000000000000000000000000602082015250565b6000612e8e602283612425565b9150612e9982612e32565b604082019050919050565b60006020820190508181036000830152612ebd81612e81565b9050919050565b7f45524332303a207472616e736665722066726f6d20746865207a65726f20616460008201527f6472657373000000000000000000000000000000000000000000000000000000602082015250565b6000612f20602583612425565b9150612f2b82612ec4565b604082019050919050565b60006020820190508181036000830152612f4f81612f13565b9050919050565b7f45524332303a207472616e7366657220746f20746865207a65726f206164647260008201527f6573730000000000000000000000000000000000000000000000000000000000602082015250565b6000612fb2602383612425565b9150612fbd82612f56565b604082019050919050565b60006020820190508181036000830152612fe181612fa5565b9050919050565b7f45524332303a207472616e7366657220616d6f756e742065786365656473206260008201527f616c616e63650000000000000000000000000000000000000000000000000000602082015250565b6000613044602683612425565b915061304f82612fe8565b604082019050919050565b6000602082019050818103600083015261307381613037565b9050919050565b600081905092915050565b7f416363657373436f6e74726f6c3a206163636f756e7420000000000000000000600082015250565b60006130bb60178361307a565b91506130c682613085565b601782019050919050565b60006130dc8261241a565b6130e6818561307a565b93506130f6818560208601612436565b80840191505092915050565b7f206973206d697373696e6720726f6c6520000000000000000000000000000000600082015250565b600061313860118361307a565b915061314382613102565b601182019050919050565b6000613159826130ae565b915061316582856130d1565b91506131708261312b565b915061317c82846130d1565b91508190509392505050565b7f5061757361626c653a206e6f7420706175736564000000000000000000000000600082015250565b60006131be601483612425565b91506131c982613188565b602082019050919050565b600060208201905081810360008301526131ed816131b1565b9050919050565b7f45524332303a206d696e7420746f20746865207a65726f206164647265737300600082015250565b600061322a601f83612425565b9150613235826131f4565b602082019050919050565b600060208201905081810360008301526132598161321d565b9050919050565b7f5061757361626c653a2070617573656400000000000000000000000000000000600082015250565b6000613296601083612425565b91506132a182613260565b602082019050919050565b600060208201905081810360008301526132c581613289565b9050919050565b7f45524332303a206275726e2066726f6d20746865207a65726f2061646472657360008201527f7300000000000000000000000000000000000000000000000000000000000000602082015250565b6000613328602183612425565b9150613333826132cc565b604082019050919050565b600060208201905081810360008301526133578161331b565b9050919050565b7f45524332303a206275726e20616d6f756e7420657863656564732062616c616e60008201527f6365000000000000000000000000000000000000000000000000000000000000602082015250565b60006133ba602283612425565b91506133c58261335e565b604082019050919050565b600060208201905081810360008301526133e9816133ad565b9050919050565b60006133fb82612533565b915061340683612533565b925082821015613419576134186129ed565b5b828203905092915050565b7f45524332305061757361626c653a20746f6b656e207472616e7366657220776860008201527f696c652070617573656400000000000000000000000000000000000000000000602082015250565b6000613480602a83612425565b915061348b82613424565b604082019050919050565b600060208201905081810360008301526134af81613473565b9050919050565b7f4e487b7100000000000000000000000000000000000000000000000000000000600052604160045260246000fd5b7f4e487b7100000000000000000000000000000000000000000000000000000000600052603260045260246000fd5b600061351f82612533565b91506000821415613533576135326129ed565b5b600182039050919050565b7f537472696e67733a20686578206c656e67746820696e73756666696369656e74600082015250565b6000613574602083612425565b915061357f8261353e565b602082019050919050565b600060208201905081810360008301526135a381613567565b905091905056fea2646970667358221220fdee7105ec36a4bdd78f3c3eb597f39f08504ebe7d3e7be773b46ab37f05c9b864736f6c63430008090033",
  "linkReferences": {},
  "deployedLinkReferences": {}
}