{
  "_format": "hh-sol-artifact-1",
  "contractName": "FlexiCoin",
  "sourceName": "contracts/FlexiCoin.sol",
  "abi": [
    {
      "inputs": [],
      "stateMutability": "nonpayable",
      "type": "constructor"
    },
    {
      "anonymous": false,
      "inputs": [
        {
          "indexed": true,
          "internalType": "address",
          "name": "owner",
          "type": "address"
        },
        {
          "indexed": true,
          "internalType": "address",
          "name": "spender",
          "type": "address"
        },
        {
          "indexed": false,
          "internalType": "uint256",
          "name": "value",
          "type": "uint256"
        }
      ],
      "name": "Approval",
      "type": "event"
    },
    {
      "anonymous": false,
      "inputs": [
        {
          "indexed": true,
          "internalType": "address",
          "name": "previousOwner",
          "type": "address"
        },
        {
          "indexed": true,
          "internalType": "address",
          "name": "newOwner",
          "type": "address"
        }
      ],
      "name": "OwnershipTransferred",
      "type": "event"
    },
    {
      "anonymous": false,
      "inputs": [
        {
          "indexed": false,
          "internalType": "address",
          "name": "account",
          "type": "address"
        }
      ],
      "name": "Paused",
      "type": "event"
    },
    {
      "anonymous": false,
      "inputs": [
        {
          "indexed": true,
          "internalType": "bytes32",
          "name": "role",
          "type": "bytes32"
        },
        {
          "indexed": true,
          "internalType": "bytes32",
          "name": "previousAdminRole",
          "type": "bytes32"
        },
        {
          "indexed": true,
          "internalType": "bytes32",
          "name": "newAdminRole",
          "type": "bytes32"
        }
      ],
      "name": "RoleAdminChanged",
      "type": "event"
    },
    {
      "anonymous": false,
      "inputs": [
        {
          "indexed": true,
          "internalType": "bytes32",
          "name": "role",
          "type": "bytes32"
        },
        {
          "indexed": true,
          "internalType": "address",
          "name": "account",
          "type": "address"
        },
        {
          "indexed": true,
          "internalType": "address",
          "name": "sender",
          "type": "address"
        }
      ],
      "name": "RoleGranted",
      "type": "event"
    },
    {
      "anonymous": false,
      "inputs": [
        {
          "indexed": true,
          "internalType": "bytes32",
          "name": "role",
          "type": "bytes32"
        },
        {
          "indexed": true,
          "internalType": "address",
          "name": "account",
          "type": "address"
        },
        {
          "indexed": true,
          "internalType": "address",
          "name": "sender",
          "type": "address"
        }
      ],
      "name": "RoleRevoked",
      "type": "event"
    },
    {
      "anonymous": false,
      "inputs": [
        {
          "indexed": true,
          "internalType": "address",
          "name": "from",
          "type": "address"
        },
        {
          "indexed": true,
          "internalType": "address",
          "name": "to",
          "type": "address"
        },
        {
          "indexed": false,
          "internalType": "uint256",
          "name": "value",
          "type": "uint256"
        }
      ],
      "name": "Transfer",
      "type": "event"
    },
    {
      "anonymous": false,
      "inputs": [
        {
          "indexed": false,
          "internalType": "address",
          "name": "account",
          "type": "address"
        }
      ],
      "name": "Unpaused",
      "type": "event"
    },
    {
      "inputs": [],
      "name": "AMOUNTMINT",
      "outputs": [
        {
          "internalType": "uint256",
          "name": "",
          "type": "uint256"
        }
      ],
      "stateMutability": "view",
      "type": "function"
    },
    {
      "inputs": [],
      "name": "DEFAULT_ADMIN_ROLE",
      "outputs": [
        {
          "internalType": "bytes32",
          "name": "",
          "type": "bytes32"
        }
      ],
      "stateMutability": "view",
      "type": "function"
    },
    {
      "inputs": [],
      "name": "ICO_MINT",
      "outputs": [
        {
          "internalType": "uint256",
          "name": "",
          "type": "uint256"
        }
      ],
      "stateMutability": "view",
      "type": "function"
    },
    {
      "inputs": [],
      "name": "MINTER_ROLE",
      "outputs": [
        {
          "internalType": "bytes32",
          "name": "",
          "type": "bytes32"
        }
      ],
      "stateMutability": "view",
      "type": "function"
    },
    {
      "inputs": [],
      "name": "PRICE",
      "outputs": [
        {
          "internalType": "uint256",
          "name": "",
          "type": "uint256"
        }
      ],
      "stateMutability": "view",
      "type": "function"
    },
    {
      "inputs": [],
      "name": "REWARD_LIMIT",
      "outputs": [
        {
          "internalType": "uint256",
          "name": "",
          "type": "uint256"
        }
      ],
      "stateMutability": "view",
      "type": "function"
    },
    {
      "inputs": [],
      "name": "SELL_LIMIT",
      "outputs": [
        {
          "internalType": "uint256",
          "name": "",
          "type": "uint256"
        }
      ],
      "stateMutability": "view",
      "type": "function"
    },
    {
      "inputs": [
        {
          "internalType": "address",
          "name": "owner",
          "type": "address"
        },
        {
          "internalType": "address",
          "name": "spender",
          "type": "address"
        }
      ],
      "name": "allowance",
      "outputs": [
        {
          "internalType": "uint256",
          "name": "",
          "type": "uint256"
        }
      ],
      "stateMutability": "view",
      "type": "function"
    },
    {
      "inputs": [],
      "name": "amount_reward",
      "outputs": [
        {
          "internalType": "uint256",
          "name": "",
          "type": "uint256"
        }
      ],
      "stateMutability": "view",
      "type": "function"
    },
    {
      "inputs": [
        {
          "internalType": "address",
          "name": "spender",
          "type": "address"
        },
        {
          "internalType": "uint256",
          "name": "amount",
          "type": "uint256"
        }
      ],
      "name": "approve",
      "outputs": [
        {
          "internalType": "bool",
          "name": "",
          "type": "bool"
        }
      ],
      "stateMutability": "nonpayable",
      "type": "function"
    },
    {
      "inputs": [
        {
          "internalType": "address",
          "name": "account",
          "type": "address"
        }
      ],
      "name": "balanceOf",
      "outputs": [
        {
          "internalType": "uint256",
          "name": "",
          "type": "uint256"
        }
      ],
      "stateMutability": "view",
      "type": "function"
    },
    {
      "inputs": [
        {
          "internalType": "address",
          "name": "account",
          "type": "address"
        },
        {
          "internalType": "uint256",
          "name": "amount",
          "type": "uint256"
        }
      ],
      "name": "burn",
      "outputs": [],
      "stateMutability": "nonpayable",
      "type": "function"
    },
    {
      "inputs": [
        {
          "internalType": "uint256",
          "name": "_amount",
          "type": "uint256"
        }
      ],
      "name": "buyCoin",
      "outputs": [
        {
          "internalType": "bool",
          "name": "",
          "type": "bool"
        }
      ],
      "stateMutability": "payable",
      "type": "function"
    },
    {
      "inputs": [],
      "name": "decimals",
      "outputs": [
        {
          "internalType": "uint8",
          "name": "",
          "type": "uint8"
        }
      ],
      "stateMutability": "view",
      "type": "function"
    },
    {
      "inputs": [
        {
          "internalType": "address",
          "name": "spender",
          "type": "address"
        },
        {
          "internalType": "uint256",
          "name": "subtractedValue",
          "type": "uint256"
        }
      ],
      "name": "decreaseAllowance",
      "outputs": [
        {
          "internalType": "bool",
          "name": "",
          "type": "bool"
        }
      ],
      "stateMutability": "nonpayable",
      "type": "function"
    },
    {
      "inputs": [],
      "name": "getAmount_sell",
      "outputs": [
        {
          "internalType": "uint256",
          "name": "",
          "type": "uint256"
        }
      ],
      "stateMutability": "view",
      "type": "function"
    },
    {
      "inputs": [
        {
          "internalType": "bytes32",
          "name": "role",
          "type": "bytes32"
        }
      ],
      "name": "getRoleAdmin",
      "outputs": [
        {
          "internalType": "bytes32",
          "name": "",
          "type": "bytes32"
        }
      ],
      "stateMutability": "view",
      "type": "function"
    },
    {
      "inputs": [
        {
          "internalType": "bytes32",
          "name": "role",
          "type": "bytes32"
        },
        {
          "internalType": "address",
          "name": "account",
          "type": "address"
        }
      ],
      "name": "grantRole",
      "outputs": [],
      "stateMutability": "nonpayable",
      "type": "function"
    },
    {
      "inputs": [
        {
          "internalType": "bytes32",
          "name": "role",
          "type": "bytes32"
        },
        {
          "internalType": "address",
          "name": "account",
          "type": "address"
        }
      ],
      "name": "hasRole",
      "outputs": [
        {
          "internalType": "bool",
          "name": "",
          "type": "bool"
        }
      ],
      "stateMutability": "view",
      "type": "function"
    },
    {
      "inputs": [
        {
          "internalType": "address",
          "name": "spender",
          "type": "address"
        },
        {
          "internalType": "uint256",
          "name": "addedValue",
          "type": "uint256"
        }
      ],
      "name": "increaseAllowance",
      "outputs": [
        {
          "internalType": "bool",
          "name": "",
          "type": "bool"
        }
      ],
      "stateMutability": "nonpayable",
      "type": "function"
    },
    {
      "inputs": [
        {
          "internalType": "address",
          "name": "_lock1",
          "type": "address"
        },
        {
          "internalType": "address",
          "name": "_lock2",
          "type": "address"
        },
        {
          "internalType": "address",
          "name": "_lock3",
          "type": "address"
        },
        {
          "internalType": "address",
          "name": "_lock4",
          "type": "address"
        }
      ],
      "name": "lock",
      "outputs": [],
      "stateMutability": "nonpayable",
      "type": "function"
    },
    {
      "inputs": [
        {
          "internalType": "address",
          "name": "_account",
          "type": "address"
        },
        {
          "internalType": "uint256",
          "name": "_amount",
          "type": "uint256"
        }
      ],
      "name": "mint",
      "outputs": [
        {
          "internalType": "bool",
          "name": "",
          "type": "bool"
        }
      ],
      "stateMutability": "nonpayable",
      "type": "function"
    },
    {
      "inputs": [],
      "name": "name",
      "outputs": [
        {
          "internalType": "string",
          "name": "",
          "type": "string"
        }
      ],
      "stateMutability": "view",
      "type": "function"
    },
    {
      "inputs": [],
      "name": "owner",
      "outputs": [
        {
          "internalType": "address",
          "name": "",
          "type": "address"
        }
      ],
      "stateMutability": "view",
      "type": "function"
    },
    {
      "inputs": [],
      "name": "paused",
      "outputs": [
        {
          "internalType": "bool",
          "name": "",
          "type": "bool"
        }
      ],
      "stateMutability": "view",
      "type": "function"
    },
    {
      "inputs": [],
      "name": "renounceOwnership",
      "outputs": [],
      "stateMutability": "nonpayable",
      "type": "function"
    },
    {
      "inputs": [
        {
          "internalType": "bytes32",
          "name": "role",
          "type": "bytes32"
        },
        {
          "internalType": "address",
          "name": "account",
          "type": "address"
        }
      ],
      "name": "renounceRole",
      "outputs": [],
      "stateMutability": "nonpayable",
      "type": "function"
    },
    {
      "inputs": [
        {
          "internalType": "bytes32",
          "name": "role",
          "type": "bytes32"
        },
        {
          "internalType": "address",
          "name": "account",
          "type": "address"
        }
      ],
      "name": "revokeRole",
      "outputs": [],
      "stateMutability": "nonpayable",
      "type": "function"
    },
    {
      "inputs": [
        {
          "internalType": "uint256",
          "name": "_amount",
          "type": "uint256"
        },
        {
          "internalType": "address",
          "name": "_add",
          "type": "address"
        }
      ],
      "name": "reward",
      "outputs": [],
      "stateMutability": "nonpayable",
      "type": "function"
    },
    {
      "inputs": [
        {
          "internalType": "address",
          "name": "_account",
          "type": "address"
        }
      ],
      "name": "setMinterRole",
      "outputs": [],
      "stateMutability": "nonpayable",
      "type": "function"
    },
    {
      "inputs": [
        {
          "internalType": "bytes4",
          "name": "interfaceId",
          "type": "bytes4"
        }
      ],
      "name": "supportsInterface",
      "outputs": [
        {
          "internalType": "bool",
          "name": "",
          "type": "bool"
        }
      ],
      "stateMutability": "view",
      "type": "function"
    },
    {
      "inputs": [],
      "name": "symbol",
      "outputs": [
        {
          "internalType": "string",
          "name": "",
          "type": "string"
        }
      ],
      "stateMutability": "view",
      "type": "function"
    },
    {
      "inputs": [],
      "name": "totalSupply",
      "outputs": [
        {
          "internalType": "uint256",
          "name": "",
          "type": "uint256"
        }
      ],
      "stateMutability": "view",
      "type": "function"
    },
    {
      "inputs": [
        {
          "internalType": "address",
          "name": "recipient",
          "type": "address"
        },
        {
          "internalType": "uint256",
          "name": "amount",
          "type": "uint256"
        }
      ],
      "name": "transfer",
      "outputs": [
        {
          "internalType": "bool",
          "name": "",
          "type": "bool"
        }
      ],
      "stateMutability": "nonpayable",
      "type": "function"
    },
    {
      "inputs": [
        {
          "internalType": "address",
          "name": "sender",
          "type": "address"
        },
        {
          "internalType": "address",
          "name": "recipient",
          "type": "address"
        },
        {
          "internalType": "uint256",
          "name": "amount",
          "type": "uint256"
        }
      ],
      "name": "transferFrom",
      "outputs": [
        {
          "internalType": "bool",
          "name": "",
          "type": "bool"
        }
      ],
      "stateMutability": "nonpayable",
      "type": "function"
    },
    {
      "inputs": [
        {
          "internalType": "address",
          "name": "newOwner",
          "type": "address"
        }
      ],
      "name": "transferOwnership",
      "outputs": [],
      "stateMutability": "nonpayable",
      "type": "function"
    },
    {
      "inputs": [
        {
          "internalType": "uint256",
          "name": "_amount",
          "type": "uint256"
        },
        {
          "internalType": "address payable",
          "name": "_add",
          "type": "address"
        }
      ],
      "name": "withdraw",
      "outputs": [],
      "stateMutability": "nonpayable",
      "type": "function"
    }
  ],
  "bytecode": "0x6080604052600060075560006008556611c37937e080006009553480156200002657600080fd5b506040518060400160405280600981526020017f466c657869436f696e00000000000000000000000000000000000000000000008152506040518060400160405280600381526020017f464c4300000000000000000000000000000000000000000000000000000000008152508160039080519060200190620000ab92919062000585565b508060049080519060200190620000c492919062000585565b5050506000600560006101000a81548160ff02191690831515021790555062000102620000f66200013a60201b60201c565b6200014260201b60201c565b6200011f336a0d3c21bcecceda100000006200020860201b60201c565b620001346000801b336200038160201b60201c565b62000879565b600033905090565b6000600560019054906101000a900473ffffffffffffffffffffffffffffffffffffffff16905081600560016101000a81548173ffffffffffffffffffffffffffffffffffffffff021916908373ffffffffffffffffffffffffffffffffffffffff1602179055508173ffffffffffffffffffffffffffffffffffffffff168173ffffffffffffffffffffffffffffffffffffffff167f8be0079c531659141344cd1fd0a4f28419497f9722a3daafe3b4186f6b6457e060405160405180910390a35050565b600073ffffffffffffffffffffffffffffffffffffffff168273ffffffffffffffffffffffffffffffffffffffff1614156200027b576040517f08c379a0000000000000000000000000000000000000000000000000000000008152600401620002729062000696565b60405180910390fd5b6200028f600083836200039760201b60201c565b8060026000828254620002a39190620006f1565b92505081905550806000808473ffffffffffffffffffffffffffffffffffffffff1673ffffffffffffffffffffffffffffffffffffffff1681526020019081526020016000206000828254620002fa9190620006f1565b925050819055508173ffffffffffffffffffffffffffffffffffffffff16600073ffffffffffffffffffffffffffffffffffffffff167fddf252ad1be2c89b69c2b068fc378daa952ba7f163c4a11628f55a4df523b3ef836040516200036191906200075f565b60405180910390a36200037d600083836200040760201b60201c565b5050565b6200039382826200040c60201b60201c565b5050565b620003af838383620004fe60201b620017291760201c565b620003bf6200050360201b60201c565b1562000402576040517f08c379a0000000000000000000000000000000000000000000000000000000008152600401620003f990620007f2565b60405180910390fd5b505050565b505050565b6200041e82826200051a60201b60201c565b620004fa5760016006600084815260200190815260200160002060000160008373ffffffffffffffffffffffffffffffffffffffff1673ffffffffffffffffffffffffffffffffffffffff16815260200190815260200160002060006101000a81548160ff0219169083151502179055506200049f6200013a60201b60201c565b73ffffffffffffffffffffffffffffffffffffffff168173ffffffffffffffffffffffffffffffffffffffff16837f2f8788117e7eff1d82e926ec794901d17c78024a50270940304540a733656f0d60405160405180910390a45b5050565b505050565b6000600560009054906101000a900460ff16905090565b60006006600084815260200190815260200160002060000160008373ffffffffffffffffffffffffffffffffffffffff1673ffffffffffffffffffffffffffffffffffffffff16815260200190815260200160002060009054906101000a900460ff16905092915050565b828054620005939062000843565b90600052602060002090601f016020900481019282620005b7576000855562000603565b82601f10620005d257805160ff191683800117855562000603565b8280016001018555821562000603579182015b8281111562000602578251825591602001919060010190620005e5565b5b50905062000612919062000616565b5090565b5b808211156200063157600081600090555060010162000617565b5090565b600082825260208201905092915050565b7f45524332303a206d696e7420746f20746865207a65726f206164647265737300600082015250565b60006200067e601f8362000635565b91506200068b8262000646565b602082019050919050565b60006020820190508181036000830152620006b1816200066f565b9050919050565b6000819050919050565b7f4e487b7100000000000000000000000000000000000000000000000000000000600052601160045260246000fd5b6000620006fe82620006b8565b91506200070b83620006b8565b9250827fffffffffffffffffffffffffffffffffffffffffffffffffffffffffffffffff03821115620007435762000742620006c2565b5b828201905092915050565b6200075981620006b8565b82525050565b60006020820190506200077660008301846200074e565b92915050565b7f45524332305061757361626c653a20746f6b656e207472616e7366657220776860008201527f696c652070617573656400000000000000000000000000000000000000000000602082015250565b6000620007da602a8362000635565b9150620007e7826200077c565b604082019050919050565b600060208201905081810360008301526200080d81620007cb565b9050919050565b7f4e487b7100000000000000000000000000000000000000000000000000000000600052602260045260246000fd5b600060028204905060018216806200085c57607f821691505b6020821081141562000873576200087262000814565b5b50919050565b6137a780620008896000396000f3fe6080604052600436106102195760003560e01c806378f4d64511610123578063a217fddf116100ab578063d53913931161006f578063d539139314610815578063d547741f14610840578063da2c4a3414610869578063dd62ed3e14610894578063f2fde38b146108d157610219565b8063a217fddf1461071c578063a457c2d714610747578063a9059cbb14610784578063bb52a3e3146107c1578063c2ac7d58146107ea57610219565b806391d14854116100f257806391d1485414610637578063945d12291461067457806394ad511b1461069d57806395d89b41146106c85780639dc29fac146106f357610219565b806378f4d6451461058657806387792574146105b15780638d859f3e146105e15780638da5cb5b1461060c57610219565b806336568abe116101a65780635c975abb116101755780635c975abb146104b357806370a08231146104de578063715018a61461051b57806371684d441461053257806371bb61f31461055d57610219565b806336568abe146103e5578063395093511461040e57806340c10f191461044b5780635846b96a1461048857610219565b806318160ddd116101ed57806318160ddd146102ec57806323b872dd14610317578063248a9ca3146103545780632f2ff15d14610391578063313ce567146103ba57610219565b8062f714ce1461021e57806301ffc9a71461024757806306fdde0314610284578063095ea7b3146102af575b600080fd5b34801561022a57600080fd5b506102456004803603810190610240919061257b565b6108fa565b005b34801561025357600080fd5b5061026e60048036038101906102699190612613565b6109c1565b60405161027b919061265b565b60405180910390f35b34801561029057600080fd5b50610299610a3b565b6040516102a6919061270f565b60405180910390f35b3480156102bb57600080fd5b506102d660048036038101906102d1919061276f565b610acd565b6040516102e3919061265b565b60405180910390f35b3480156102f857600080fd5b50610301610aeb565b60405161030e91906127be565b60405180910390f35b34801561032357600080fd5b5061033e600480360381019061033991906127d9565b610af5565b60405161034b919061265b565b60405180910390f35b34801561036057600080fd5b5061037b60048036038101906103769190612862565b610bed565b604051610388919061289e565b60405180910390f35b34801561039d57600080fd5b506103b860048036038101906103b391906128b9565b610c0d565b005b3480156103c657600080fd5b506103cf610c36565b6040516103dc9190612915565b60405180910390f35b3480156103f157600080fd5b5061040c600480360381019061040791906128b9565b610c3f565b005b34801561041a57600080fd5b506104356004803603810190610430919061276f565b610cc2565b604051610442919061265b565b60405180910390f35b34801561045757600080fd5b50610472600480360381019061046d919061276f565b610d6e565b60405161047f919061265b565b60405180910390f35b34801561049457600080fd5b5061049d610e61565b6040516104aa91906127be565b60405180910390f35b3480156104bf57600080fd5b506104c8610e6d565b6040516104d5919061265b565b60405180910390f35b3480156104ea57600080fd5b5061050560048036038101906105009190612930565b610e84565b60405161051291906127be565b60405180910390f35b34801561052757600080fd5b50610530610ecc565b005b34801561053e57600080fd5b50610547610f54565b60405161055491906127be565b60405180910390f35b34801561056957600080fd5b50610584600480360381019061057f919061295d565b610f63565b005b34801561059257600080fd5b5061059b611058565b6040516105a891906127be565b60405180910390f35b6105cb60048036038101906105c6919061299d565b61105e565b6040516105d8919061265b565b60405180910390f35b3480156105ed57600080fd5b506105f661116d565b60405161060391906127be565b60405180910390f35b34801561061857600080fd5b50610621611173565b60405161062e91906129d9565b60405180910390f35b34801561064357600080fd5b5061065e600480360381019061065991906128b9565b61119d565b60405161066b919061265b565b60405180910390f35b34801561068057600080fd5b5061069b60048036038101906106969190612930565b611208565b005b3480156106a957600080fd5b506106b26112b1565b6040516106bf91906127be565b60405180910390f35b3480156106d457600080fd5b506106dd6112be565b6040516106ea919061270f565b60405180910390f35b3480156106ff57600080fd5b5061071a6004803603810190610715919061276f565b611350565b005b34801561072857600080fd5b5061073161135e565b60405161073e919061289e565b60405180910390f35b34801561075357600080fd5b5061076e6004803603810190610769919061276f565b611365565b60405161077b919061265b565b60405180910390f35b34801561079057600080fd5b506107ab60048036038101906107a6919061276f565b611450565b6040516107b8919061265b565b60405180910390f35b3480156107cd57600080fd5b506107e860048036038101906107e391906129f4565b61146e565b005b3480156107f657600080fd5b506107ff611544565b60405161080c91906127be565b60405180910390f35b34801561082157600080fd5b5061082a611553565b604051610837919061289e565b60405180910390f35b34801561084c57600080fd5b50610867600480360381019061086291906128b9565b611577565b005b34801561087557600080fd5b5061087e6115a0565b60405161088b91906127be565b60405180910390f35b3480156108a057600080fd5b506108bb60048036038101906108b69190612a5b565b6115aa565b6040516108c891906127be565b60405180910390f35b3480156108dd57600080fd5b506108f860048036038101906108f39190612930565b611631565b005b61090261172e565b73ffffffffffffffffffffffffffffffffffffffff16610920611173565b73ffffffffffffffffffffffffffffffffffffffff1614610976576040517f08c379a000000000000000000000000000000000000000000000000000000000815260040161096d90612ae7565b60405180910390fd5b8073ffffffffffffffffffffffffffffffffffffffff166108fc839081150290604051600060405180830381858888f193505050501580156109bc573d6000803e3d6000fd5b505050565b60007f7965db0b000000000000000000000000000000000000000000000000000000007bffffffffffffffffffffffffffffffffffffffffffffffffffffffff1916827bffffffffffffffffffffffffffffffffffffffffffffffffffffffff19161480610a345750610a3382611736565b5b9050919050565b606060038054610a4a90612b36565b80601f0160208091040260200160405190810160405280929190818152602001828054610a7690612b36565b8015610ac35780601f10610a9857610100808354040283529160200191610ac3565b820191906000526020600020905b815481529060010190602001808311610aa657829003601f168201915b5050505050905090565b6000610ae1610ada61172e565b84846117a0565b6001905092915050565b6000600254905090565b6000610b0284848461196b565b6000600160008673ffffffffffffffffffffffffffffffffffffffff1673ffffffffffffffffffffffffffffffffffffffff1681526020019081526020016000206000610b4d61172e565b73ffffffffffffffffffffffffffffffffffffffff1673ffffffffffffffffffffffffffffffffffffffff16815260200190815260200160002054905082811015610bcd576040517f08c379a0000000000000000000000000000000000000000000000000000000008152600401610bc490612bda565b60405180910390fd5b610be185610bd961172e565b8584036117a0565b60019150509392505050565b600060066000838152602001908152602001600020600101549050919050565b610c1682610bed565b610c2781610c2261172e565b611bec565b610c318383611c89565b505050565b60006012905090565b610c4761172e565b73ffffffffffffffffffffffffffffffffffffffff168173ffffffffffffffffffffffffffffffffffffffff1614610cb4576040517f08c379a0000000000000000000000000000000000000000000000000000000008152600401610cab90612c6c565b60405180910390fd5b610cbe8282611d6a565b5050565b6000610d64610ccf61172e565b848460016000610cdd61172e565b73ffffffffffffffffffffffffffffffffffffffff1673ffffffffffffffffffffffffffffffffffffffff16815260200190815260200160002060008873ffffffffffffffffffffffffffffffffffffffff1673ffffffffffffffffffffffffffffffffffffffff16815260200190815260200160002054610d5f9190612cbb565b6117a0565b6001905092915050565b60006a4a723dc6b40b8a9a00000082600854610d8a9190612cbb565b1115610dcb576040517f08c379a0000000000000000000000000000000000000000000000000000000008152600401610dc290612d5d565b60405180910390fd5b610df57f9f2df0fed2c77648de5860a4cc508cd0818c85b8b8a1ab4ceeef8d981c8956a63361119d565b610e34576040517f08c379a0000000000000000000000000000000000000000000000000000000008152600401610e2b90612dc9565b60405180910390fd5b610e3e8383611e4c565b8160086000828254610e509190612cbb565b925050819055506001905092915050565b678ac7230489e8000081565b6000600560009054906101000a900460ff16905090565b60008060008373ffffffffffffffffffffffffffffffffffffffff1673ffffffffffffffffffffffffffffffffffffffff168152602001908152602001600020549050919050565b610ed461172e565b73ffffffffffffffffffffffffffffffffffffffff16610ef2611173565b73ffffffffffffffffffffffffffffffffffffffff1614610f48576040517f08c379a0000000000000000000000000000000000000000000000000000000008152600401610f3f90612ae7565b60405180910390fd5b610f526000611fac565b565b6a4a723dc6b40b8a9a00000081565b610f6b61172e565b73ffffffffffffffffffffffffffffffffffffffff16610f89611173565b73ffffffffffffffffffffffffffffffffffffffff1614610fdf576040517f08c379a0000000000000000000000000000000000000000000000000000000008152600401610fd690612ae7565b60405180910390fd5b678ac7230489e80000670de0b6b3a764000083610ffc9190612de9565b6007546110099190612cbb565b111561104a576040517f08c379a000000000000000000000000000000000000000000000000000000000815260040161104190612e8f565b60405180910390fd5b6110548183611e4c565b5050565b60075481565b60006801a055690d9db80000670de0b6b3a76400008361107e9190612de9565b60085461108b9190612cbb565b11156110cc576040517f08c379a00000000000000000000000000000000000000000000000000000000081526004016110c390612e8f565b60405180910390fd5b600954826110da9190612de9565b341461111b576040517f08c379a000000000000000000000000000000000000000000000000000000000815260040161111290612efb565b60405180910390fd5b670de0b6b3a76400008261112f9190612de9565b600860008282546111409190612cbb565b9250508190555061116433670de0b6b3a76400008461115f9190612de9565b611e4c565b60019050919050565b60095481565b6000600560019054906101000a900473ffffffffffffffffffffffffffffffffffffffff16905090565b60006006600084815260200190815260200160002060000160008373ffffffffffffffffffffffffffffffffffffffff1673ffffffffffffffffffffffffffffffffffffffff16815260200190815260200160002060009054906101000a900460ff16905092915050565b61121061172e565b73ffffffffffffffffffffffffffffffffffffffff1661122e611173565b73ffffffffffffffffffffffffffffffffffffffff1614611284576040517f08c379a000000000000000000000000000000000000000000000000000000000815260040161127b90612ae7565b60405180910390fd5b6112ae7f9f2df0fed2c77648de5860a4cc508cd0818c85b8b8a1ab4ceeef8d981c8956a682610c0d565b50565b6801a055690d9db8000081565b6060600480546112cd90612b36565b80601f01602080910402602001604051908101604052809291908181526020018280546112f990612b36565b80156113465780601f1061131b57610100808354040283529160200191611346565b820191906000526020600020905b81548152906001019060200180831161132957829003601f168201915b5050505050905090565b61135a8282612072565b5050565b6000801b81565b6000806001600061137461172e565b73ffffffffffffffffffffffffffffffffffffffff1673ffffffffffffffffffffffffffffffffffffffff16815260200190815260200160002060008573ffffffffffffffffffffffffffffffffffffffff1673ffffffffffffffffffffffffffffffffffffffff16815260200190815260200160002054905082811015611431576040517f08c379a000000000000000000000000000000000000000000000000000000000815260040161142890612f8d565b60405180910390fd5b61144561143c61172e565b858584036117a0565b600191505092915050565b600061146461145d61172e565b848461196b565b6001905092915050565b61147661172e565b73ffffffffffffffffffffffffffffffffffffffff16611494611173565b73ffffffffffffffffffffffffffffffffffffffff16146114ea576040517f08c379a00000000000000000000000000000000000000000000000000000000081526004016114e190612ae7565b60405180910390fd5b6114ff846a0d3c21bcecceda10000000611e4c565b611514836a0d3c21bcecceda10000000611e4c565b611529826a0d3c21bcecceda10000000611e4c565b61153e816a0d3c21bcecceda10000000611e4c565b50505050565b6a0d3c21bcecceda1000000081565b7f9f2df0fed2c77648de5860a4cc508cd0818c85b8b8a1ab4ceeef8d981c8956a681565b61158082610bed565b6115918161158c61172e565b611bec565b61159b8383611d6a565b505050565b6000600854905090565b6000600160008473ffffffffffffffffffffffffffffffffffffffff1673ffffffffffffffffffffffffffffffffffffffff16815260200190815260200160002060008373ffffffffffffffffffffffffffffffffffffffff1673ffffffffffffffffffffffffffffffffffffffff16815260200190815260200160002054905092915050565b61163961172e565b73ffffffffffffffffffffffffffffffffffffffff16611657611173565b73ffffffffffffffffffffffffffffffffffffffff16146116ad576040517f08c379a00000000000000000000000000000000000000000000000000000000081526004016116a490612ae7565b60405180910390fd5b600073ffffffffffffffffffffffffffffffffffffffff168173ffffffffffffffffffffffffffffffffffffffff16141561171d576040517f08c379a00000000000000000000000000000000000000000000000000000000081526004016117149061301f565b60405180910390fd5b61172681611fac565b50565b505050565b600033905090565b60007f01ffc9a7000000000000000000000000000000000000000000000000000000007bffffffffffffffffffffffffffffffffffffffffffffffffffffffff1916827bffffffffffffffffffffffffffffffffffffffffffffffffffffffff1916149050919050565b600073ffffffffffffffffffffffffffffffffffffffff168373ffffffffffffffffffffffffffffffffffffffff161415611810576040517f08c379a0000000000000000000000000000000000000000000000000000000008152600401611807906130b1565b60405180910390fd5b600073ffffffffffffffffffffffffffffffffffffffff168273ffffffffffffffffffffffffffffffffffffffff161415611880576040517f08c379a000000000000000000000000000000000000000000000000000000000815260040161187790613143565b60405180910390fd5b80600160008573ffffffffffffffffffffffffffffffffffffffff1673ffffffffffffffffffffffffffffffffffffffff16815260200190815260200160002060008473ffffffffffffffffffffffffffffffffffffffff1673ffffffffffffffffffffffffffffffffffffffff168152602001908152602001600020819055508173ffffffffffffffffffffffffffffffffffffffff168373ffffffffffffffffffffffffffffffffffffffff167f8c5be1e5ebec7d5bd14f71427d1e84f3dd0314c0f7b2291e5b200ac8c7c3b9258360405161195e91906127be565b60405180910390a3505050565b600073ffffffffffffffffffffffffffffffffffffffff168373ffffffffffffffffffffffffffffffffffffffff1614156119db576040517f08c379a00000000000000000000000000000000000000000000000000000000081526004016119d2906131d5565b60405180910390fd5b600073ffffffffffffffffffffffffffffffffffffffff168273ffffffffffffffffffffffffffffffffffffffff161415611a4b576040517f08c379a0000000000000000000000000000000000000000000000000000000008152600401611a4290613267565b60405180910390fd5b611a56838383612249565b60008060008573ffffffffffffffffffffffffffffffffffffffff1673ffffffffffffffffffffffffffffffffffffffff16815260200190815260200160002054905081811015611adc576040517f08c379a0000000000000000000000000000000000000000000000000000000008152600401611ad3906132f9565b60405180910390fd5b8181036000808673ffffffffffffffffffffffffffffffffffffffff1673ffffffffffffffffffffffffffffffffffffffff16815260200190815260200160002081905550816000808573ffffffffffffffffffffffffffffffffffffffff1673ffffffffffffffffffffffffffffffffffffffff1681526020019081526020016000206000828254611b6f9190612cbb565b925050819055508273ffffffffffffffffffffffffffffffffffffffff168473ffffffffffffffffffffffffffffffffffffffff167fddf252ad1be2c89b69c2b068fc378daa952ba7f163c4a11628f55a4df523b3ef84604051611bd391906127be565b60405180910390a3611be68484846122a1565b50505050565b611bf6828261119d565b611c8557611c1b8173ffffffffffffffffffffffffffffffffffffffff1660146122a6565b611c298360001c60206122a6565b604051602001611c3a9291906133ed565b6040516020818303038152906040526040517f08c379a0000000000000000000000000000000000000000000000000000000008152600401611c7c919061270f565b60405180910390fd5b5050565b611c93828261119d565b611d665760016006600084815260200190815260200160002060000160008373ffffffffffffffffffffffffffffffffffffffff1673ffffffffffffffffffffffffffffffffffffffff16815260200190815260200160002060006101000a81548160ff021916908315150217905550611d0b61172e565b73ffffffffffffffffffffffffffffffffffffffff168173ffffffffffffffffffffffffffffffffffffffff16837f2f8788117e7eff1d82e926ec794901d17c78024a50270940304540a733656f0d60405160405180910390a45b5050565b611d74828261119d565b15611e485760006006600084815260200190815260200160002060000160008373ffffffffffffffffffffffffffffffffffffffff1673ffffffffffffffffffffffffffffffffffffffff16815260200190815260200160002060006101000a81548160ff021916908315150217905550611ded61172e565b73ffffffffffffffffffffffffffffffffffffffff168173ffffffffffffffffffffffffffffffffffffffff16837ff6391f5c32d9c69d2a47ea670b442974b53935d1edc7fd64eb21e047a839171b60405160405180910390a45b5050565b600073ffffffffffffffffffffffffffffffffffffffff168273ffffffffffffffffffffffffffffffffffffffff161415611ebc576040517f08c379a0000000000000000000000000000000000000000000000000000000008152600401611eb390613473565b60405180910390fd5b611ec860008383612249565b8060026000828254611eda9190612cbb565b92505081905550806000808473ffffffffffffffffffffffffffffffffffffffff1673ffffffffffffffffffffffffffffffffffffffff1681526020019081526020016000206000828254611f2f9190612cbb565b925050819055508173ffffffffffffffffffffffffffffffffffffffff16600073ffffffffffffffffffffffffffffffffffffffff167fddf252ad1be2c89b69c2b068fc378daa952ba7f163c4a11628f55a4df523b3ef83604051611f9491906127be565b60405180910390a3611fa8600083836122a1565b5050565b6000600560019054906101000a900473ffffffffffffffffffffffffffffffffffffffff16905081600560016101000a81548173ffffffffffffffffffffffffffffffffffffffff021916908373ffffffffffffffffffffffffffffffffffffffff1602179055508173ffffffffffffffffffffffffffffffffffffffff168173ffffffffffffffffffffffffffffffffffffffff167f8be0079c531659141344cd1fd0a4f28419497f9722a3daafe3b4186f6b6457e060405160405180910390a35050565b600073ffffffffffffffffffffffffffffffffffffffff168273ffffffffffffffffffffffffffffffffffffffff1614156120e2576040517f08c379a00000000000000000000000000000000000000000000000000000000081526004016120d990613505565b60405180910390fd5b6120ee82600083612249565b60008060008473ffffffffffffffffffffffffffffffffffffffff1673ffffffffffffffffffffffffffffffffffffffff16815260200190815260200160002054905081811015612174576040517f08c379a000000000000000000000000000000000000000000000000000000000815260040161216b90613597565b60405180910390fd5b8181036000808573ffffffffffffffffffffffffffffffffffffffff1673ffffffffffffffffffffffffffffffffffffffff1681526020019081526020016000208190555081600260008282546121cb91906135b7565b92505081905550600073ffffffffffffffffffffffffffffffffffffffff168373ffffffffffffffffffffffffffffffffffffffff167fddf252ad1be2c89b69c2b068fc378daa952ba7f163c4a11628f55a4df523b3ef8460405161223091906127be565b60405180910390a3612244836000846122a1565b505050565b612254838383611729565b61225c610e6d565b1561229c576040517f08c379a00000000000000000000000000000000000000000000000000000000081526004016122939061365d565b60405180910390fd5b505050565b505050565b6060600060028360026122b99190612de9565b6122c39190612cbb565b67ffffffffffffffff8111156122dc576122db61367d565b5b6040519080825280601f01601f19166020018201604052801561230e5781602001600182028036833780820191505090505b5090507f300000000000000000000000000000000000000000000000000000000000000081600081518110612346576123456136ac565b5b60200101907effffffffffffffffffffffffffffffffffffffffffffffffffffffffffffff1916908160001a9053507f7800000000000000000000000000000000000000000000000000000000000000816001815181106123aa576123a96136ac565b5b60200101907effffffffffffffffffffffffffffffffffffffffffffffffffffffffffffff1916908160001a905350600060018460026123ea9190612de9565b6123f49190612cbb565b90505b6001811115612494577f3031323334353637383961626364656600000000000000000000000000000000600f861660108110612436576124356136ac565b5b1a60f81b82828151811061244d5761244c6136ac565b5b60200101907effffffffffffffffffffffffffffffffffffffffffffffffffffffffffffff1916908160001a905350600485901c94508061248d906136db565b90506123f7565b50600084146124d8576040517f08c379a00000000000000000000000000000000000000000000000000000000081526004016124cf90613751565b60405180910390fd5b8091505092915050565b600080fd5b6000819050919050565b6124fa816124e7565b811461250557600080fd5b50565b600081359050612517816124f1565b92915050565b600073ffffffffffffffffffffffffffffffffffffffff82169050919050565b60006125488261251d565b9050919050565b6125588161253d565b811461256357600080fd5b50565b6000813590506125758161254f565b92915050565b60008060408385031215612592576125916124e2565b5b60006125a085828601612508565b92505060206125b185828601612566565b9150509250929050565b60007fffffffff0000000000000000000000000000000000000000000000000000000082169050919050565b6125f0816125bb565b81146125fb57600080fd5b50565b60008135905061260d816125e7565b92915050565b600060208284031215612629576126286124e2565b5b6000612637848285016125fe565b91505092915050565b60008115159050919050565b61265581612640565b82525050565b6000602082019050612670600083018461264c565b92915050565b600081519050919050565b600082825260208201905092915050565b60005b838110156126b0578082015181840152602081019050612695565b838111156126bf576000848401525b50505050565b6000601f19601f8301169050919050565b60006126e182612676565b6126eb8185612681565b93506126fb818560208601612692565b612704816126c5565b840191505092915050565b6000602082019050818103600083015261272981846126d6565b905092915050565b600061273c8261251d565b9050919050565b61274c81612731565b811461275757600080fd5b50565b60008135905061276981612743565b92915050565b60008060408385031215612786576127856124e2565b5b60006127948582860161275a565b92505060206127a585828601612508565b9150509250929050565b6127b8816124e7565b82525050565b60006020820190506127d360008301846127af565b92915050565b6000806000606084860312156127f2576127f16124e2565b5b60006128008682870161275a565b93505060206128118682870161275a565b925050604061282286828701612508565b9150509250925092565b6000819050919050565b61283f8161282c565b811461284a57600080fd5b50565b60008135905061285c81612836565b92915050565b600060208284031215612878576128776124e2565b5b60006128868482850161284d565b91505092915050565b6128988161282c565b82525050565b60006020820190506128b3600083018461288f565b92915050565b600080604083850312156128d0576128cf6124e2565b5b60006128de8582860161284d565b92505060206128ef8582860161275a565b9150509250929050565b600060ff82169050919050565b61290f816128f9565b82525050565b600060208201905061292a6000830184612906565b92915050565b600060208284031215612946576129456124e2565b5b60006129548482850161275a565b91505092915050565b60008060408385031215612974576129736124e2565b5b600061298285828601612508565b92505060206129938582860161275a565b9150509250929050565b6000602082840312156129b3576129b26124e2565b5b60006129c184828501612508565b91505092915050565b6129d381612731565b82525050565b60006020820190506129ee60008301846129ca565b92915050565b60008060008060808587031215612a0e57612a0d6124e2565b5b6000612a1c8782880161275a565b9450506020612a2d8782880161275a565b9350506040612a3e8782880161275a565b9250506060612a4f8782880161275a565b91505092959194509250565b60008060408385031215612a7257612a716124e2565b5b6000612a808582860161275a565b9250506020612a918582860161275a565b9150509250929050565b7f4f776e61626c653a2063616c6c6572206973206e6f7420746865206f776e6572600082015250565b6000612ad1602083612681565b9150612adc82612a9b565b602082019050919050565b60006020820190508181036000830152612b0081612ac4565b9050919050565b7f4e487b7100000000000000000000000000000000000000000000000000000000600052602260045260246000fd5b60006002820490506001821680612b4e57607f821691505b60208210811415612b6257612b61612b07565b5b50919050565b7f45524332303a207472616e7366657220616d6f756e742065786365656473206160008201527f6c6c6f77616e6365000000000000000000000000000000000000000000000000602082015250565b6000612bc4602883612681565b9150612bcf82612b68565b604082019050919050565b60006020820190508181036000830152612bf381612bb7565b9050919050565b7f416363657373436f6e74726f6c3a2063616e206f6e6c792072656e6f756e636560008201527f20726f6c657320666f722073656c660000000000000000000000000000000000602082015250565b6000612c56602f83612681565b9150612c6182612bfa565b604082019050919050565b60006020820190508181036000830152612c8581612c49565b9050919050565b7f4e487b7100000000000000000000000000000000000000000000000000000000600052601160045260246000fd5b6000612cc6826124e7565b9150612cd1836124e7565b9250827fffffffffffffffffffffffffffffffffffffffffffffffffffffffffffffffff03821115612d0657612d05612c8c565b5b828201905092915050565b7f49434f2073656c6c206c696d697420686173206265656e207265616368656400600082015250565b6000612d47601f83612681565b9150612d5282612d11565b602082019050919050565b60006020820190508181036000830152612d7681612d3a565b9050919050565b7f43616c6c6572206973206e6f742061206d696e74657200000000000000000000600082015250565b6000612db3601683612681565b9150612dbe82612d7d565b602082019050919050565b60006020820190508181036000830152612de281612da6565b9050919050565b6000612df4826124e7565b9150612dff836124e7565b9250817fffffffffffffffffffffffffffffffffffffffffffffffffffffffffffffffff0483118215151615612e3857612e37612c8c565b5b828202905092915050565b7f4c696d6974207265616368000000000000000000000000000000000000000000600082015250565b6000612e79600b83612681565b9150612e8482612e43565b602082019050919050565b60006020820190508181036000830152612ea881612e6c565b9050919050565b7f496e73756666696369656e742070617900000000000000000000000000000000600082015250565b6000612ee5601083612681565b9150612ef082612eaf565b602082019050919050565b60006020820190508181036000830152612f1481612ed8565b9050919050565b7f45524332303a2064656372656173656420616c6c6f77616e63652062656c6f7760008201527f207a65726f000000000000000000000000000000000000000000000000000000602082015250565b6000612f77602583612681565b9150612f8282612f1b565b604082019050919050565b60006020820190508181036000830152612fa681612f6a565b9050919050565b7f4f776e61626c653a206e6577206f776e657220697320746865207a65726f206160008201527f6464726573730000000000000000000000000000000000000000000000000000602082015250565b6000613009602683612681565b915061301482612fad565b604082019050919050565b6000602082019050818103600083015261303881612ffc565b9050919050565b7f45524332303a20617070726f76652066726f6d20746865207a65726f2061646460008201527f7265737300000000000000000000000000000000000000000000000000000000602082015250565b600061309b602483612681565b91506130a68261303f565b604082019050919050565b600060208201905081810360008301526130ca8161308e565b9050919050565b7f45524332303a20617070726f766520746f20746865207a65726f20616464726560008201527f7373000000000000000000000000000000000000000000000000000000000000602082015250565b600061312d602283612681565b9150613138826130d1565b604082019050919050565b6000602082019050818103600083015261315c81613120565b9050919050565b7f45524332303a207472616e736665722066726f6d20746865207a65726f20616460008201527f6472657373000000000000000000000000000000000000000000000000000000602082015250565b60006131bf602583612681565b91506131ca82613163565b604082019050919050565b600060208201905081810360008301526131ee816131b2565b9050919050565b7f45524332303a207472616e7366657220746f20746865207a65726f206164647260008201527f6573730000000000000000000000000000000000000000000000000000000000602082015250565b6000613251602383612681565b915061325c826131f5565b604082019050919050565b6000602082019050818103600083015261328081613244565b9050919050565b7f45524332303a207472616e7366657220616d6f756e742065786365656473206260008201527f616c616e63650000000000000000000000000000000000000000000000000000602082015250565b60006132e3602683612681565b91506132ee82613287565b604082019050919050565b60006020820190508181036000830152613312816132d6565b9050919050565b600081905092915050565b7f416363657373436f6e74726f6c3a206163636f756e7420000000000000000000600082015250565b600061335a601783613319565b915061336582613324565b601782019050919050565b600061337b82612676565b6133858185613319565b9350613395818560208601612692565b80840191505092915050565b7f206973206d697373696e6720726f6c6520000000000000000000000000000000600082015250565b60006133d7601183613319565b91506133e2826133a1565b601182019050919050565b60006133f88261334d565b91506134048285613370565b915061340f826133ca565b915061341b8284613370565b91508190509392505050565b7f45524332303a206d696e7420746f20746865207a65726f206164647265737300600082015250565b600061345d601f83612681565b915061346882613427565b602082019050919050565b6000602082019050818103600083015261348c81613450565b9050919050565b7f45524332303a206275726e2066726f6d20746865207a65726f2061646472657360008201527f7300000000000000000000000000000000000000000000000000000000000000602082015250565b60006134ef602183612681565b91506134fa82613493565b604082019050919050565b6000602082019050818103600083015261351e816134e2565b9050919050565b7f45524332303a206275726e20616d6f756e7420657863656564732062616c616e60008201527f6365000000000000000000000000000000000000000000000000000000000000602082015250565b6000613581602283612681565b915061358c82613525565b604082019050919050565b600060208201905081810360008301526135b081613574565b9050919050565b60006135c2826124e7565b91506135cd836124e7565b9250828210156135e0576135df612c8c565b5b828203905092915050565b7f45524332305061757361626c653a20746f6b656e207472616e7366657220776860008201527f696c652070617573656400000000000000000000000000000000000000000000602082015250565b6000613647602a83612681565b9150613652826135eb565b604082019050919050565b600060208201905081810360008301526136768161363a565b9050919050565b7f4e487b7100000000000000000000000000000000000000000000000000000000600052604160045260246000fd5b7f4e487b7100000000000000000000000000000000000000000000000000000000600052603260045260246000fd5b60006136e6826124e7565b915060008214156136fa576136f9612c8c565b5b600182039050919050565b7f537472696e67733a20686578206c656e67746820696e73756666696369656e74600082015250565b600061373b602083612681565b915061374682613705565b602082019050919050565b6000602082019050818103600083015261376a8161372e565b905091905056fea26469706673582212208d9544a4593d11d05cfdc8562fbbf284ec574bf5dc7f359934e31a34c9c93d5164736f6c63430008090033",
  "linkReferences": {},
  "deployedLinkReferences": {}
}