{
  "_format": "hh-sol-artifact-1",
  "contractName": "Ecommerce",
  "sourceName": "contracts/Ecommerce.sol",
  "abi": [
    {
      "inputs": [
        {
          "internalType": "address",
          "name": "_erc721token",
          "type": "address"
        },
        {
          "internalType": "address",
          "name": "_erc20token",
          "type": "address"
        },
        {
          "internalType": "uint256",
          "name": "_nftprice",
          "type": "uint256"
        }
      ],
      "stateMutability": "nonpayable",
      "type": "constructor"
    },
    {
      "anonymous": false,
      "inputs": [
        {
          "indexed": true,
          "internalType": "address",
          "name": "previousOwner",
          "type": "address"
        },
        {
          "indexed": true,
          "internalType": "address",
          "name": "newOwner",
          "type": "address"
        }
      ],
      "name": "OwnershipTransferred",
      "type": "event"
    },
    {
      "anonymous": false,
      "inputs": [
        {
          "indexed": false,
          "internalType": "uint256",
          "name": "_id",
          "type": "uint256"
        },
        {
          "indexed": false,
          "internalType": "uint256",
          "name": "_price",
          "type": "uint256"
        }
      ],
      "name": "ProductForSale",
      "type": "event"
    },
    {
      "anonymous": false,
      "inputs": [
        {
          "indexed": false,
          "internalType": "uint256",
          "name": "_id",
          "type": "uint256"
        }
      ],
      "name": "ProductNotForSale",
      "type": "event"
    },
    {
      "anonymous": false,
      "inputs": [
        {
          "indexed": false,
          "internalType": "address",
          "name": "buyer",
          "type": "address"
        },
        {
          "indexed": false,
          "internalType": "uint256",
          "name": "_id",
          "type": "uint256"
        }
      ],
      "name": "ProductSold",
      "type": "event"
    },
    {
      "inputs": [],
      "name": "ERC20TOKEN",
      "outputs": [
        {
          "internalType": "address",
          "name": "",
          "type": "address"
        }
      ],
      "stateMutability": "view",
      "type": "function"
    },
    {
      "inputs": [],
      "name": "ERC721TOKEN",
      "outputs": [
        {
          "internalType": "address",
          "name": "",
          "type": "address"
        }
      ],
      "stateMutability": "view",
      "type": "function"
    },
    {
      "inputs": [],
      "name": "NFTMINTPRICE",
      "outputs": [
        {
          "internalType": "uint256",
          "name": "",
          "type": "uint256"
        }
      ],
      "stateMutability": "view",
      "type": "function"
    },
    {
      "inputs": [
        {
          "internalType": "uint256",
          "name": "_amount",
          "type": "uint256"
        },
        {
          "internalType": "address payable",
          "name": "_add",
          "type": "address"
        }
      ],
      "name": "_withdraw",
      "outputs": [],
      "stateMutability": "nonpayable",
      "type": "function"
    },
    {
      "inputs": [
        {
          "internalType": "uint256",
          "name": "_id",
          "type": "uint256"
        }
      ],
      "name": "buyProduct",
      "outputs": [],
      "stateMutability": "payable",
      "type": "function"
    },
    {
      "inputs": [
        {
          "internalType": "uint256",
          "name": "_id",
          "type": "uint256"
        },
        {
          "internalType": "uint256",
          "name": "_totalPrice",
          "type": "uint256"
        },
        {
          "internalType": "uint256",
          "name": "_commision",
          "type": "uint256"
        },
        {
          "internalType": "uint256",
          "name": "_finalPrice",
          "type": "uint256"
        }
      ],
      "name": "isForSale",
      "outputs": [],
      "stateMutability": "nonpayable",
      "type": "function"
    },
    {
      "inputs": [
        {
          "internalType": "uint256",
          "name": "_id",
          "type": "uint256"
        }
      ],
      "name": "notForSale",
      "outputs": [],
      "stateMutability": "nonpayable",
      "type": "function"
    },
    {
      "inputs": [],
      "name": "owner",
      "outputs": [
        {
          "internalType": "address",
          "name": "",
          "type": "address"
        }
      ],
      "stateMutability": "view",
      "type": "function"
    },
    {
      "inputs": [
        {
          "internalType": "uint256",
          "name": "",
          "type": "uint256"
        }
      ],
      "name": "productById",
      "outputs": [
        {
          "internalType": "uint256",
          "name": "id",
          "type": "uint256"
        },
        {
          "internalType": "string",
          "name": "title",
          "type": "string"
        },
        {
          "internalType": "string",
          "name": "description",
          "type": "string"
        },
        {
          "internalType": "uint256",
          "name": "date",
          "type": "uint256"
        },
        {
          "internalType": "address payable",
          "name": "owner",
          "type": "address"
        },
        {
          "internalType": "uint256",
          "name": "totalPrice",
          "type": "uint256"
        },
        {
          "internalType": "uint256",
          "name": "commision",
          "type": "uint256"
        },
        {
          "internalType": "uint256",
          "name": "finalPrice",
          "type": "uint256"
        },
        {
          "internalType": "bool",
          "name": "isForSale",
          "type": "bool"
        }
      ],
      "stateMutability": "view",
      "type": "function"
    },
    {
      "inputs": [
        {
          "internalType": "uint256",
          "name": "_id",
          "type": "uint256"
        },
        {
          "internalType": "address",
          "name": "_to",
          "type": "address"
        },
        {
          "internalType": "string",
          "name": "_title",
          "type": "string"
        },
        {
          "internalType": "string",
          "name": "_description",
          "type": "string"
        }
      ],
      "name": "publishProduct",
      "outputs": [],
      "stateMutability": "nonpayable",
      "type": "function"
    },
    {
      "inputs": [
        {
          "internalType": "uint256",
          "name": "_id",
          "type": "uint256"
        },
        {
          "internalType": "address",
          "name": "_to",
          "type": "address"
        },
        {
          "internalType": "string",
          "name": "_title",
          "type": "string"
        },
        {
          "internalType": "string",
          "name": "_description",
          "type": "string"
        }
      ],
      "name": "publishProductByOwner",
      "outputs": [],
      "stateMutability": "nonpayable",
      "type": "function"
    },
    {
      "inputs": [],
      "name": "renounceOwnership",
      "outputs": [],
      "stateMutability": "nonpayable",
      "type": "function"
    },
    {
      "inputs": [
        {
          "internalType": "address",
          "name": "newOwner",
          "type": "address"
        }
      ],
      "name": "transferOwnership",
      "outputs": [],
      "stateMutability": "nonpayable",
      "type": "function"
    }
  ],
  "bytecode": "0x60806040523480156200001157600080fd5b50604051620032013803806200320183398181016040528101906200003791906200029b565b620000576200004b6200012a60201b60201c565b6200013260201b60201c565b82600360006101000a81548173ffffffffffffffffffffffffffffffffffffffff021916908373ffffffffffffffffffffffffffffffffffffffff16021790555081600460006101000a81548173ffffffffffffffffffffffffffffffffffffffff021916908373ffffffffffffffffffffffffffffffffffffffff16021790555033600260006101000a81548173ffffffffffffffffffffffffffffffffffffffff021916908373ffffffffffffffffffffffffffffffffffffffff16021790555080600581905550505050620002f7565b600033905090565b60008060009054906101000a900473ffffffffffffffffffffffffffffffffffffffff169050816000806101000a81548173ffffffffffffffffffffffffffffffffffffffff021916908373ffffffffffffffffffffffffffffffffffffffff1602179055508173ffffffffffffffffffffffffffffffffffffffff168173ffffffffffffffffffffffffffffffffffffffff167f8be0079c531659141344cd1fd0a4f28419497f9722a3daafe3b4186f6b6457e060405160405180910390a35050565b600080fd5b600073ffffffffffffffffffffffffffffffffffffffff82169050919050565b60006200022882620001fb565b9050919050565b6200023a816200021b565b81146200024657600080fd5b50565b6000815190506200025a816200022f565b92915050565b6000819050919050565b620002758162000260565b81146200028157600080fd5b50565b60008151905062000295816200026a565b92915050565b600080600060608486031215620002b757620002b6620001f6565b5b6000620002c78682870162000249565b9350506020620002da8682870162000249565b9250506040620002ed8682870162000284565b9150509250925092565b612efa80620003076000396000f3fe6080604052600436106100c25760003560e01c80637414fca51161007f578063a30b475f11610059578063a30b475f1461021d578063d44641af14610262578063e49ef93a1461028d578063f2fde38b146102b8576100c2565b80637414fca5146101ad5780638642269e146101d65780638da5cb5b146101f2576100c2565b806310287360146100c75780631d8a06f1146100f05780631e4bccd314610119578063293311ab146101445780633e7d2f351461016d578063715018a614610196575b600080fd5b3480156100d357600080fd5b506100ee60048036038101906100e9919061220f565b6102e1565b005b3480156100fc57600080fd5b506101176004803603810190610112919061220f565b610300565b005b34801561012557600080fd5b5061012e61031f565b60405161013b91906122bd565b60405180910390f35b34801561015057600080fd5b5061016b60048036038101906101669190612316565b610345565b005b34801561017957600080fd5b50610194600480360381019061018f9190612356565b61040c565b005b3480156101a257600080fd5b506101ab6104d4565b005b3480156101b957600080fd5b506101d460048036038101906101cf9190612383565b61055c565b005b6101f060048036038101906101eb9190612356565b61062f565b005b3480156101fe57600080fd5b50610207610693565b60405161021491906122bd565b60405180910390f35b34801561022957600080fd5b50610244600480360381019061023f9190612356565b6106bc565b604051610259999897969594939291906124ab565b60405180910390f35b34801561026e57600080fd5b50610277610847565b60405161028491906122bd565b60405180910390f35b34801561029957600080fd5b506102a261086d565b6040516102af9190612546565b60405180910390f35b3480156102c457600080fd5b506102df60048036038101906102da9190612561565b610873565b005b6102ed8433848461096b565b6102fa8484848433610b6c565b50505050565b61030c8433848461096b565b6103198484848433610b6c565b50505050565b600360009054906101000a900473ffffffffffffffffffffffffffffffffffffffff1681565b61034d610ea9565b73ffffffffffffffffffffffffffffffffffffffff1661036b610693565b73ffffffffffffffffffffffffffffffffffffffff16146103c1576040517f08c379a00000000000000000000000000000000000000000000000000000000081526004016103b8906125da565b60405180910390fd5b8073ffffffffffffffffffffffffffffffffffffffff166108fc839081150290604051600060405180830381858888f19350505050158015610407573d6000803e3d6000fd5b505050565b610414610ea9565b73ffffffffffffffffffffffffffffffffffffffff16610432610693565b73ffffffffffffffffffffffffffffffffffffffff1614610488576040517f08c379a000000000000000000000000000000000000000000000000000000000815260040161047f906125da565b60405180910390fd5b61049181610eb1565b61049a81611133565b7f0e50db0235a1d9e14493902963cd49a4c7c80fefe45001da7f939d36137e9501816040516104c99190612546565b60405180910390a150565b6104dc610ea9565b73ffffffffffffffffffffffffffffffffffffffff166104fa610693565b73ffffffffffffffffffffffffffffffffffffffff1614610550576040517f08c379a0000000000000000000000000000000000000000000000000000000008152600401610547906125da565b60405180910390fd5b61055a60006111b9565b565b610564610ea9565b73ffffffffffffffffffffffffffffffffffffffff16610582610693565b73ffffffffffffffffffffffffffffffffffffffff16146105d8576040517f08c379a00000000000000000000000000000000000000000000000000000000081526004016105cf906125da565b60405180910390fd5b6105e48484848461127d565b6105f084848484611546565b7fc3eb1b6e5a24b4199477283308be14b84e8cd3774f2d107efe98f33751a7317184846040516106219291906125fa565b60405180910390a150505050565b61063a8133346115cb565b610644813361190e565b61064d81611c7b565b6106578133611ef6565b7f735ccf73d81a69b66f62bb12f457649d7d07e4980209201e2319aabd61adf0ee3382604051610688929190612623565b60405180910390a150565b60008060009054906101000a900473ffffffffffffffffffffffffffffffffffffffff16905090565b60016020528060005260406000206000915090508060000154908060010180546106e59061267b565b80601f01602080910402602001604051908101604052809291908181526020018280546107119061267b565b801561075e5780601f106107335761010080835404028352916020019161075e565b820191906000526020600020905b81548152906001019060200180831161074157829003601f168201915b5050505050908060020180546107739061267b565b80601f016020809104026020016040519081016040528092919081815260200182805461079f9061267b565b80156107ec5780601f106107c1576101008083540402835291602001916107ec565b820191906000526020600020905b8154815290600101906020018083116107cf57829003601f168201915b5050505050908060030154908060040160009054906101000a900473ffffffffffffffffffffffffffffffffffffffff16908060050154908060060154908060070154908060080160009054906101000a900460ff16905089565b600460009054906101000a900473ffffffffffffffffffffffffffffffffffffffff1681565b60055481565b61087b610ea9565b73ffffffffffffffffffffffffffffffffffffffff16610899610693565b73ffffffffffffffffffffffffffffffffffffffff16146108ef576040517f08c379a00000000000000000000000000000000000000000000000000000000081526004016108e6906125da565b60405180910390fd5b600073ffffffffffffffffffffffffffffffffffffffff168173ffffffffffffffffffffffffffffffffffffffff16141561095f576040517f08c379a00000000000000000000000000000000000000000000000000000000081526004016109569061271f565b60405180910390fd5b610968816111b9565b50565b600084116109ae576040517f08c379a00000000000000000000000000000000000000000000000000000000081526004016109a59061278b565b60405180910390fd5b60008251116109f2576040517f08c379a00000000000000000000000000000000000000000000000000000000081526004016109e9906127f7565b60405180910390fd5b6000815111610a36576040517f08c379a0000000000000000000000000000000000000000000000000000000008152600401610a2d90612863565b60405180910390fd5b610a3e610693565b73ffffffffffffffffffffffffffffffffffffffff168373ffffffffffffffffffffffffffffffffffffffff1614610b66576000600460009054906101000a900473ffffffffffffffffffffffffffffffffffffffff1673ffffffffffffffffffffffffffffffffffffffff166370a08231856040518263ffffffff1660e01b8152600401610acd91906122bd565b60206040518083038186803b158015610ae557600080fd5b505afa158015610af9573d6000803e3d6000fd5b505050506040513d601f19601f82011682018060405250810190610b1d9190612898565b9050600554811015610b64576040517f08c379a0000000000000000000000000000000000000000000000000000000008152600401610b5b90612937565b60405180910390fd5b505b50505050565b610b74610693565b73ffffffffffffffffffffffffffffffffffffffff168173ffffffffffffffffffffffffffffffffffffffff1614610c3857600460009054906101000a900473ffffffffffffffffffffffffffffffffffffffff1673ffffffffffffffffffffffffffffffffffffffff16639dc29fac826005546040518363ffffffff1660e01b8152600401610c05929190612623565b600060405180830381600087803b158015610c1f57600080fd5b505af1158015610c33573d6000803e3d6000fd5b505050505b60006040518061012001604052808781526020018581526020018481526020014281526020018673ffffffffffffffffffffffffffffffffffffffff1681526020016000815260200160008152602001600081526020016000151581525090508060016000888152602001908152602001600020600082015181600001556020820151816001019080519060200190610cd2929190611f7e565b506040820151816002019080519060200190610cef929190611f7e565b506060820151816003015560808201518160040160006101000a81548173ffffffffffffffffffffffffffffffffffffffff021916908373ffffffffffffffffffffffffffffffffffffffff16021790555060a0820151816005015560c0820151816006015560e082015181600701556101008201518160080160006101000a81548160ff021916908315150217905550905050600360009054906101000a900473ffffffffffffffffffffffffffffffffffffffff1673ffffffffffffffffffffffffffffffffffffffff166340c10f1986886040518363ffffffff1660e01b8152600401610de0929190612623565b600060405180830381600087803b158015610dfa57600080fd5b505af1158015610e0e573d6000803e3d6000fd5b50505050600360009054906101000a900473ffffffffffffffffffffffffffffffffffffffff1673ffffffffffffffffffffffffffffffffffffffff1663095ea7b330886040518363ffffffff1660e01b8152600401610e6f929190612623565b600060405180830381600087803b158015610e8957600080fd5b505af1158015610e9d573d6000803e3d6000fd5b50505050505050505050565b600033905090565b6000600160008381526020019081526020016000206040518061012001604052908160008201548152602001600182018054610eec9061267b565b80601f0160208091040260200160405190810160405280929190818152602001828054610f189061267b565b8015610f655780601f10610f3a57610100808354040283529160200191610f65565b820191906000526020600020905b815481529060010190602001808311610f4857829003601f168201915b50505050508152602001600282018054610f7e9061267b565b80601f0160208091040260200160405190810160405280929190818152602001828054610faa9061267b565b8015610ff75780601f10610fcc57610100808354040283529160200191610ff7565b820191906000526020600020905b815481529060010190602001808311610fda57829003601f168201915b50505050508152602001600382015481526020016004820160009054906101000a900473ffffffffffffffffffffffffffffffffffffffff1673ffffffffffffffffffffffffffffffffffffffff1673ffffffffffffffffffffffffffffffffffffffff1681526020016005820154815260200160068201548152602001600782015481526020016008820160009054906101000a900460ff16151515158152505090506000816020015151116110e3576040517f08c379a00000000000000000000000000000000000000000000000000000000081526004016110da906129a3565b60405180910390fd5b6001151581610100015115151461112f576040517f08c379a000000000000000000000000000000000000000000000000000000000815260040161112690612a0f565b60405180910390fd5b5050565b60006001600083815260200190815260200160002060080160006101000a81548160ff02191690831515021790555060006001600083815260200190815260200160002060050181905550600060016000838152602001908152602001600020600601819055506000600160008381526020019081526020016000206007018190555050565b60008060009054906101000a900473ffffffffffffffffffffffffffffffffffffffff169050816000806101000a81548173ffffffffffffffffffffffffffffffffffffffff021916908373ffffffffffffffffffffffffffffffffffffffff1602179055508173ffffffffffffffffffffffffffffffffffffffff168173ffffffffffffffffffffffffffffffffffffffff167f8be0079c531659141344cd1fd0a4f28419497f9722a3daafe3b4186f6b6457e060405160405180910390a35050565b60006001600086815260200190815260200160002060405180610120016040529081600082015481526020016001820180546112b89061267b565b80601f01602080910402602001604051908101604052809291908181526020018280546112e49061267b565b80156113315780601f1061130657610100808354040283529160200191611331565b820191906000526020600020905b81548152906001019060200180831161131457829003601f168201915b5050505050815260200160028201805461134a9061267b565b80601f01602080910402602001604051908101604052809291908181526020018280546113769061267b565b80156113c35780601f10611398576101008083540402835291602001916113c3565b820191906000526020600020905b8154815290600101906020018083116113a657829003601f168201915b50505050508152602001600382015481526020016004820160009054906101000a900473ffffffffffffffffffffffffffffffffffffffff1673ffffffffffffffffffffffffffffffffffffffff1673ffffffffffffffffffffffffffffffffffffffff1681526020016005820154815260200160068201548152602001600782015481526020016008820160009054906101000a900460ff16151515158152505090506000816020015151116114af576040517f08c379a00000000000000000000000000000000000000000000000000000000081526004016114a690612aa1565b60405180910390fd5b600084116114f2576040517f08c379a00000000000000000000000000000000000000000000000000000000081526004016114e990612b0d565b60405180910390fd5b81836114fe9190612b5c565b841461153f576040517f08c379a000000000000000000000000000000000000000000000000000000000815260040161153690612c4a565b60405180910390fd5b5050505050565b600180600086815260200190815260200160002060080160006101000a81548160ff02191690831515021790555082600160008681526020019081526020016000206005018190555081600160008681526020019081526020016000206006018190555080600160008681526020019081526020016000206007018190555050505050565b60006001600085815260200190815260200160002060405180610120016040529081600082015481526020016001820180546116069061267b565b80601f01602080910402602001604051908101604052809291908181526020018280546116329061267b565b801561167f5780601f106116545761010080835404028352916020019161167f565b820191906000526020600020905b81548152906001019060200180831161166257829003601f168201915b505050505081526020016002820180546116989061267b565b80601f01602080910402602001604051908101604052809291908181526020018280546116c49061267b565b80156117115780601f106116e657610100808354040283529160200191611711565b820191906000526020600020905b8154815290600101906020018083116116f457829003601f168201915b50505050508152602001600382015481526020016004820160009054906101000a900473ffffffffffffffffffffffffffffffffffffffff1673ffffffffffffffffffffffffffffffffffffffff1673ffffffffffffffffffffffffffffffffffffffff1681526020016005820154815260200160068201548152602001600782015481526020016008820160009054906101000a900460ff1615151515815250509050600081608001519050600082602001515111611806576040517f08c379a00000000000000000000000000000000000000000000000000000000081526004016117fd90612aa1565b60405180910390fd5b60011515826101000151151514611852576040517f08c379a000000000000000000000000000000000000000000000000000000000815260040161184990612cb6565b60405180910390fd5b8373ffffffffffffffffffffffffffffffffffffffff168173ffffffffffffffffffffffffffffffffffffffff1614156118c1576040517f08c379a00000000000000000000000000000000000000000000000000000000081526004016118b890612d48565b60405180910390fd5b8160a001518314611907576040517f08c379a00000000000000000000000000000000000000000000000000000000081526004016118fe90612dda565b60405180910390fd5b5050505050565b60006001600084815260200190815260200160002060405180610120016040529081600082015481526020016001820180546119499061267b565b80601f01602080910402602001604051908101604052809291908181526020018280546119759061267b565b80156119c25780601f10611997576101008083540402835291602001916119c2565b820191906000526020600020905b8154815290600101906020018083116119a557829003601f168201915b505050505081526020016002820180546119db9061267b565b80601f0160208091040260200160405190810160405280929190818152602001828054611a079061267b565b8015611a545780601f10611a2957610100808354040283529160200191611a54565b820191906000526020600020905b815481529060010190602001808311611a3757829003601f168201915b50505050508152602001600382015481526020016004820160009054906101000a900473ffffffffffffffffffffffffffffffffffffffff1673ffffffffffffffffffffffffffffffffffffffff1673ffffffffffffffffffffffffffffffffffffffff1681526020016005820154815260200160068201548152602001600782015481526020016008820160009054906101000a900460ff1615151515815250509050806080015173ffffffffffffffffffffffffffffffffffffffff166108fc8260c0015134611b269190612dfa565b9081150290604051600060405180830381858888f19350505050158015611b51573d6000803e3d6000fd5b50600360009054906101000a900473ffffffffffffffffffffffffffffffffffffffff1673ffffffffffffffffffffffffffffffffffffffff166323b872dd826080015184866040518463ffffffff1660e01b8152600401611bb593929190612e8d565b600060405180830381600087803b158015611bcf57600080fd5b505af1158015611be3573d6000803e3d6000fd5b50505050600360009054906101000a900473ffffffffffffffffffffffffffffffffffffffff1673ffffffffffffffffffffffffffffffffffffffff1663095ea7b330856040518363ffffffff1660e01b8152600401611c44929190612623565b600060405180830381600087803b158015611c5e57600080fd5b505af1158015611c72573d6000803e3d6000fd5b50505050505050565b6000600160008381526020019081526020016000206040518061012001604052908160008201548152602001600182018054611cb69061267b565b80601f0160208091040260200160405190810160405280929190818152602001828054611ce29061267b565b8015611d2f5780601f10611d0457610100808354040283529160200191611d2f565b820191906000526020600020905b815481529060010190602001808311611d1257829003601f168201915b50505050508152602001600282018054611d489061267b565b80601f0160208091040260200160405190810160405280929190818152602001828054611d749061267b565b8015611dc15780601f10611d9657610100808354040283529160200191611dc1565b820191906000526020600020905b815481529060010190602001808311611da457829003601f168201915b50505050508152602001600382015481526020016004820160009054906101000a900473ffffffffffffffffffffffffffffffffffffffff1673ffffffffffffffffffffffffffffffffffffffff1673ffffffffffffffffffffffffffffffffffffffff1681526020016005820154815260200160068201548152602001600782015481526020016008820160009054906101000a900460ff161515151581525050905060008160c001518260a00151611e7b9190612dfa565b9050600260009054906101000a900473ffffffffffffffffffffffffffffffffffffffff1673ffffffffffffffffffffffffffffffffffffffff166108fc8234611ec59190612dfa565b9081150290604051600060405180830381858888f19350505050158015611ef0573d6000803e3d6000fd5b50505050565b60006001600084815260200190815260200160002060080160006101000a81548160ff021916908315150217905550806001600084815260200190815260200160002060040160006101000a81548173ffffffffffffffffffffffffffffffffffffffff021916908373ffffffffffffffffffffffffffffffffffffffff1602179055505050565b828054611f8a9061267b565b90600052602060002090601f016020900481019282611fac5760008555611ff3565b82601f10611fc557805160ff1916838001178555611ff3565b82800160010185558215611ff3579182015b82811115611ff2578251825591602001919060010190611fd7565b5b5090506120009190612004565b5090565b5b8082111561201d576000816000905550600101612005565b5090565b6000604051905090565b600080fd5b600080fd5b6000819050919050565b61204881612035565b811461205357600080fd5b50565b6000813590506120658161203f565b92915050565b600073ffffffffffffffffffffffffffffffffffffffff82169050919050565b60006120968261206b565b9050919050565b6120a68161208b565b81146120b157600080fd5b50565b6000813590506120c38161209d565b92915050565b600080fd5b600080fd5b6000601f19601f8301169050919050565b7f4e487b7100000000000000000000000000000000000000000000000000000000600052604160045260246000fd5b61211c826120d3565b810181811067ffffffffffffffff8211171561213b5761213a6120e4565b5b80604052505050565b600061214e612021565b905061215a8282612113565b919050565b600067ffffffffffffffff82111561217a576121796120e4565b5b612183826120d3565b9050602081019050919050565b82818337600083830152505050565b60006121b26121ad8461215f565b612144565b9050828152602081018484840111156121ce576121cd6120ce565b5b6121d9848285612190565b509392505050565b600082601f8301126121f6576121f56120c9565b5b813561220684826020860161219f565b91505092915050565b600080600080608085870312156122295761222861202b565b5b600061223787828801612056565b9450506020612248878288016120b4565b935050604085013567ffffffffffffffff81111561226957612268612030565b5b612275878288016121e1565b925050606085013567ffffffffffffffff81111561229657612295612030565b5b6122a2878288016121e1565b91505092959194509250565b6122b78161208b565b82525050565b60006020820190506122d260008301846122ae565b92915050565b60006122e38261206b565b9050919050565b6122f3816122d8565b81146122fe57600080fd5b50565b600081359050612310816122ea565b92915050565b6000806040838503121561232d5761232c61202b565b5b600061233b85828601612056565b925050602061234c85828601612301565b9150509250929050565b60006020828403121561236c5761236b61202b565b5b600061237a84828501612056565b91505092915050565b6000806000806080858703121561239d5761239c61202b565b5b60006123ab87828801612056565b94505060206123bc87828801612056565b93505060406123cd87828801612056565b92505060606123de87828801612056565b91505092959194509250565b6123f381612035565b82525050565b600081519050919050565b600082825260208201905092915050565b60005b83811015612433578082015181840152602081019050612418565b83811115612442576000848401525b50505050565b6000612453826123f9565b61245d8185612404565b935061246d818560208601612415565b612476816120d3565b840191505092915050565b61248a816122d8565b82525050565b60008115159050919050565b6124a581612490565b82525050565b6000610120820190506124c1600083018c6123ea565b81810360208301526124d3818b612448565b905081810360408301526124e7818a612448565b90506124f660608301896123ea565b6125036080830188612481565b61251060a08301876123ea565b61251d60c08301866123ea565b61252a60e08301856123ea565b61253861010083018461249c565b9a9950505050505050505050565b600060208201905061255b60008301846123ea565b92915050565b6000602082840312156125775761257661202b565b5b6000612585848285016120b4565b91505092915050565b7f4f776e61626c653a2063616c6c6572206973206e6f7420746865206f776e6572600082015250565b60006125c4602083612404565b91506125cf8261258e565b602082019050919050565b600060208201905081810360008301526125f3816125b7565b9050919050565b600060408201905061260f60008301856123ea565b61261c60208301846123ea565b9392505050565b600060408201905061263860008301856122ae565b61264560208301846123ea565b9392505050565b7f4e487b7100000000000000000000000000000000000000000000000000000000600052602260045260246000fd5b6000600282049050600182168061269357607f821691505b602082108114156126a7576126a661264c565b5b50919050565b7f4f776e61626c653a206e6577206f776e657220697320746865207a65726f206160008201527f6464726573730000000000000000000000000000000000000000000000000000602082015250565b6000612709602683612404565b9150612714826126ad565b604082019050919050565b60006020820190508181036000830152612738816126fc565b9050919050565b7f5468652069642063616e6e6f7420626520656d70747900000000000000000000600082015250565b6000612775601683612404565b91506127808261273f565b602082019050919050565b600060208201905081810360008301526127a481612768565b9050919050565b7f546865207469746c652063616e6e6f7420626520656d70747900000000000000600082015250565b60006127e1601983612404565b91506127ec826127ab565b602082019050919050565b60006020820190508181036000830152612810816127d4565b9050919050565b7f546865206465736372697074696f6e2063616e6e6f7420626520656d70747900600082015250565b600061284d601f83612404565b915061285882612817565b602082019050919050565b6000602082019050818103600083015261287c81612840565b9050919050565b6000815190506128928161203f565b92915050565b6000602082840312156128ae576128ad61202b565b5b60006128bc84828501612883565b91505092915050565b7f496e73756666696369656e742062616c616e636520746f206d696e7420616e2060008201527f4e46540000000000000000000000000000000000000000000000000000000000602082015250565b6000612921602383612404565b915061292c826128c5565b604082019050919050565b6000602082019050818103600083015261295081612914565b9050919050565b7f5468652070726f64756374206d75737420657869737400000000000000000000600082015250565b600061298d601683612404565b915061299882612957565b602082019050919050565b600060208201905081810360008301526129bc81612980565b9050919050565b7f5468652070726f64756374206973206e6f7420666f722073616c650000000000600082015250565b60006129f9601b83612404565b9150612a04826129c3565b602082019050919050565b60006020820190508181036000830152612a28816129ec565b9050919050565b7f5468652070726f64756374206d75737420657869737420746f2062652070757260008201527f6368617365640000000000000000000000000000000000000000000000000000602082015250565b6000612a8b602683612404565b9150612a9682612a2f565b604082019050919050565b60006020820190508181036000830152612aba81612a7e565b9050919050565b7f5072696365206d7573742062652067726561746572207468616e203000000000600082015250565b6000612af7601c83612404565b9150612b0282612ac1565b602082019050919050565b60006020820190508181036000830152612b2681612aea565b9050919050565b7f4e487b7100000000000000000000000000000000000000000000000000000000600052601160045260246000fd5b6000612b6782612035565b9150612b7283612035565b9250827fffffffffffffffffffffffffffffffffffffffffffffffffffffffffffffffff03821115612ba757612ba6612b2d565b5b828201905092915050565b7f54686520636f6d6d6973696f6e20706c7573207468652066696e616c2070726960008201527f63652073686f756c6420626520657175616c2061732074686520746f74616c2060208201527f7072696365000000000000000000000000000000000000000000000000000000604082015250565b6000612c34604583612404565b9150612c3f82612bb2565b606082019050919050565b60006020820190508181036000830152612c6381612c27565b9050919050565b7f546869732070726f64756374206973206e6f7420666f722073616c6500000000600082015250565b6000612ca0601c83612404565b9150612cab82612c6a565b602082019050919050565b60006020820190508181036000830152612ccf81612c93565b9050919050565b7f546865206f776e6572206f6620746869732070726f647563742063616e206e6f60008201527f7420627579206974000000000000000000000000000000000000000000000000602082015250565b6000612d32602883612404565b9150612d3d82612cd6565b604082019050919050565b60006020820190508181036000830152612d6181612d25565b9050919050565b7f546865207061796d656e74206d75737420626520657175616c207468616e207460008201527f68652070726f6475637473207072696365000000000000000000000000000000602082015250565b6000612dc4603183612404565b9150612dcf82612d68565b604082019050919050565b60006020820190508181036000830152612df381612db7565b9050919050565b6000612e0582612035565b9150612e1083612035565b925082821015612e2357612e22612b2d565b5b828203905092915050565b6000819050919050565b6000612e53612e4e612e498461206b565b612e2e565b61206b565b9050919050565b6000612e6582612e38565b9050919050565b6000612e7782612e5a565b9050919050565b612e8781612e6c565b82525050565b6000606082019050612ea26000830186612e7e565b612eaf60208301856122ae565b612ebc60408301846123ea565b94935050505056fea264697066735822122095b822489824cf56db811c5f09dc0aba636890d87d0776287dcbf4cd60517ab964736f6c63430008090033",
  "linkReferences": {},
  "deployedLinkReferences": {}
}