{
  "_format": "hh-sol-artifact-1",
  "contractName": "Ecommerce",
  "sourceName": "contracts/Ecommerce.sol",
  "abi": [
    {
      "inputs": [
        {
          "internalType": "address",
          "name": "_erc721token",
          "type": "address"
        },
        {
          "internalType": "address",
          "name": "_erc20token",
          "type": "address"
        }
      ],
      "stateMutability": "nonpayable",
      "type": "constructor"
    },
    {
      "anonymous": false,
      "inputs": [
        {
          "indexed": true,
          "internalType": "address",
          "name": "previousOwner",
          "type": "address"
        },
        {
          "indexed": true,
          "internalType": "address",
          "name": "newOwner",
          "type": "address"
        }
      ],
      "name": "OwnershipTransferred",
      "type": "event"
    },
    {
      "anonymous": false,
      "inputs": [
        {
          "indexed": false,
          "internalType": "uint256",
          "name": "_id",
          "type": "uint256"
        },
        {
          "indexed": false,
          "internalType": "uint256",
          "name": "_price",
          "type": "uint256"
        }
      ],
      "name": "ProductForSale",
      "type": "event"
    },
    {
      "anonymous": false,
      "inputs": [
        {
          "indexed": false,
          "internalType": "uint256",
          "name": "_id",
          "type": "uint256"
        }
      ],
      "name": "ProductNotForSale",
      "type": "event"
    },
    {
      "anonymous": false,
      "inputs": [
        {
          "indexed": false,
          "internalType": "address",
          "name": "buyer",
          "type": "address"
        },
        {
          "indexed": false,
          "internalType": "uint256",
          "name": "_id",
          "type": "uint256"
        }
      ],
      "name": "ProductSold",
      "type": "event"
    },
    {
      "inputs": [],
      "name": "ERC20TOKEN",
      "outputs": [
        {
          "internalType": "address",
          "name": "",
          "type": "address"
        }
      ],
      "stateMutability": "view",
      "type": "function"
    },
    {
      "inputs": [],
      "name": "ERC721TOKEN",
      "outputs": [
        {
          "internalType": "address",
          "name": "",
          "type": "address"
        }
      ],
      "stateMutability": "view",
      "type": "function"
    },
    {
      "inputs": [],
      "name": "NFTMINTPRICE",
      "outputs": [
        {
          "internalType": "uint256",
          "name": "",
          "type": "uint256"
        }
      ],
      "stateMutability": "view",
      "type": "function"
    },
    {
      "inputs": [
        {
          "internalType": "uint256",
          "name": "_id",
          "type": "uint256"
        }
      ],
      "name": "buyProduct",
      "outputs": [],
      "stateMutability": "payable",
      "type": "function"
    },
    {
      "inputs": [
        {
          "internalType": "uint256",
          "name": "_id",
          "type": "uint256"
        },
        {
          "internalType": "uint256",
          "name": "_totalPrice",
          "type": "uint256"
        },
        {
          "internalType": "uint256",
          "name": "_commision",
          "type": "uint256"
        },
        {
          "internalType": "uint256",
          "name": "_finalPrice",
          "type": "uint256"
        }
      ],
      "name": "isForSale",
      "outputs": [],
      "stateMutability": "nonpayable",
      "type": "function"
    },
    {
      "inputs": [
        {
          "internalType": "uint256",
          "name": "_id",
          "type": "uint256"
        }
      ],
      "name": "notForSale",
      "outputs": [],
      "stateMutability": "nonpayable",
      "type": "function"
    },
    {
      "inputs": [],
      "name": "owner",
      "outputs": [
        {
          "internalType": "address",
          "name": "",
          "type": "address"
        }
      ],
      "stateMutability": "view",
      "type": "function"
    },
    {
      "inputs": [
        {
          "internalType": "uint256",
          "name": "",
          "type": "uint256"
        }
      ],
      "name": "productById",
      "outputs": [
        {
          "internalType": "uint256",
          "name": "id",
          "type": "uint256"
        },
        {
          "internalType": "string",
          "name": "title",
          "type": "string"
        },
        {
          "internalType": "string",
          "name": "description",
          "type": "string"
        },
        {
          "internalType": "uint256",
          "name": "date",
          "type": "uint256"
        },
        {
          "internalType": "address payable",
          "name": "owner",
          "type": "address"
        },
        {
          "internalType": "uint256",
          "name": "totalPrice",
          "type": "uint256"
        },
        {
          "internalType": "uint256",
          "name": "commision",
          "type": "uint256"
        },
        {
          "internalType": "uint256",
          "name": "finalPrice",
          "type": "uint256"
        },
        {
          "internalType": "bool",
          "name": "isForSale",
          "type": "bool"
        }
      ],
      "stateMutability": "view",
      "type": "function"
    },
    {
      "inputs": [
        {
          "internalType": "uint256",
          "name": "_id",
          "type": "uint256"
        },
        {
          "internalType": "address",
          "name": "to",
          "type": "address"
        },
        {
          "internalType": "string",
          "name": "_title",
          "type": "string"
        },
        {
          "internalType": "string",
          "name": "_description",
          "type": "string"
        }
      ],
      "name": "publishProduct",
      "outputs": [],
      "stateMutability": "nonpayable",
      "type": "function"
    },
    {
      "inputs": [
        {
          "internalType": "uint256",
          "name": "_id",
          "type": "uint256"
        },
        {
          "internalType": "address",
          "name": "to",
          "type": "address"
        },
        {
          "internalType": "string",
          "name": "_title",
          "type": "string"
        },
        {
          "internalType": "string",
          "name": "_description",
          "type": "string"
        }
      ],
      "name": "publishProductByOwner",
      "outputs": [],
      "stateMutability": "nonpayable",
      "type": "function"
    },
    {
      "inputs": [],
      "name": "renounceOwnership",
      "outputs": [],
      "stateMutability": "nonpayable",
      "type": "function"
    },
    {
      "inputs": [
        {
          "internalType": "address",
          "name": "newOwner",
          "type": "address"
        }
      ],
      "name": "transferOwnership",
      "outputs": [],
      "stateMutability": "nonpayable",
      "type": "function"
    },
    {
      "inputs": [
        {
          "internalType": "uint256",
          "name": "_amount",
          "type": "uint256"
        },
        {
          "internalType": "address payable",
          "name": "_add",
          "type": "address"
        }
      ],
      "name": "withdraw",
      "outputs": [],
      "stateMutability": "nonpayable",
      "type": "function"
    }
  ],
  "bytecode": "0x60806040523480156200001157600080fd5b5060405162002ed638038062002ed6833981810160405281019062000037919062000217565b620000576200004b620000e160201b60201c565b620000e960201b60201c565b81600260006101000a81548173ffffffffffffffffffffffffffffffffffffffff021916908373ffffffffffffffffffffffffffffffffffffffff16021790555080600360006101000a81548173ffffffffffffffffffffffffffffffffffffffff021916908373ffffffffffffffffffffffffffffffffffffffff16021790555050506200025e565b600033905090565b60008060009054906101000a900473ffffffffffffffffffffffffffffffffffffffff169050816000806101000a81548173ffffffffffffffffffffffffffffffffffffffff021916908373ffffffffffffffffffffffffffffffffffffffff1602179055508173ffffffffffffffffffffffffffffffffffffffff168173ffffffffffffffffffffffffffffffffffffffff167f8be0079c531659141344cd1fd0a4f28419497f9722a3daafe3b4186f6b6457e060405160405180910390a35050565b600080fd5b600073ffffffffffffffffffffffffffffffffffffffff82169050919050565b6000620001df82620001b2565b9050919050565b620001f181620001d2565b8114620001fd57600080fd5b50565b6000815190506200021181620001e6565b92915050565b60008060408385031215620002315762000230620001ad565b5b6000620002418582860162000200565b9250506020620002548582860162000200565b9150509250929050565b612c68806200026e6000396000f3fe6080604052600436106100c15760003560e01c80637414fca51161007f578063a30b475f11610059578063a30b475f1461021c578063d44641af14610261578063e49ef93a1461028c578063f2fde38b146102b7576100c1565b80637414fca5146101ac5780638642269e146101d55780638da5cb5b146101f1576100c1565b8062f714ce146100c657806310287360146100ef5780631d8a06f1146101185780631e4bccd3146101415780633e7d2f351461016c578063715018a614610195575b600080fd5b3480156100d257600080fd5b506100ed60048036038101906100e89190611e96565b6102e0565b005b3480156100fb57600080fd5b506101166004803603810190610111919061205a565b6103a7565b005b34801561012457600080fd5b5061013f600480360381019061013a919061205a565b610757565b005b34801561014d57600080fd5b50610156610c18565b6040516101639190612108565b60405180910390f35b34801561017857600080fd5b50610193600480360381019061018e9190612123565b610c3e565b005b3480156101a157600080fd5b506101aa610ff6565b005b3480156101b857600080fd5b506101d360048036038101906101ce9190612150565b61107e565b005b6101ef60048036038101906101ea9190612123565b61147b565b005b3480156101fd57600080fd5b506102066119a7565b6040516102139190612108565b60405180910390f35b34801561022857600080fd5b50610243600480360381019061023e9190612123565b6119d0565b60405161025899989796959493929190612278565b60405180910390f35b34801561026d57600080fd5b50610276611b5b565b6040516102839190612108565b60405180910390f35b34801561029857600080fd5b506102a1611b81565b6040516102ae9190612313565b60405180910390f35b3480156102c357600080fd5b506102de60048036038101906102d9919061232e565b611b87565b005b6102e8611c7f565b73ffffffffffffffffffffffffffffffffffffffff166103066119a7565b73ffffffffffffffffffffffffffffffffffffffff161461035c576040517f08c379a0000000000000000000000000000000000000000000000000000000008152600401610353906123a7565b60405180910390fd5b8073ffffffffffffffffffffffffffffffffffffffff166108fc839081150290604051600060405180830381858888f193505050501580156103a2573d6000803e3d6000fd5b505050565b6103af6119a7565b73ffffffffffffffffffffffffffffffffffffffff163373ffffffffffffffffffffffffffffffffffffffff161461041c576040517f08c379a000000000000000000000000000000000000000000000000000000000815260040161041390612413565b60405180910390fd5b6000841161045f576040517f08c379a00000000000000000000000000000000000000000000000000000000081526004016104569061247f565b60405180910390fd5b60008251116104a3576040517f08c379a000000000000000000000000000000000000000000000000000000000815260040161049a906124eb565b60405180910390fd5b60008151116104e7576040517f08c379a00000000000000000000000000000000000000000000000000000000081526004016104de90612557565b60405180910390fd5b60006040518061012001604052808681526020018481526020018381526020014281526020018573ffffffffffffffffffffffffffffffffffffffff1681526020016000815260200160008152602001600081526020016000151581525090508060016000878152602001908152602001600020600082015181600001556020820151816001019080519060200190610581929190611d4b565b50604082015181600201908051906020019061059e929190611d4b565b506060820151816003015560808201518160040160006101000a81548173ffffffffffffffffffffffffffffffffffffffff021916908373ffffffffffffffffffffffffffffffffffffffff16021790555060a0820151816005015560c0820151816006015560e082015181600701556101008201518160080160006101000a81548160ff021916908315150217905550905050600260009054906101000a900473ffffffffffffffffffffffffffffffffffffffff1673ffffffffffffffffffffffffffffffffffffffff166340c10f1985876040518363ffffffff1660e01b815260040161068f929190612577565b600060405180830381600087803b1580156106a957600080fd5b505af11580156106bd573d6000803e3d6000fd5b50505050600260009054906101000a900473ffffffffffffffffffffffffffffffffffffffff1673ffffffffffffffffffffffffffffffffffffffff1663095ea7b330876040518363ffffffff1660e01b815260040161071e929190612577565b600060405180830381600087803b15801561073857600080fd5b505af115801561074c573d6000803e3d6000fd5b505050505050505050565b6000841161079a576040517f08c379a00000000000000000000000000000000000000000000000000000000081526004016107919061247f565b60405180910390fd5b60008251116107de576040517f08c379a00000000000000000000000000000000000000000000000000000000081526004016107d5906124eb565b60405180910390fd5b6000815111610822576040517f08c379a000000000000000000000000000000000000000000000000000000000815260040161081990612557565b60405180910390fd5b6000600360009054906101000a900473ffffffffffffffffffffffffffffffffffffffff1673ffffffffffffffffffffffffffffffffffffffff166370a08231336040518263ffffffff1660e01b815260040161087f9190612108565b60206040518083038186803b15801561089757600080fd5b505afa1580156108ab573d6000803e3d6000fd5b505050506040513d601f19601f820116820180604052508101906108cf91906125b5565b9050600454811015610916576040517f08c379a000000000000000000000000000000000000000000000000000000000815260040161090d90612654565b60405180910390fd5b600360009054906101000a900473ffffffffffffffffffffffffffffffffffffffff1673ffffffffffffffffffffffffffffffffffffffff16639dc29fac336004546040518363ffffffff1660e01b8152600401610975929190612577565b600060405180830381600087803b15801561098f57600080fd5b505af11580156109a3573d6000803e3d6000fd5b5050505060006040518061012001604052808781526020018581526020018481526020014281526020018673ffffffffffffffffffffffffffffffffffffffff1681526020016000815260200160008152602001600081526020016000151581525090508060016000888152602001908152602001600020600082015181600001556020820151816001019080519060200190610a41929190611d4b565b506040820151816002019080519060200190610a5e929190611d4b565b506060820151816003015560808201518160040160006101000a81548173ffffffffffffffffffffffffffffffffffffffff021916908373ffffffffffffffffffffffffffffffffffffffff16021790555060a0820151816005015560c0820151816006015560e082015181600701556101008201518160080160006101000a81548160ff021916908315150217905550905050600260009054906101000a900473ffffffffffffffffffffffffffffffffffffffff1673ffffffffffffffffffffffffffffffffffffffff166340c10f1986886040518363ffffffff1660e01b8152600401610b4f929190612577565b600060405180830381600087803b158015610b6957600080fd5b505af1158015610b7d573d6000803e3d6000fd5b50505050600260009054906101000a900473ffffffffffffffffffffffffffffffffffffffff1673ffffffffffffffffffffffffffffffffffffffff1663095ea7b330886040518363ffffffff1660e01b8152600401610bde929190612577565b600060405180830381600087803b158015610bf857600080fd5b505af1158015610c0c573d6000803e3d6000fd5b50505050505050505050565b600260009054906101000a900473ffffffffffffffffffffffffffffffffffffffff1681565b610c46611c7f565b73ffffffffffffffffffffffffffffffffffffffff16610c646119a7565b73ffffffffffffffffffffffffffffffffffffffff1614610cba576040517f08c379a0000000000000000000000000000000000000000000000000000000008152600401610cb1906123a7565b60405180910390fd5b6000600160008381526020019081526020016000206040518061012001604052908160008201548152602001600182018054610cf5906126a3565b80601f0160208091040260200160405190810160405280929190818152602001828054610d21906126a3565b8015610d6e5780601f10610d4357610100808354040283529160200191610d6e565b820191906000526020600020905b815481529060010190602001808311610d5157829003601f168201915b50505050508152602001600282018054610d87906126a3565b80601f0160208091040260200160405190810160405280929190818152602001828054610db3906126a3565b8015610e005780601f10610dd557610100808354040283529160200191610e00565b820191906000526020600020905b815481529060010190602001808311610de357829003601f168201915b50505050508152602001600382015481526020016004820160009054906101000a900473ffffffffffffffffffffffffffffffffffffffff1673ffffffffffffffffffffffffffffffffffffffff1673ffffffffffffffffffffffffffffffffffffffff1681526020016005820154815260200160068201548152602001600782015481526020016008820160009054906101000a900460ff1615151515815250509050600081602001515111610eec576040517f08c379a0000000000000000000000000000000000000000000000000000000008152600401610ee390612721565b60405180910390fd5b60011515816101000151151514610f38576040517f08c379a0000000000000000000000000000000000000000000000000000000008152600401610f2f9061278d565b60405180910390fd5b60006001600084815260200190815260200160002060080160006101000a81548160ff0219169083151502179055506000600160008481526020019081526020016000206005018190555060006001600084815260200190815260200160002060060181905550600060016000848152602001908152602001600020600701819055507f0e50db0235a1d9e14493902963cd49a4c7c80fefe45001da7f939d36137e950182604051610fea9190612313565b60405180910390a15050565b610ffe611c7f565b73ffffffffffffffffffffffffffffffffffffffff1661101c6119a7565b73ffffffffffffffffffffffffffffffffffffffff1614611072576040517f08c379a0000000000000000000000000000000000000000000000000000000008152600401611069906123a7565b60405180910390fd5b61107c6000611c87565b565b611086611c7f565b73ffffffffffffffffffffffffffffffffffffffff166110a46119a7565b73ffffffffffffffffffffffffffffffffffffffff16146110fa576040517f08c379a00000000000000000000000000000000000000000000000000000000081526004016110f1906123a7565b60405180910390fd5b6000600160008681526020019081526020016000206040518061012001604052908160008201548152602001600182018054611135906126a3565b80601f0160208091040260200160405190810160405280929190818152602001828054611161906126a3565b80156111ae5780601f10611183576101008083540402835291602001916111ae565b820191906000526020600020905b81548152906001019060200180831161119157829003601f168201915b505050505081526020016002820180546111c7906126a3565b80601f01602080910402602001604051908101604052809291908181526020018280546111f3906126a3565b80156112405780601f1061121557610100808354040283529160200191611240565b820191906000526020600020905b81548152906001019060200180831161122357829003601f168201915b50505050508152602001600382015481526020016004820160009054906101000a900473ffffffffffffffffffffffffffffffffffffffff1673ffffffffffffffffffffffffffffffffffffffff1673ffffffffffffffffffffffffffffffffffffffff1681526020016005820154815260200160068201548152602001600782015481526020016008820160009054906101000a900460ff161515151581525050905060008160200151511161132c576040517f08c379a00000000000000000000000000000000000000000000000000000000081526004016113239061281f565b60405180910390fd5b6000841161136f576040517f08c379a00000000000000000000000000000000000000000000000000000000081526004016113669061288b565b60405180910390fd5b818361137b91906128da565b84146113bc576040517f08c379a00000000000000000000000000000000000000000000000000000000081526004016113b3906129c8565b60405180910390fd5b600180600087815260200190815260200160002060080160006101000a81548160ff0219169083151502179055508360016000878152602001908152602001600020600501819055508260016000878152602001908152602001600020600601819055508160016000878152602001908152602001600020600701819055507fc3eb1b6e5a24b4199477283308be14b84e8cd3774f2d107efe98f33751a73171858560405161146c9291906129e8565b60405180910390a15050505050565b60006001600083815260200190815260200160002060405180610120016040529081600082015481526020016001820180546114b6906126a3565b80601f01602080910402602001604051908101604052809291908181526020018280546114e2906126a3565b801561152f5780601f106115045761010080835404028352916020019161152f565b820191906000526020600020905b81548152906001019060200180831161151257829003601f168201915b50505050508152602001600282018054611548906126a3565b80601f0160208091040260200160405190810160405280929190818152602001828054611574906126a3565b80156115c15780601f10611596576101008083540402835291602001916115c1565b820191906000526020600020905b8154815290600101906020018083116115a457829003601f168201915b50505050508152602001600382015481526020016004820160009054906101000a900473ffffffffffffffffffffffffffffffffffffffff1673ffffffffffffffffffffffffffffffffffffffff1673ffffffffffffffffffffffffffffffffffffffff1681526020016005820154815260200160068201548152602001600782015481526020016008820160009054906101000a900460ff16151515158152505090506000816080015190506000826020015151116116b6576040517f08c379a00000000000000000000000000000000000000000000000000000000081526004016116ad9061281f565b60405180910390fd5b3373ffffffffffffffffffffffffffffffffffffffff168173ffffffffffffffffffffffffffffffffffffffff161415611725576040517f08c379a000000000000000000000000000000000000000000000000000000000815260040161171c90612a83565b60405180910390fd5b8160a00151341461176b576040517f08c379a000000000000000000000000000000000000000000000000000000000815260040161176290612b15565b60405180910390fd5b816080015173ffffffffffffffffffffffffffffffffffffffff166108fc8360c00151346117999190612b35565b9081150290604051600060405180830381858888f193505050501580156117c4573d6000803e3d6000fd5b50600260009054906101000a900473ffffffffffffffffffffffffffffffffffffffff1673ffffffffffffffffffffffffffffffffffffffff166323b872dd8233866040518463ffffffff1660e01b815260040161182493929190612b69565b600060405180830381600087803b15801561183e57600080fd5b505af1158015611852573d6000803e3d6000fd5b50505050600260009054906101000a900473ffffffffffffffffffffffffffffffffffffffff1673ffffffffffffffffffffffffffffffffffffffff1663095ea7b330856040518363ffffffff1660e01b81526004016118b3929190612577565b600060405180830381600087803b1580156118cd57600080fd5b505af11580156118e1573d6000803e3d6000fd5b5050505060006001600085815260200190815260200160002060080160006101000a81548160ff021916908315150217905550336001600085815260200190815260200160002060040160006101000a81548173ffffffffffffffffffffffffffffffffffffffff021916908373ffffffffffffffffffffffffffffffffffffffff1602179055507f735ccf73d81a69b66f62bb12f457649d7d07e4980209201e2319aabd61adf0ee338460405161199a929190612577565b60405180910390a1505050565b60008060009054906101000a900473ffffffffffffffffffffffffffffffffffffffff16905090565b60016020528060005260406000206000915090508060000154908060010180546119f9906126a3565b80601f0160208091040260200160405190810160405280929190818152602001828054611a25906126a3565b8015611a725780601f10611a4757610100808354040283529160200191611a72565b820191906000526020600020905b815481529060010190602001808311611a5557829003601f168201915b505050505090806002018054611a87906126a3565b80601f0160208091040260200160405190810160405280929190818152602001828054611ab3906126a3565b8015611b005780601f10611ad557610100808354040283529160200191611b00565b820191906000526020600020905b815481529060010190602001808311611ae357829003601f168201915b5050505050908060030154908060040160009054906101000a900473ffffffffffffffffffffffffffffffffffffffff16908060050154908060060154908060070154908060080160009054906101000a900460ff16905089565b600360009054906101000a900473ffffffffffffffffffffffffffffffffffffffff1681565b60045481565b611b8f611c7f565b73ffffffffffffffffffffffffffffffffffffffff16611bad6119a7565b73ffffffffffffffffffffffffffffffffffffffff1614611c03576040517f08c379a0000000000000000000000000000000000000000000000000000000008152600401611bfa906123a7565b60405180910390fd5b600073ffffffffffffffffffffffffffffffffffffffff168173ffffffffffffffffffffffffffffffffffffffff161415611c73576040517f08c379a0000000000000000000000000000000000000000000000000000000008152600401611c6a90612c12565b60405180910390fd5b611c7c81611c87565b50565b600033905090565b60008060009054906101000a900473ffffffffffffffffffffffffffffffffffffffff169050816000806101000a81548173ffffffffffffffffffffffffffffffffffffffff021916908373ffffffffffffffffffffffffffffffffffffffff1602179055508173ffffffffffffffffffffffffffffffffffffffff168173ffffffffffffffffffffffffffffffffffffffff167f8be0079c531659141344cd1fd0a4f28419497f9722a3daafe3b4186f6b6457e060405160405180910390a35050565b828054611d57906126a3565b90600052602060002090601f016020900481019282611d795760008555611dc0565b82601f10611d9257805160ff1916838001178555611dc0565b82800160010185558215611dc0579182015b82811115611dbf578251825591602001919060010190611da4565b5b509050611dcd9190611dd1565b5090565b5b80821115611dea576000816000905550600101611dd2565b5090565b6000604051905090565b600080fd5b600080fd5b6000819050919050565b611e1581611e02565b8114611e2057600080fd5b50565b600081359050611e3281611e0c565b92915050565b600073ffffffffffffffffffffffffffffffffffffffff82169050919050565b6000611e6382611e38565b9050919050565b611e7381611e58565b8114611e7e57600080fd5b50565b600081359050611e9081611e6a565b92915050565b60008060408385031215611ead57611eac611df8565b5b6000611ebb85828601611e23565b9250506020611ecc85828601611e81565b9150509250929050565b6000611ee182611e38565b9050919050565b611ef181611ed6565b8114611efc57600080fd5b50565b600081359050611f0e81611ee8565b92915050565b600080fd5b600080fd5b6000601f19601f8301169050919050565b7f4e487b7100000000000000000000000000000000000000000000000000000000600052604160045260246000fd5b611f6782611f1e565b810181811067ffffffffffffffff82111715611f8657611f85611f2f565b5b80604052505050565b6000611f99611dee565b9050611fa58282611f5e565b919050565b600067ffffffffffffffff821115611fc557611fc4611f2f565b5b611fce82611f1e565b9050602081019050919050565b82818337600083830152505050565b6000611ffd611ff884611faa565b611f8f565b90508281526020810184848401111561201957612018611f19565b5b612024848285611fdb565b509392505050565b600082601f83011261204157612040611f14565b5b8135612051848260208601611fea565b91505092915050565b6000806000806080858703121561207457612073611df8565b5b600061208287828801611e23565b945050602061209387828801611eff565b935050604085013567ffffffffffffffff8111156120b4576120b3611dfd565b5b6120c08782880161202c565b925050606085013567ffffffffffffffff8111156120e1576120e0611dfd565b5b6120ed8782880161202c565b91505092959194509250565b61210281611ed6565b82525050565b600060208201905061211d60008301846120f9565b92915050565b60006020828403121561213957612138611df8565b5b600061214784828501611e23565b91505092915050565b6000806000806080858703121561216a57612169611df8565b5b600061217887828801611e23565b945050602061218987828801611e23565b935050604061219a87828801611e23565b92505060606121ab87828801611e23565b91505092959194509250565b6121c081611e02565b82525050565b600081519050919050565b600082825260208201905092915050565b60005b838110156122005780820151818401526020810190506121e5565b8381111561220f576000848401525b50505050565b6000612220826121c6565b61222a81856121d1565b935061223a8185602086016121e2565b61224381611f1e565b840191505092915050565b61225781611e58565b82525050565b60008115159050919050565b6122728161225d565b82525050565b60006101208201905061228e600083018c6121b7565b81810360208301526122a0818b612215565b905081810360408301526122b4818a612215565b90506122c360608301896121b7565b6122d0608083018861224e565b6122dd60a08301876121b7565b6122ea60c08301866121b7565b6122f760e08301856121b7565b612305610100830184612269565b9a9950505050505050505050565b600060208201905061232860008301846121b7565b92915050565b60006020828403121561234457612343611df8565b5b600061235284828501611eff565b91505092915050565b7f4f776e61626c653a2063616c6c6572206973206e6f7420746865206f776e6572600082015250565b60006123916020836121d1565b915061239c8261235b565b602082019050919050565b600060208201905081810360008301526123c081612384565b9050919050565b7f4f6e6c79206f776e65722063616e207075626c69736800000000000000000000600082015250565b60006123fd6016836121d1565b9150612408826123c7565b602082019050919050565b6000602082019050818103600083015261242c816123f0565b9050919050565b7f5468652069642063616e6e6f7420626520656d70747900000000000000000000600082015250565b60006124696016836121d1565b915061247482612433565b602082019050919050565b600060208201905081810360008301526124988161245c565b9050919050565b7f546865207469746c652063616e6e6f7420626520656d70747900000000000000600082015250565b60006124d56019836121d1565b91506124e08261249f565b602082019050919050565b60006020820190508181036000830152612504816124c8565b9050919050565b7f546865206465736372697074696f6e2063616e6e6f7420626520656d70747900600082015250565b6000612541601f836121d1565b915061254c8261250b565b602082019050919050565b6000602082019050818103600083015261257081612534565b9050919050565b600060408201905061258c60008301856120f9565b61259960208301846121b7565b9392505050565b6000815190506125af81611e0c565b92915050565b6000602082840312156125cb576125ca611df8565b5b60006125d9848285016125a0565b91505092915050565b7f496e73756666696369656e742062616c616e636520746f206d696e7420616e2060008201527f4e46540000000000000000000000000000000000000000000000000000000000602082015250565b600061263e6023836121d1565b9150612649826125e2565b604082019050919050565b6000602082019050818103600083015261266d81612631565b9050919050565b7f4e487b7100000000000000000000000000000000000000000000000000000000600052602260045260246000fd5b600060028204905060018216806126bb57607f821691505b602082108114156126cf576126ce612674565b5b50919050565b7f5468652070726f64756374206d75737420657869737400000000000000000000600082015250565b600061270b6016836121d1565b9150612716826126d5565b602082019050919050565b6000602082019050818103600083015261273a816126fe565b9050919050565b7f5468652070726f64756374206973206e6f7420666f722073616c650000000000600082015250565b6000612777601b836121d1565b915061278282612741565b602082019050919050565b600060208201905081810360008301526127a68161276a565b9050919050565b7f5468652070726f64756374206d75737420657869737420746f2062652070757260008201527f6368617365640000000000000000000000000000000000000000000000000000602082015250565b60006128096026836121d1565b9150612814826127ad565b604082019050919050565b60006020820190508181036000830152612838816127fc565b9050919050565b7f5072696365206d7573742062652067726561746572207468616e203000000000600082015250565b6000612875601c836121d1565b91506128808261283f565b602082019050919050565b600060208201905081810360008301526128a481612868565b9050919050565b7f4e487b7100000000000000000000000000000000000000000000000000000000600052601160045260246000fd5b60006128e582611e02565b91506128f083611e02565b9250827fffffffffffffffffffffffffffffffffffffffffffffffffffffffffffffffff03821115612925576129246128ab565b5b828201905092915050565b7f54686520636f6d6d6973696f6e20706c7573207468652066696e616c2070726960008201527f63652073686f756c6420626520657175616c206173207468652066696e616c2060208201527f7072696365000000000000000000000000000000000000000000000000000000604082015250565b60006129b26045836121d1565b91506129bd82612930565b606082019050919050565b600060208201905081810360008301526129e1816129a5565b9050919050565b60006040820190506129fd60008301856121b7565b612a0a60208301846121b7565b9392505050565b7f546865206f776e6572206f6620746869732070726f647563742063616e206e6f60008201527f7420627579206974000000000000000000000000000000000000000000000000602082015250565b6000612a6d6028836121d1565b9150612a7882612a11565b604082019050919050565b60006020820190508181036000830152612a9c81612a60565b9050919050565b7f546865207061796d656e74206d75737420626520657175616c207468616e207460008201527f68652070726f6475637473207072696365000000000000000000000000000000602082015250565b6000612aff6031836121d1565b9150612b0a82612aa3565b604082019050919050565b60006020820190508181036000830152612b2e81612af2565b9050919050565b6000612b4082611e02565b9150612b4b83611e02565b925082821015612b5e57612b5d6128ab565b5b828203905092915050565b6000606082019050612b7e60008301866120f9565b612b8b60208301856120f9565b612b9860408301846121b7565b949350505050565b7f4f776e61626c653a206e6577206f776e657220697320746865207a65726f206160008201527f6464726573730000000000000000000000000000000000000000000000000000602082015250565b6000612bfc6026836121d1565b9150612c0782612ba0565b604082019050919050565b60006020820190508181036000830152612c2b81612bef565b905091905056fea2646970667358221220642e2c7e70e79ef821794d386a7550c1392bd663e37a1e19f0c93b2e73cbbbb764736f6c63430008090033",
  "linkReferences": {},
  "deployedLinkReferences": {}
}