{
  "_format": "hh-sol-artifact-1",
  "contractName": "FlexiCoinSale",
  "sourceName": "contracts/FlexiCoinSale.sol",
  "abi": [
    {
      "inputs": [
        {
          "internalType": "uint256",
          "name": "_rate",
          "type": "uint256"
        },
        {
          "internalType": "address payable",
          "name": "_wallet",
          "type": "address"
        },
        {
          "internalType": "contract IERC20",
          "name": "_token",
          "type": "address"
        },
        {
          "internalType": "contract KycContract",
          "name": "_kyc",
          "type": "address"
        }
      ],
      "stateMutability": "nonpayable",
      "type": "constructor"
    },
    {
      "anonymous": false,
      "inputs": [
        {
          "indexed": true,
          "internalType": "address",
          "name": "_to",
          "type": "address"
        },
        {
          "indexed": false,
          "internalType": "uint256",
          "name": "_amount",
          "type": "uint256"
        }
      ],
      "name": "Mint",
      "type": "event"
    },
    {
      "anonymous": false,
      "inputs": [],
      "name": "MintFinished",
      "type": "event"
    },
    {
      "anonymous": false,
      "inputs": [
        {
          "indexed": true,
          "internalType": "address",
          "name": "purchaser",
          "type": "address"
        },
        {
          "indexed": true,
          "internalType": "address",
          "name": "beneficiary",
          "type": "address"
        },
        {
          "indexed": false,
          "internalType": "uint256",
          "name": "value",
          "type": "uint256"
        },
        {
          "indexed": false,
          "internalType": "uint256",
          "name": "amount",
          "type": "uint256"
        }
      ],
      "name": "TokensPurchased",
      "type": "event"
    },
    {
      "inputs": [
        {
          "internalType": "address",
          "name": "beneficiary",
          "type": "address"
        }
      ],
      "name": "buyTokens",
      "outputs": [],
      "stateMutability": "payable",
      "type": "function"
    },
    {
      "inputs": [
        {
          "internalType": "address",
          "name": "",
          "type": "address"
        }
      ],
      "name": "contributions",
      "outputs": [
        {
          "internalType": "uint256",
          "name": "",
          "type": "uint256"
        }
      ],
      "stateMutability": "view",
      "type": "function"
    },
    {
      "inputs": [],
      "name": "investorMaxCap",
      "outputs": [
        {
          "internalType": "uint256",
          "name": "",
          "type": "uint256"
        }
      ],
      "stateMutability": "view",
      "type": "function"
    },
    {
      "inputs": [],
      "name": "investorMinCap",
      "outputs": [
        {
          "internalType": "uint256",
          "name": "",
          "type": "uint256"
        }
      ],
      "stateMutability": "view",
      "type": "function"
    },
    {
      "inputs": [],
      "name": "mintingFinished",
      "outputs": [
        {
          "internalType": "bool",
          "name": "",
          "type": "bool"
        }
      ],
      "stateMutability": "view",
      "type": "function"
    },
    {
      "inputs": [],
      "name": "rate",
      "outputs": [
        {
          "internalType": "uint256",
          "name": "",
          "type": "uint256"
        }
      ],
      "stateMutability": "view",
      "type": "function"
    },
    {
      "inputs": [],
      "name": "token",
      "outputs": [
        {
          "internalType": "contract IERC20",
          "name": "",
          "type": "address"
        }
      ],
      "stateMutability": "view",
      "type": "function"
    },
    {
      "inputs": [],
      "name": "wallet",
      "outputs": [
        {
          "internalType": "address payable",
          "name": "",
          "type": "address"
        }
      ],
      "stateMutability": "view",
      "type": "function"
    },
    {
      "inputs": [],
      "name": "weiRaised",
      "outputs": [
        {
          "internalType": "uint256",
          "name": "",
          "type": "uint256"
        }
      ],
      "stateMutability": "view",
      "type": "function"
    },
    {
      "stateMutability": "payable",
      "type": "receive"
    }
  ],
  "bytecode": "0x608060405266071afd498d00006005556802b5e3af16b18800006006556000600860006101000a81548160ff0219169083151502179055503480156200004457600080fd5b50604051620014ee380380620014ee83398181016040528101906200006a9190620003bb565b838383600160008190555060008311620000bb576040517f08c379a0000000000000000000000000000000000000000000000000000000008152600401620000b2906200048e565b60405180910390fd5b600073ffffffffffffffffffffffffffffffffffffffff168273ffffffffffffffffffffffffffffffffffffffff1614156200012e576040517f08c379a0000000000000000000000000000000000000000000000000000000008152600401620001259062000526565b60405180910390fd5b600073ffffffffffffffffffffffffffffffffffffffff168173ffffffffffffffffffffffffffffffffffffffff161415620001a1576040517f08c379a00000000000000000000000000000000000000000000000000000000081526004016200019890620005be565b60405180910390fd5b8260038190555081600260006101000a81548173ffffffffffffffffffffffffffffffffffffffff021916908373ffffffffffffffffffffffffffffffffffffffff16021790555080600160006101000a81548173ffffffffffffffffffffffffffffffffffffffff021916908373ffffffffffffffffffffffffffffffffffffffff16021790555050505080600860016101000a81548173ffffffffffffffffffffffffffffffffffffffff021916908373ffffffffffffffffffffffffffffffffffffffff16021790555050505050620005e0565b600080fd5b6000819050919050565b62000292816200027d565b81146200029e57600080fd5b50565b600081519050620002b28162000287565b92915050565b600073ffffffffffffffffffffffffffffffffffffffff82169050919050565b6000620002e582620002b8565b9050919050565b620002f781620002d8565b81146200030357600080fd5b50565b6000815190506200031781620002ec565b92915050565b60006200032a82620002b8565b9050919050565b60006200033e826200031d565b9050919050565b620003508162000331565b81146200035c57600080fd5b50565b600081519050620003708162000345565b92915050565b600062000383826200031d565b9050919050565b620003958162000376565b8114620003a157600080fd5b50565b600081519050620003b5816200038a565b92915050565b60008060008060808587031215620003d857620003d762000278565b5b6000620003e887828801620002a1565b9450506020620003fb8782880162000306565b93505060406200040e878288016200035f565b92505060606200042187828801620003a4565b91505092959194509250565b600082825260208201905092915050565b7f43726f776473616c653a20726174652069732030000000000000000000000000600082015250565b6000620004766014836200042d565b915062000483826200043e565b602082019050919050565b60006020820190508181036000830152620004a98162000467565b9050919050565b7f43726f776473616c653a2077616c6c657420697320746865207a65726f20616460008201527f6472657373000000000000000000000000000000000000000000000000000000602082015250565b60006200050e6025836200042d565b91506200051b82620004b0565b604082019050919050565b600060208201905081810360008301526200054181620004ff565b9050919050565b7f43726f776473616c653a20746f6b656e20697320746865207a65726f2061646460008201527f7265737300000000000000000000000000000000000000000000000000000000602082015250565b6000620005a66024836200042d565b9150620005b38262000548565b604082019050919050565b60006020820190508181036000830152620005d98162000597565b9050919050565b610efe80620005f06000396000f3fe60806040526004361061008a5760003560e01c8063521eb27311610059578063521eb273146101645780639250c3671461018f578063b25d7f54146101ba578063ec8ac4d8146101e5578063fc0c546a14610201576100a1565b806305d2035b146100a65780632c4e722e146100d15780634042b66f146100fc57806342e94c9014610127576100a1565b366100a15761009f61009a61022c565b610234565b005b600080fd5b3480156100b257600080fd5b506100bb61035a565b6040516100c891906108c0565b60405180910390f35b3480156100dd57600080fd5b506100e661036d565b6040516100f391906108f4565b60405180910390f35b34801561010857600080fd5b50610111610377565b60405161011e91906108f4565b60405180910390f35b34801561013357600080fd5b5061014e60048036038101906101499190610972565b610381565b60405161015b91906108f4565b60405180910390f35b34801561017057600080fd5b50610179610399565b60405161018691906109c0565b60405180910390f35b34801561019b57600080fd5b506101a46103c3565b6040516101b191906108f4565b60405180910390f35b3480156101c657600080fd5b506101cf6103c9565b6040516101dc91906108f4565b60405180910390f35b6101ff60048036038101906101fa9190610972565b610234565b005b34801561020d57600080fd5b506102166103cf565b6040516102239190610a3a565b60405180910390f35b600033905090565b6002600054141561027a576040517f08c379a000000000000000000000000000000000000000000000000000000000815260040161027190610ab2565b60405180910390fd5b6002600081905550600034905061029182826103f9565b600061029c826105a3565b90506102b3826004546105c190919063ffffffff16565b6004819055506102c383826105d7565b8273ffffffffffffffffffffffffffffffffffffffff166102e261022c565b73ffffffffffffffffffffffffffffffffffffffff167f6faf93231a456e552dbc9961f58d9713ee4f2e69d15f1975b050ef0911053a7b8484604051610329929190610ad2565b60405180910390a361033b83836105e5565b61034361068d565b61034d83836106f8565b5050600160008190555050565b600860009054906101000a900460ff1681565b6000600354905090565b6000600454905090565b60076020528060005260406000206000915090505481565b6000600260009054906101000a900473ffffffffffffffffffffffffffffffffffffffff16905090565b60065481565b60055481565b6000600160009054906101000a900473ffffffffffffffffffffffffffffffffffffffff16905090565b8160011515600860019054906101000a900473ffffffffffffffffffffffffffffffffffffffff1673ffffffffffffffffffffffffffffffffffffffff1663df235fe4836040518263ffffffff1660e01b81526004016104599190610b0a565b60206040518083038186803b15801561047157600080fd5b505afa158015610485573d6000803e3d6000fd5b505050506040513d601f19601f820116820180604052508101906104a99190610b51565b1515146104eb576040517f08c379a00000000000000000000000000000000000000000000000000000000081526004016104e290610bca565b60405180910390fd5b6104f583836106fc565b6000600760008573ffffffffffffffffffffffffffffffffffffffff1673ffffffffffffffffffffffffffffffffffffffff168152602001908152602001600020549050600083826105479190610c19565b9050600554811015801561055d57506006548111155b61059c576040517f08c379a000000000000000000000000000000000000000000000000000000000815260040161059390610cbb565b60405180910390fd5b5050505050565b60006105ba600354836107b490919063ffffffff16565b9050919050565b600081836105cf9190610c19565b905092915050565b6105e182826107ca565b5050565b6105ef82826108a1565b6000600760008473ffffffffffffffffffffffffffffffffffffffff1673ffffffffffffffffffffffffffffffffffffffff168152602001908152602001600020549050600082826106419190610c19565b905080600760008673ffffffffffffffffffffffffffffffffffffffff1673ffffffffffffffffffffffffffffffffffffffff1681526020019081526020016000208190555050505050565b600260009054906101000a900473ffffffffffffffffffffffffffffffffffffffff1673ffffffffffffffffffffffffffffffffffffffff166108fc349081150290604051600060405180830381858888f193505050501580156106f5573d6000803e3d6000fd5b50565b5050565b600073ffffffffffffffffffffffffffffffffffffffff168273ffffffffffffffffffffffffffffffffffffffff16141561076c576040517f08c379a000000000000000000000000000000000000000000000000000000000815260040161076390610d4d565b60405180910390fd5b60008114156107b0576040517f08c379a00000000000000000000000000000000000000000000000000000000081526004016107a790610db9565b60405180910390fd5b5050565b600081836107c29190610dd9565b905092915050565b6107d26103cf565b73ffffffffffffffffffffffffffffffffffffffff166340c10f1983836040518363ffffffff1660e01b815260040161080c929190610e33565b602060405180830381600087803b15801561082657600080fd5b505af115801561083a573d6000803e3d6000fd5b505050506040513d601f19601f8201168201806040525081019061085e9190610b51565b61089d576040517f08c379a000000000000000000000000000000000000000000000000000000000815260040161089490610ea8565b60405180910390fd5b5050565b5050565b60008115159050919050565b6108ba816108a5565b82525050565b60006020820190506108d560008301846108b1565b92915050565b6000819050919050565b6108ee816108db565b82525050565b600060208201905061090960008301846108e5565b92915050565b600080fd5b600073ffffffffffffffffffffffffffffffffffffffff82169050919050565b600061093f82610914565b9050919050565b61094f81610934565b811461095a57600080fd5b50565b60008135905061096c81610946565b92915050565b6000602082840312156109885761098761090f565b5b60006109968482850161095d565b91505092915050565b60006109aa82610914565b9050919050565b6109ba8161099f565b82525050565b60006020820190506109d560008301846109b1565b92915050565b6000819050919050565b6000610a006109fb6109f684610914565b6109db565b610914565b9050919050565b6000610a12826109e5565b9050919050565b6000610a2482610a07565b9050919050565b610a3481610a19565b82525050565b6000602082019050610a4f6000830184610a2b565b92915050565b600082825260208201905092915050565b7f5265656e7472616e637947756172643a207265656e7472616e742063616c6c00600082015250565b6000610a9c601f83610a55565b9150610aa782610a66565b602082019050919050565b60006020820190508181036000830152610acb81610a8f565b9050919050565b6000604082019050610ae760008301856108e5565b610af460208301846108e5565b9392505050565b610b0481610934565b82525050565b6000602082019050610b1f6000830184610afb565b92915050565b610b2e816108a5565b8114610b3957600080fd5b50565b600081519050610b4b81610b25565b92915050565b600060208284031215610b6757610b6661090f565b5b6000610b7584828501610b3c565b91505092915050565b7f4f70657261746f72206e6f74207768697465206c697374656400000000000000600082015250565b6000610bb4601983610a55565b9150610bbf82610b7e565b602082019050919050565b60006020820190508181036000830152610be381610ba7565b9050919050565b7f4e487b7100000000000000000000000000000000000000000000000000000000600052601160045260246000fd5b6000610c24826108db565b9150610c2f836108db565b9250827fffffffffffffffffffffffffffffffffffffffffffffffffffffffffffffffff03821115610c6457610c63610bea565b5b828201905092915050565b7f496e766573746f7220636170206f7574206f6620626f756e6461726965730000600082015250565b6000610ca5601e83610a55565b9150610cb082610c6f565b602082019050919050565b60006020820190508181036000830152610cd481610c98565b9050919050565b7f43726f776473616c653a2062656e656669636961727920697320746865207a6560008201527f726f206164647265737300000000000000000000000000000000000000000000602082015250565b6000610d37602a83610a55565b9150610d4282610cdb565b604082019050919050565b60006020820190508181036000830152610d6681610d2a565b9050919050565b7f43726f776473616c653a20776569416d6f756e74206973203000000000000000600082015250565b6000610da3601983610a55565b9150610dae82610d6d565b602082019050919050565b60006020820190508181036000830152610dd281610d96565b9050919050565b6000610de4826108db565b9150610def836108db565b9250817fffffffffffffffffffffffffffffffffffffffffffffffffffffffffffffffff0483118215151615610e2857610e27610bea565b5b828202905092915050565b6000604082019050610e486000830185610afb565b610e5560208301846108e5565b9392505050565b7f4d696e74656443726f776473616c653a206d696e74696e67206661696c656400600082015250565b6000610e92601f83610a55565b9150610e9d82610e5c565b602082019050919050565b60006020820190508181036000830152610ec181610e85565b905091905056fea2646970667358221220f36ecd7311f1955bef35b59f50974757daf1917167197873f37b3a8d9c658b4964736f6c63430008090033",
  "linkReferences": {},
  "deployedLinkReferences": {}
}