{
  "_format": "hh-sol-artifact-1",
  "contractName": "FlexiCoinSale",
  "sourceName": "contracts/FlexiCoinSale.sol",
  "abi": [
    {
      "inputs": [
        {
          "internalType": "uint256",
          "name": "_rate",
          "type": "uint256"
        },
        {
          "internalType": "address payable",
          "name": "_wallet",
          "type": "address"
        },
        {
          "internalType": "contract IERC20",
          "name": "_token",
          "type": "address"
        }
      ],
      "stateMutability": "nonpayable",
      "type": "constructor"
    },
    {
      "anonymous": false,
      "inputs": [
        {
          "indexed": true,
          "internalType": "address",
          "name": "_to",
          "type": "address"
        },
        {
          "indexed": false,
          "internalType": "uint256",
          "name": "_amount",
          "type": "uint256"
        }
      ],
      "name": "Mint",
      "type": "event"
    },
    {
      "anonymous": false,
      "inputs": [],
      "name": "MintFinished",
      "type": "event"
    },
    {
      "anonymous": false,
      "inputs": [
        {
          "indexed": true,
          "internalType": "address",
          "name": "purchaser",
          "type": "address"
        },
        {
          "indexed": true,
          "internalType": "address",
          "name": "beneficiary",
          "type": "address"
        },
        {
          "indexed": false,
          "internalType": "uint256",
          "name": "value",
          "type": "uint256"
        },
        {
          "indexed": false,
          "internalType": "uint256",
          "name": "amount",
          "type": "uint256"
        }
      ],
      "name": "TokensPurchased",
      "type": "event"
    },
    {
      "inputs": [
        {
          "internalType": "address",
          "name": "beneficiary",
          "type": "address"
        }
      ],
      "name": "buyTokens",
      "outputs": [],
      "stateMutability": "payable",
      "type": "function"
    },
    {
      "inputs": [
        {
          "internalType": "address",
          "name": "",
          "type": "address"
        }
      ],
      "name": "contributions",
      "outputs": [
        {
          "internalType": "uint256",
          "name": "",
          "type": "uint256"
        }
      ],
      "stateMutability": "view",
      "type": "function"
    },
    {
      "inputs": [],
      "name": "investorMaxCap",
      "outputs": [
        {
          "internalType": "uint256",
          "name": "",
          "type": "uint256"
        }
      ],
      "stateMutability": "view",
      "type": "function"
    },
    {
      "inputs": [],
      "name": "investorMinCap",
      "outputs": [
        {
          "internalType": "uint256",
          "name": "",
          "type": "uint256"
        }
      ],
      "stateMutability": "view",
      "type": "function"
    },
    {
      "inputs": [],
      "name": "mintingFinished",
      "outputs": [
        {
          "internalType": "bool",
          "name": "",
          "type": "bool"
        }
      ],
      "stateMutability": "view",
      "type": "function"
    },
    {
      "inputs": [],
      "name": "rate",
      "outputs": [
        {
          "internalType": "uint256",
          "name": "",
          "type": "uint256"
        }
      ],
      "stateMutability": "view",
      "type": "function"
    },
    {
      "inputs": [],
      "name": "token",
      "outputs": [
        {
          "internalType": "contract IERC20",
          "name": "",
          "type": "address"
        }
      ],
      "stateMutability": "view",
      "type": "function"
    },
    {
      "inputs": [],
      "name": "wallet",
      "outputs": [
        {
          "internalType": "address payable",
          "name": "",
          "type": "address"
        }
      ],
      "stateMutability": "view",
      "type": "function"
    },
    {
      "inputs": [],
      "name": "weiRaised",
      "outputs": [
        {
          "internalType": "uint256",
          "name": "",
          "type": "uint256"
        }
      ],
      "stateMutability": "view",
      "type": "function"
    },
    {
      "stateMutability": "payable",
      "type": "receive"
    }
  ],
  "bytecode": "0x608060405266071afd498d00006005556802b5e3af16b18800006006556000600860006101000a81548160ff0219169083151502179055503480156200004457600080fd5b50604051620017703803806200177083398181016040528101906200006a919062000334565b828282600160008190555060008311620000bb576040517f08c379a0000000000000000000000000000000000000000000000000000000008152600401620000b290620003f1565b60405180910390fd5b600073ffffffffffffffffffffffffffffffffffffffff168273ffffffffffffffffffffffffffffffffffffffff1614156200012e576040517f08c379a0000000000000000000000000000000000000000000000000000000008152600401620001259062000489565b60405180910390fd5b600073ffffffffffffffffffffffffffffffffffffffff168173ffffffffffffffffffffffffffffffffffffffff161415620001a1576040517f08c379a0000000000000000000000000000000000000000000000000000000008152600401620001989062000521565b60405180910390fd5b8260038190555081600260006101000a81548173ffffffffffffffffffffffffffffffffffffffff021916908373ffffffffffffffffffffffffffffffffffffffff16021790555080600160006101000a81548173ffffffffffffffffffffffffffffffffffffffff021916908373ffffffffffffffffffffffffffffffffffffffff16021790555050505050505062000543565b600080fd5b6000819050919050565b62000250816200023b565b81146200025c57600080fd5b50565b600081519050620002708162000245565b92915050565b600073ffffffffffffffffffffffffffffffffffffffff82169050919050565b6000620002a38262000276565b9050919050565b620002b58162000296565b8114620002c157600080fd5b50565b600081519050620002d581620002aa565b92915050565b6000620002e88262000276565b9050919050565b6000620002fc82620002db565b9050919050565b6200030e81620002ef565b81146200031a57600080fd5b50565b6000815190506200032e8162000303565b92915050565b60008060006060848603121562000350576200034f62000236565b5b600062000360868287016200025f565b93505060206200037386828701620002c4565b925050604062000386868287016200031d565b9150509250925092565b600082825260208201905092915050565b7f43726f776473616c653a20726174652069732030000000000000000000000000600082015250565b6000620003d960148362000390565b9150620003e682620003a1565b602082019050919050565b600060208201905081810360008301526200040c81620003ca565b9050919050565b7f43726f776473616c653a2077616c6c657420697320746865207a65726f20616460008201527f6472657373000000000000000000000000000000000000000000000000000000602082015250565b60006200047160258362000390565b91506200047e8262000413565b604082019050919050565b60006020820190508181036000830152620004a48162000462565b9050919050565b7f43726f776473616c653a20746f6b656e20697320746865207a65726f2061646460008201527f7265737300000000000000000000000000000000000000000000000000000000602082015250565b60006200050960248362000390565b91506200051682620004ab565b604082019050919050565b600060208201905081810360008301526200053c81620004fa565b9050919050565b61121d80620005536000396000f3fe60806040526004361061008a5760003560e01c8063521eb27311610059578063521eb273146101645780639250c3671461018f578063b25d7f54146101ba578063ec8ac4d8146101e5578063fc0c546a14610201576100a1565b806305d2035b146100a65780632c4e722e146100d15780634042b66f146100fc57806342e94c9014610127576100a1565b366100a15761009f61009a61022c565b610234565b005b600080fd5b3480156100b257600080fd5b506100bb61035a565b6040516100c89190610a3a565b60405180910390f35b3480156100dd57600080fd5b506100e661036d565b6040516100f39190610a6e565b60405180910390f35b34801561010857600080fd5b50610111610377565b60405161011e9190610a6e565b60405180910390f35b34801561013357600080fd5b5061014e60048036038101906101499190610aec565b610381565b60405161015b9190610a6e565b60405180910390f35b34801561017057600080fd5b50610179610399565b6040516101869190610b3a565b60405180910390f35b34801561019b57600080fd5b506101a46103c3565b6040516101b19190610a6e565b60405180910390f35b3480156101c657600080fd5b506101cf6103c9565b6040516101dc9190610a6e565b60405180910390f35b6101ff60048036038101906101fa9190610aec565b610234565b005b34801561020d57600080fd5b506102166103cf565b6040516102239190610bb4565b60405180910390f35b600033905090565b6002600054141561027a576040517f08c379a000000000000000000000000000000000000000000000000000000000815260040161027190610c2c565b60405180910390fd5b6002600081905550600034905061029182826103f9565b600061029c826104b0565b90506102b3826004546104ce90919063ffffffff16565b6004819055506102c383826104e4565b8273ffffffffffffffffffffffffffffffffffffffff166102e261022c565b73ffffffffffffffffffffffffffffffffffffffff167f6faf93231a456e552dbc9961f58d9713ee4f2e69d15f1975b050ef0911053a7b8484604051610329929190610c4c565b60405180910390a361033b83836104f2565b61034361059a565b61034d8383610605565b5050600160008190555050565b600860009054906101000a900460ff1681565b6000600354905090565b6000600454905090565b60076020528060005260406000206000915090505481565b6000600260009054906101000a900473ffffffffffffffffffffffffffffffffffffffff16905090565b60065481565b60055481565b6000600160009054906101000a900473ffffffffffffffffffffffffffffffffffffffff16905090565b6104038282610609565b6000600760008473ffffffffffffffffffffffffffffffffffffffff1673ffffffffffffffffffffffffffffffffffffffff168152602001908152602001600020549050600082826104559190610ca4565b9050600554811015801561046b57506006548111155b6104aa576040517f08c379a00000000000000000000000000000000000000000000000000000000081526004016104a190610d46565b60405180910390fd5b50505050565b60006104c7600354836106c190919063ffffffff16565b9050919050565b600081836104dc9190610ca4565b905092915050565b6104ee82826106d7565b5050565b6104fc8282610728565b6000600760008473ffffffffffffffffffffffffffffffffffffffff1673ffffffffffffffffffffffffffffffffffffffff1681526020019081526020016000205490506000828261054e9190610ca4565b905080600760008673ffffffffffffffffffffffffffffffffffffffff1673ffffffffffffffffffffffffffffffffffffffff1681526020019081526020016000208190555050505050565b600260009054906101000a900473ffffffffffffffffffffffffffffffffffffffff1673ffffffffffffffffffffffffffffffffffffffff166108fc349081150290604051600060405180830381858888f19350505050158015610602573d6000803e3d6000fd5b50565b5050565b600073ffffffffffffffffffffffffffffffffffffffff168273ffffffffffffffffffffffffffffffffffffffff161415610679576040517f08c379a000000000000000000000000000000000000000000000000000000000815260040161067090610dd8565b60405180910390fd5b60008114156106bd576040517f08c379a00000000000000000000000000000000000000000000000000000000081526004016106b490610e44565b60405180910390fd5b5050565b600081836106cf9190610e64565b905092915050565b6107248282600160009054906101000a900473ffffffffffffffffffffffffffffffffffffffff1673ffffffffffffffffffffffffffffffffffffffff1661072c9092919063ffffffff16565b5050565b5050565b6107ad8363a9059cbb60e01b848460405160240161074b929190610ecd565b604051602081830303815290604052907bffffffffffffffffffffffffffffffffffffffffffffffffffffffff19166020820180517bffffffffffffffffffffffffffffffffffffffffffffffffffffffff83818316178352505050506107b2565b505050565b6000610814826040518060400160405280602081526020017f5361666545524332303a206c6f772d6c6576656c2063616c6c206661696c65648152508573ffffffffffffffffffffffffffffffffffffffff166108799092919063ffffffff16565b905060008151111561087457808060200190518101906108349190610f22565b610873576040517f08c379a000000000000000000000000000000000000000000000000000000000815260040161086a90610fc1565b60405180910390fd5b5b505050565b60606108888484600085610891565b90509392505050565b6060824710156108d6576040517f08c379a00000000000000000000000000000000000000000000000000000000081526004016108cd90611053565b60405180910390fd5b6108df856109a5565b61091e576040517f08c379a0000000000000000000000000000000000000000000000000000000008152600401610915906110bf565b60405180910390fd5b6000808673ffffffffffffffffffffffffffffffffffffffff1685876040516109479190611159565b60006040518083038185875af1925050503d8060008114610984576040519150601f19603f3d011682016040523d82523d6000602084013e610989565b606091505b50915091506109998282866109b8565b92505050949350505050565b600080823b905060008111915050919050565b606083156109c857829050610a18565b6000835111156109db5782518084602001fd5b816040517f08c379a0000000000000000000000000000000000000000000000000000000008152600401610a0f91906111c5565b60405180910390fd5b9392505050565b60008115159050919050565b610a3481610a1f565b82525050565b6000602082019050610a4f6000830184610a2b565b92915050565b6000819050919050565b610a6881610a55565b82525050565b6000602082019050610a836000830184610a5f565b92915050565b600080fd5b600073ffffffffffffffffffffffffffffffffffffffff82169050919050565b6000610ab982610a8e565b9050919050565b610ac981610aae565b8114610ad457600080fd5b50565b600081359050610ae681610ac0565b92915050565b600060208284031215610b0257610b01610a89565b5b6000610b1084828501610ad7565b91505092915050565b6000610b2482610a8e565b9050919050565b610b3481610b19565b82525050565b6000602082019050610b4f6000830184610b2b565b92915050565b6000819050919050565b6000610b7a610b75610b7084610a8e565b610b55565b610a8e565b9050919050565b6000610b8c82610b5f565b9050919050565b6000610b9e82610b81565b9050919050565b610bae81610b93565b82525050565b6000602082019050610bc96000830184610ba5565b92915050565b600082825260208201905092915050565b7f5265656e7472616e637947756172643a207265656e7472616e742063616c6c00600082015250565b6000610c16601f83610bcf565b9150610c2182610be0565b602082019050919050565b60006020820190508181036000830152610c4581610c09565b9050919050565b6000604082019050610c616000830185610a5f565b610c6e6020830184610a5f565b9392505050565b7f4e487b7100000000000000000000000000000000000000000000000000000000600052601160045260246000fd5b6000610caf82610a55565b9150610cba83610a55565b9250827fffffffffffffffffffffffffffffffffffffffffffffffffffffffffffffffff03821115610cef57610cee610c75565b5b828201905092915050565b7f496e766573746f7220636170206f7574206f6620626f756e6461726965730000600082015250565b6000610d30601e83610bcf565b9150610d3b82610cfa565b602082019050919050565b60006020820190508181036000830152610d5f81610d23565b9050919050565b7f43726f776473616c653a2062656e656669636961727920697320746865207a6560008201527f726f206164647265737300000000000000000000000000000000000000000000602082015250565b6000610dc2602a83610bcf565b9150610dcd82610d66565b604082019050919050565b60006020820190508181036000830152610df181610db5565b9050919050565b7f43726f776473616c653a20776569416d6f756e74206973203000000000000000600082015250565b6000610e2e601983610bcf565b9150610e3982610df8565b602082019050919050565b60006020820190508181036000830152610e5d81610e21565b9050919050565b6000610e6f82610a55565b9150610e7a83610a55565b9250817fffffffffffffffffffffffffffffffffffffffffffffffffffffffffffffffff0483118215151615610eb357610eb2610c75565b5b828202905092915050565b610ec781610aae565b82525050565b6000604082019050610ee26000830185610ebe565b610eef6020830184610a5f565b9392505050565b610eff81610a1f565b8114610f0a57600080fd5b50565b600081519050610f1c81610ef6565b92915050565b600060208284031215610f3857610f37610a89565b5b6000610f4684828501610f0d565b91505092915050565b7f5361666545524332303a204552433230206f7065726174696f6e20646964206e60008201527f6f74207375636365656400000000000000000000000000000000000000000000602082015250565b6000610fab602a83610bcf565b9150610fb682610f4f565b604082019050919050565b60006020820190508181036000830152610fda81610f9e565b9050919050565b7f416464726573733a20696e73756666696369656e742062616c616e636520666f60008201527f722063616c6c0000000000000000000000000000000000000000000000000000602082015250565b600061103d602683610bcf565b915061104882610fe1565b604082019050919050565b6000602082019050818103600083015261106c81611030565b9050919050565b7f416464726573733a2063616c6c20746f206e6f6e2d636f6e7472616374000000600082015250565b60006110a9601d83610bcf565b91506110b482611073565b602082019050919050565b600060208201905081810360008301526110d88161109c565b9050919050565b600081519050919050565b600081905092915050565b60005b838110156111135780820151818401526020810190506110f8565b83811115611122576000848401525b50505050565b6000611133826110df565b61113d81856110ea565b935061114d8185602086016110f5565b80840191505092915050565b60006111658284611128565b915081905092915050565b600081519050919050565b6000601f19601f8301169050919050565b600061119782611170565b6111a18185610bcf565b93506111b18185602086016110f5565b6111ba8161117b565b840191505092915050565b600060208201905081810360008301526111df818461118c565b90509291505056fea264697066735822122043416246bc3eb7e2f4143b4ded97be1a24a22f10ead107a09ee9171b4e12d46564736f6c63430008090033",
  "linkReferences": {},
  "deployedLinkReferences": {}
}